{
  "_format": "hh-sol-artifact-1",
  "contractName": "WEVMOS9TestCaller",
  "sourceName": "solidity/precompiles/werc20/testdata/WEVMOS9TestCaller.sol",
  "abi": [
    {
      "inputs": [
        {
          "internalType": "address payable",
          "name": "_wrappedTokenAddress",
          "type": "address"
        }
      ],
      "stateMutability": "nonpayable",
      "type": "constructor"
    },
    {
      "anonymous": false,
      "inputs": [
        {
          "indexed": false,
          "internalType": "string",
          "name": "message",
          "type": "string"
        }
      ],
      "name": "Log",
      "type": "event"
    },
    {
      "inputs": [],
      "name": "WEVMOS",
      "outputs": [
        {
          "internalType": "address payable",
          "name": "",
          "type": "address"
        }
      ],
      "stateMutability": "view",
      "type": "function"
    },
    {
      "inputs": [],
      "name": "counter",
      "outputs": [
        {
          "internalType": "uint256",
          "name": "",
          "type": "uint256"
        }
      ],
      "stateMutability": "view",
      "type": "function"
    },
    {
      "inputs": [
        {
          "internalType": "bool",
          "name": "before",
          "type": "bool"
        },
        {
          "internalType": "bool",
          "name": "aft",
          "type": "bool"
        }
      ],
      "name": "depositWithRevert",
      "outputs": [],
      "stateMutability": "payable",
      "type": "function"
    }
  ],
  "bytecode": "0x60a03461007357601f6102b138819003918201601f19168301916001600160401b038311848410176100785780849260209460405283398101031261007357516001600160a01b03811681036100735760805260008055604051610222908161008f82396080518181816058015260e40152f35b600080fd5b634e487b7160e01b600052604160045260246000fdfe6080604081815260048036101561001557600080fd5b600092833560e01c9182635dab6f8c146100a7575050806361bc221a1461008b57637cf5b4fc1461004557600080fd5b34610087578160031936011261008757517f00000000000000000000000000000000000000000000000000000000000000006001600160a01b03168152602090f35b5080fd5b5034610087578160031936011261008757602091549051908152f35b90928092506003193601126101b557803580151581036101b1576024359384151585036101ad578554600019949085811461019a576001018755867f00000000000000000000000000000000000000000000000000000000000000006001600160a01b0316803b156100875785848092630d0e30db60e41b825234905af1801561019057610162575b505061014a57835490811561014f575001825561014a5780f35b6101b9565b634e487b7160e01b855260119052602484fd5b67ffffffffffffffff829793971161017d5752933880610130565b634e487b7160e01b835260418452602483fd5b81513d89823e3d90fd5b634e487b7160e01b885260118552602488fd5b8580fd5b8480fd5b8380fd5b60405162461bcd60e51b815260206004820152600b60248201526a726576657274206865726560a81b6044820152606490fdfea2646970667358221220b32282c4091e7b1e0ef38cfff23aebf1e60aad8d2696f353a69484cad09862a964736f6c63430008140033",
  "linkReferences": {},
  "deployedLinkReferences": {}
}