{
  "_format": "hh-sol-artifact-1",
  "contractName": "SimpleEntryPoint",
  "sourceName": "solidity/tests/contracts/account_abstraction/entrypoint/SimpleEntryPoint.sol",
  "abi": [
    {
      "anonymous": false,
      "inputs": [
        {
          "indexed": true,
          "internalType": "bytes32",
          "name": "userOpHash",
          "type": "bytes32"
        },
        {
          "indexed": true,
          "internalType": "address",
          "name": "sender",
          "type": "address"
        },
        {
          "indexed": false,
          "internalType": "bool",
          "name": "success",
          "type": "bool"
        }
      ],
      "name": "UserOperationEvent",
      "type": "event"
    },
    {
      "inputs": [
        {
          "components": [
            {
              "internalType": "address",
              "name": "sender",
              "type": "address"
            },
            {
              "internalType": "uint256",
              "name": "nonce",
              "type": "uint256"
            },
            {
              "internalType": "bytes",
              "name": "initCode",
              "type": "bytes"
            },
            {
              "internalType": "bytes",
              "name": "callData",
              "type": "bytes"
            },
            {
              "internalType": "uint256",
              "name": "callGasLimit",
              "type": "uint256"
            },
            {
              "internalType": "uint256",
              "name": "verificationGasLimit",
              "type": "uint256"
            },
            {
              "internalType": "uint256",
              "name": "preVerificationGas",
              "type": "uint256"
            },
            {
              "internalType": "uint256",
              "name": "maxFeePerGas",
              "type": "uint256"
            },
            {
              "internalType": "uint256",
              "name": "maxPriorityFeePerGas",
              "type": "uint256"
            },
            {
              "internalType": "bytes",
              "name": "paymasterAndData",
              "type": "bytes"
            },
            {
              "internalType": "bytes",
              "name": "signature",
              "type": "bytes"
            }
          ],
          "internalType": "struct UserOperation[]",
          "name": "ops",
          "type": "tuple[]"
        }
      ],
      "name": "handleOps",
      "outputs": [],
      "stateMutability": "nonpayable",
      "type": "function"
    }
  ],
  "bytecode": "0x608060405234801561001057600080fd5b50610db1806100206000396000f3fe608060405234801561001057600080fd5b506004361061002b5760003560e01c8063532d3ac914610030575b600080fd5b61004a600480360381019061004591906103bd565b61004c565b005b60005b8282905081101561028e573683838381811061006e5761006d61040a565b5b90506020028101906100809190610448565b9050600061008d82610293565b90508160000160208101906100a291906104cf565b73ffffffffffffffffffffffffffffffffffffffff16633a871cdd838360006040518463ffffffff1660e01b81526004016100df93929190610810565b6020604051808303816000875af192505050801561011b57506040513d601f19601f820116820180604052508101906101189190610863565b60015b6101865781600001602081019061013291906104cf565b73ffffffffffffffffffffffffffffffffffffffff16817f980a558f47f59a27189b156378a6cc54c9db5693b11ac559c5fa9fb29eb78719600060405161017991906108ab565b60405180910390a3610279565b50600082600001602081019061019c91906104cf565b73ffffffffffffffffffffffffffffffffffffffff168380606001906101c291906108c6565b6040516101d0929190610959565b6000604051808303816000865af19150503d806000811461020d576040519150601f19603f3d011682016040523d82523d6000602084013e610212565b606091505b5050905082600001602081019061022991906104cf565b73ffffffffffffffffffffffffffffffffffffffff16827f980a558f47f59a27189b156378a6cc54c9db5693b11ac559c5fa9fb29eb787198360405161026f91906108ab565b60405180910390a3505b50508080610286906109a1565b91505061004f565b505050565b600080826102a090610c90565b9050600081604001518051906020012090506000826060015180519060200120905060008361012001518051906020012090506000309050600046905085600001518660200151868689608001518a60a001518b60c001518c60e001518d61010001518b8b8b6040516020016103219c9b9a99989796959493929190610cc1565b604051602081830303815290604052805190602001209650505050505050919050565b6000604051905090565b600080fd5b600080fd5b600080fd5b600080fd5b600080fd5b60008083601f84011261037d5761037c610358565b5b8235905067ffffffffffffffff81111561039a5761039961035d565b5b6020830191508360208202830111156103b6576103b5610362565b5b9250929050565b600080602083850312156103d4576103d361034e565b5b600083013567ffffffffffffffff8111156103f2576103f1610353565b5b6103fe85828601610367565b92509250509250929050565b7f4e487b7100000000000000000000000000000000000000000000000000000000600052603260045260246000fd5b600080fd5b600080fd5b600080fd5b6000823560016101600383360303811261046557610464610439565b5b80830191505092915050565b600073ffffffffffffffffffffffffffffffffffffffff82169050919050565b600061049c82610471565b9050919050565b6104ac81610491565b81146104b757600080fd5b50565b6000813590506104c9816104a3565b92915050565b6000602082840312156104e5576104e461034e565b5b60006104f3848285016104ba565b91505092915050565b600061050b60208401846104ba565b905092915050565b61051c81610491565b82525050565b6000819050919050565b61053581610522565b811461054057600080fd5b50565b6000813590506105528161052c565b92915050565b60006105676020840184610543565b905092915050565b61057881610522565b82525050565b600080fd5b600080fd5b600080fd5b600080833560016020038436030381126105aa576105a9610588565b5b83810192508235915060208301925067ffffffffffffffff8211156105d2576105d161057e565b5b6001820236038313156105e8576105e7610583565b5b509250929050565b600082825260208201905092915050565b82818337600083830152505050565b6000601f19601f8301169050919050565b600061062d83856105f0565b935061063a838584610601565b61064383610610565b840190509392505050565b6000610160830161066260008401846104fc565b61066f6000860182610513565b5061067d6020840184610558565b61068a602086018261056f565b50610698604084018461058d565b85830360408701526106ab838284610621565b925050506106bc606084018461058d565b85830360608701526106cf838284610621565b925050506106e06080840184610558565b6106ed608086018261056f565b506106fb60a0840184610558565b61070860a086018261056f565b5061071660c0840184610558565b61072360c086018261056f565b5061073160e0840184610558565b61073e60e086018261056f565b5061074d610100840184610558565b61075b61010086018261056f565b5061076a61012084018461058d565b85830361012087015261077e838284610621565b9250505061079061014084018461058d565b8583036101408701526107a4838284610621565b925050508091505092915050565b6000819050919050565b6107c5816107b2565b82525050565b6000819050919050565b6000819050919050565b60006107fa6107f56107f0846107cb565b6107d5565b610522565b9050919050565b61080a816107df565b82525050565b6000606082019050818103600083015261082a818661064e565b905061083960208301856107bc565b6108466040830184610801565b949350505050565b60008151905061085d8161052c565b92915050565b6000602082840312156108795761087861034e565b5b60006108878482850161084e565b91505092915050565b60008115159050919050565b6108a581610890565b82525050565b60006020820190506108c0600083018461089c565b92915050565b600080833560016020038436030381126108e3576108e2610439565b5b80840192508235915067ffffffffffffffff8211156109055761090461043e565b5b60208301925060018202360383131561092157610920610443565b5b509250929050565b600081905092915050565b60006109408385610929565b935061094d838584610601565b82840190509392505050565b6000610966828486610934565b91508190509392505050565b7f4e487b7100000000000000000000000000000000000000000000000000000000600052601160045260246000fd5b60006109ac82610522565b91507fffffffffffffffffffffffffffffffffffffffffffffffffffffffffffffffff82036109de576109dd610972565b5b600182019050919050565b600080fd5b7f4e487b7100000000000000000000000000000000000000000000000000000000600052604160045260246000fd5b610a2682610610565b810181811067ffffffffffffffff82111715610a4557610a446109ee565b5b80604052505050565b6000610a58610344565b9050610a648282610a1d565b919050565b600080fd5b600080fd5b600067ffffffffffffffff821115610a8e57610a8d6109ee565b5b610a9782610610565b9050602081019050919050565b6000610ab7610ab284610a73565b610a4e565b905082815260208101848484011115610ad357610ad2610a6e565b5b610ade848285610601565b509392505050565b600082601f830112610afb57610afa610358565b5b8135610b0b848260208601610aa4565b91505092915050565b60006101608284031215610b2b57610b2a6109e9565b5b610b36610160610a4e565b90506000610b46848285016104ba565b6000830152506020610b5a84828501610543565b602083015250604082013567ffffffffffffffff811115610b7e57610b7d610a69565b5b610b8a84828501610ae6565b604083015250606082013567ffffffffffffffff811115610bae57610bad610a69565b5b610bba84828501610ae6565b6060830152506080610bce84828501610543565b60808301525060a0610be284828501610543565b60a08301525060c0610bf684828501610543565b60c08301525060e0610c0a84828501610543565b60e083015250610100610c1f84828501610543565b6101008301525061012082013567ffffffffffffffff811115610c4557610c44610a69565b5b610c5184828501610ae6565b6101208301525061014082013567ffffffffffffffff811115610c7757610c76610a69565b5b610c8384828501610ae6565b6101408301525092915050565b6000610c9c3683610b14565b9050919050565b610cac81610491565b82525050565b610cbb81610522565b82525050565b600061018082019050610cd7600083018f610ca3565b610ce4602083018e610cb2565b610cf1604083018d6107bc565b610cfe606083018c6107bc565b610d0b608083018b610cb2565b610d1860a083018a610cb2565b610d2560c0830189610cb2565b610d3260e0830188610cb2565b610d40610100830187610cb2565b610d4e6101208301866107bc565b610d5c610140830185610ca3565b610d6a610160830184610cb2565b9d9c5050505050505050505050505056fea26469706673582212208c7d78c56fc85f3203e4c9a3ac969f7f6b4283b7772b432a017fecf89e8e4a5264736f6c63430008140033",
  "linkReferences": {},
  "deployedLinkReferences": {}
}