{
  "_format": "hh-sol-artifact-1",
  "contractName": "StakingCallerTwo",
  "sourceName": "solidity/precompiles/staking/testdata/StakingCallerTwo.sol",
  "abi": [
    {
      "inputs": [],
      "name": "counter",
      "outputs": [
        {
          "internalType": "uint256",
          "name": "",
          "type": "uint256"
        }
      ],
      "stateMutability": "view",
      "type": "function"
    },
    {
      "inputs": [
        {
          "internalType": "address",
          "name": "",
          "type": "address"
        },
        {
          "internalType": "string",
          "name": "",
          "type": "string"
        }
      ],
      "name": "delegation",
      "outputs": [
        {
          "internalType": "uint256",
          "name": "",
          "type": "uint256"
        }
      ],
      "stateMutability": "view",
      "type": "function"
    },
    {
      "inputs": [
        {
          "components": [
            {
              "internalType": "string",
              "name": "moniker",
              "type": "string"
            },
            {
              "internalType": "string",
              "name": "identity",
              "type": "string"
            },
            {
              "internalType": "string",
              "name": "website",
              "type": "string"
            },
            {
              "internalType": "string",
              "name": "securityContact",
              "type": "string"
            },
            {
              "internalType": "string",
              "name": "details",
              "type": "string"
            }
          ],
          "internalType": "struct Description",
          "name": "_descr",
          "type": "tuple"
        },
        {
          "components": [
            {
              "internalType": "uint256",
              "name": "rate",
              "type": "uint256"
            },
            {
              "internalType": "uint256",
              "name": "maxRate",
              "type": "uint256"
            },
            {
              "internalType": "uint256",
              "name": "maxChangeRate",
              "type": "uint256"
            }
          ],
          "internalType": "struct CommissionRates",
          "name": "_commRates",
          "type": "tuple"
        },
        {
          "internalType": "uint256",
          "name": "_minSelfDel",
          "type": "uint256"
        },
        {
          "internalType": "address",
          "name": "_validator",
          "type": "address"
        },
        {
          "internalType": "string",
          "name": "_pubkey",
          "type": "string"
        },
        {
          "internalType": "bool",
          "name": "_before",
          "type": "bool"
        },
        {
          "internalType": "bool",
          "name": "_after",
          "type": "bool"
        }
      ],
      "name": "testCreateValidatorWithTransfer",
      "outputs": [],
      "stateMutability": "payable",
      "type": "function"
    },
    {
      "inputs": [
        {
          "internalType": "string",
          "name": "_validatorAddr",
          "type": "string"
        },
        {
          "internalType": "bool",
          "name": "_before",
          "type": "bool"
        },
        {
          "internalType": "bool",
          "name": "_after",
          "type": "bool"
        }
      ],
      "name": "testDelegateWithCounterAndTransfer",
      "outputs": [],
      "stateMutability": "payable",
      "type": "function"
    },
    {
      "inputs": [
        {
          "internalType": "address payable",
          "name": "_dest",
          "type": "address"
        },
        {
          "internalType": "address payable",
          "name": "_delegator",
          "type": "address"
        },
        {
          "internalType": "string",
          "name": "_validatorAddr",
          "type": "string"
        },
        {
          "internalType": "bool",
          "name": "_before",
          "type": "bool"
        },
        {
          "internalType": "bool",
          "name": "_after",
          "type": "bool"
        }
      ],
      "name": "testDelegateWithTransfer",
      "outputs": [],
      "stateMutability": "payable",
      "type": "function"
    }
  ],
  "bytecode": "0x60808060405234610016576108e6908161001c8239f35b600080fdfe6040608081526004908136101561001557600080fd5b600091823560e01c8063241774e6146105b057806361bc221a146105935783816366dafc7a1461042e57508063b9a6bbca146101ba5763c5b75f011461005a57600080fd5b60603660031901126101b65780356001600160401b0381116101b2576100839036908301610694565b6024359081151582036101ae576044359283151584036101aa576100c692610185575b8451906353266bbb60e01b825281806020958693863491309085016107e6565b0381896108005af190811561017b576101089495916100ec91889161014e575b50610810565b33865260018352828187209151948386809551938492016106db565b82019081520301902061011c348254610851565b90556101255780f35b61012f81546106fe565b815561014b81808080600f335af1610145610723565b50610753565b80f35b61016e9150853d8711610174575b6101668183610642565b8101906107a9565b386100e6565b503d61015c565b85513d88823e3d90fd5b61018f86546106fe565b86556101a586808080600f335af1610145610723565b6100a6565b8580fd5b8480fd5b8380fd5b8280fd5b506003199190610120368401126101b2576001600160401b039181358381116101aa57858184019160a087823603011261042a57606036602319011261042a5760a435966001600160a01b038816968789036101b25760c4359081116101b2576102279036908801610694565b60e4359788151589036101ae57610104928335998a15158b0361042657868c9161040c575b50508751637be6aa8b60e11b81526101008a8201529687958695610270838061085e565b9091880160a090526101a48801906102879261088f565b91610295602483018261085e565b936101031994858a8303016101248b01526102af9261088f565b6102bc604484018361085e565b89830386016101448b01526102d1929161088f565b6102de606484018361085e565b89830386016101648b01526102f3929161088f565b916084016103009161085e565b9092878303016101848801526103159261088f565b91602435602486015260443560448601526064356064860152608435608486015260a48501528382030160c484015261034d916107c1565b3460e483015203815a93610800602095f19081156104025786916103e4575b50156103a1575050829061037d5780f35b808080600f61039c9561039083546106fe565b83555af1610145610723565b388180f35b906020606492519162461bcd60e51b8352820152601e60248201527f4661696c656420746f20637265617465207468652076616c696461746f7200006044820152fd5b6103fc915060203d8111610174576101668183610642565b3861036c565b82513d88823e3d90fd5b808080600f61041f9561039083546106fe565b8a8661024c565b8680fd5b5080fd5b82818560a036600319011261042a57610445610627565b926001600160a01b039160243583811691908290036101ae576044356001600160401b0381116101aa5761047c9036908501610694565b906064359283151584036104265760843594851515860361058f578888886104c697610573575b5050508251906353266bbb60e01b825281806020978893883491309085016107e6565b03818b6108005af19081156105695761050895949392916104ed918a9161054c5750610810565b875260018352828188209151948386809551938492016106db565b82019081520301902061051c348254610851565b9055610526575080f35b8180600f81936105479661053a84546106fe565b8455165af1610145610723565b818180f35b6105639150863d8811610174576101668183610642565b8c6100e6565b83513d8a823e3d90fd5b8180600f81936105879661053a84546106fe565b8888886104a3565b8780fd5b50503461042a578160031936011261042a57602091549051908152f35b50346101b657816003193601126101b6576105c9610627565b906024356001600160401b0381116101ae5791836020956105f1879461061696369101610694565b6001600160a01b039093168152600184522084518251909485938290859087016106db565b820190815203019020549051908152f35b600435906001600160a01b038216820361063d57565b600080fd5b90601f801991011681019081106001600160401b0382111761066357604052565b634e487b7160e01b600052604160045260246000fd5b6001600160401b03811161066357601f01601f191660200190565b81601f8201121561063d578035906106ab82610679565b926106b96040519485610642565b8284526020838301011161063d57816000926020809301838601378301015290565b60005b8381106106ee5750506000910152565b81810151838201526020016106de565b600019811461070d5760010190565b634e487b7160e01b600052601160045260246000fd5b3d1561074e573d9061073482610679565b916107426040519384610642565b82523d6000602084013e565b606090565b1561075a57565b60405162461bcd60e51b815260206004820152602160248201527f4661696c656420746f2073656e6420457468657220746f2064656c656761746f6044820152603960f91b6064820152608490fd5b9081602091031261063d5751801515810361063d5790565b906020916107da815180928185528580860191016106db565b601f01601f1916010190565b93929161080b9060409260018060a01b031686526060602087015260608601906107c1565b930152565b1561081757565b60405162461bcd60e51b81526020600482015260126024820152714661696c656420746f2064656c656761746560701b6044820152606490fd5b9190820180921161070d57565b9035601e198236030181121561063d5701602081359101916001600160401b03821161063d57813603831361063d57565b908060209392818452848401376000828201840152601f01601f191601019056fea2646970667358221220350184501da67e3a98092e2f26eaf00d4ee07508f6998e67fcb8e6a420f1682264736f6c63430008140033",
  "linkReferences": {},
  "deployedLinkReferences": {}
}