{
  "_format": "hh-sol-artifact-1",
  "contractName": "StakingCaller",
  "sourceName": "solidity/precompiles/staking/testdata/StakingCaller.sol",
  "abi": [
    {
      "inputs": [
        {
          "internalType": "address",
          "name": "_contract",
          "type": "address"
        },
        {
          "internalType": "string",
          "name": "_validatorAddr",
          "type": "string"
        },
        {
          "internalType": "uint256",
          "name": "_amount",
          "type": "uint256"
        }
      ],
      "name": "callERC20AndDelegate",
      "outputs": [],
      "stateMutability": "payable",
      "type": "function"
    },
    {
      "inputs": [],
      "name": "counter",
      "outputs": [
        {
          "internalType": "uint256",
          "name": "",
          "type": "uint256"
        }
      ],
      "stateMutability": "view",
      "type": "function"
    },
    {
      "inputs": [
        {
          "internalType": "address",
          "name": "",
          "type": "address"
        },
        {
          "internalType": "string",
          "name": "",
          "type": "string"
        }
      ],
      "name": "delegations",
      "outputs": [
        {
          "internalType": "uint256",
          "name": "",
          "type": "uint256"
        }
      ],
      "stateMutability": "view",
      "type": "function"
    },
    {
      "inputs": [
        {
          "internalType": "address",
          "name": "_delegatorAddr",
          "type": "address"
        },
        {
          "internalType": "string",
          "name": "_validatorAddr",
          "type": "string"
        }
      ],
      "name": "getDelegation",
      "outputs": [
        {
          "internalType": "uint256",
          "name": "shares",
          "type": "uint256"
        },
        {
          "components": [
            {
              "internalType": "string",
              "name": "denom",
              "type": "string"
            },
            {
              "internalType": "uint256",
              "name": "amount",
              "type": "uint256"
            }
          ],
          "internalType": "struct Coin",
          "name": "balance",
          "type": "tuple"
        }
      ],
      "stateMutability": "view",
      "type": "function"
    },
    {
      "inputs": [
        {
          "internalType": "address",
          "name": "_delegatorAddr",
          "type": "address"
        },
        {
          "internalType": "string",
          "name": "_validatorSrcAddr",
          "type": "string"
        },
        {
          "internalType": "string",
          "name": "_validatorDstAddr",
          "type": "string"
        }
      ],
      "name": "getRedelegation",
      "outputs": [
        {
          "components": [
            {
              "internalType": "string",
              "name": "delegatorAddress",
              "type": "string"
            },
            {
              "internalType": "string",
              "name": "validatorSrcAddress",
              "type": "string"
            },
            {
              "internalType": "string",
              "name": "validatorDstAddress",
              "type": "string"
            },
            {
              "components": [
                {
                  "internalType": "int64",
                  "name": "creationHeight",
                  "type": "int64"
                },
                {
                  "internalType": "int64",
                  "name": "completionTime",
                  "type": "int64"
                },
                {
                  "internalType": "uint256",
                  "name": "initialBalance",
                  "type": "uint256"
                },
                {
                  "internalType": "uint256",
                  "name": "sharesDst",
                  "type": "uint256"
                }
              ],
              "internalType": "struct RedelegationEntry[]",
              "name": "entries",
              "type": "tuple[]"
            }
          ],
          "internalType": "struct RedelegationOutput",
          "name": "redelegation",
          "type": "tuple"
        }
      ],
      "stateMutability": "view",
      "type": "function"
    },
    {
      "inputs": [
        {
          "internalType": "address",
          "name": "_delegatorAddr",
          "type": "address"
        },
        {
          "internalType": "string",
          "name": "_validatorSrcAddr",
          "type": "string"
        },
        {
          "internalType": "string",
          "name": "_validatorDstAddr",
          "type": "string"
        },
        {
          "components": [
            {
              "internalType": "bytes",
              "name": "key",
              "type": "bytes"
            },
            {
              "internalType": "uint64",
              "name": "offset",
              "type": "uint64"
            },
            {
              "internalType": "uint64",
              "name": "limit",
              "type": "uint64"
            },
            {
              "internalType": "bool",
              "name": "countTotal",
              "type": "bool"
            },
            {
              "internalType": "bool",
              "name": "reverse",
              "type": "bool"
            }
          ],
          "internalType": "struct PageRequest",
          "name": "_pageRequest",
          "type": "tuple"
        }
      ],
      "name": "getRedelegations",
      "outputs": [
        {
          "components": [
            {
              "components": [
                {
                  "internalType": "string",
                  "name": "delegatorAddress",
                  "type": "string"
                },
                {
                  "internalType": "string",
                  "name": "validatorSrcAddress",
                  "type": "string"
                },
                {
                  "internalType": "string",
                  "name": "validatorDstAddress",
                  "type": "string"
                },
                {
                  "components": [
                    {
                      "internalType": "int64",
                      "name": "creationHeight",
                      "type": "int64"
                    },
                    {
                      "internalType": "int64",
                      "name": "completionTime",
                      "type": "int64"
                    },
                    {
                      "internalType": "uint256",
                      "name": "initialBalance",
                      "type": "uint256"
                    },
                    {
                      "internalType": "uint256",
                      "name": "sharesDst",
                      "type": "uint256"
                    }
                  ],
                  "internalType": "struct RedelegationEntry[]",
                  "name": "entries",
                  "type": "tuple[]"
                }
              ],
              "internalType": "struct Redelegation",
              "name": "redelegation",
              "type": "tuple"
            },
            {
              "components": [
                {
                  "components": [
                    {
                      "internalType": "int64",
                      "name": "creationHeight",
                      "type": "int64"
                    },
                    {
                      "internalType": "int64",
                      "name": "completionTime",
                      "type": "int64"
                    },
                    {
                      "internalType": "uint256",
                      "name": "initialBalance",
                      "type": "uint256"
                    },
                    {
                      "internalType": "uint256",
                      "name": "sharesDst",
                      "type": "uint256"
                    }
                  ],
                  "internalType": "struct RedelegationEntry",
                  "name": "redelegationEntry",
                  "type": "tuple"
                },
                {
                  "internalType": "uint256",
                  "name": "balance",
                  "type": "uint256"
                }
              ],
              "internalType": "struct RedelegationEntryResponse[]",
              "name": "entries",
              "type": "tuple[]"
            }
          ],
          "internalType": "struct RedelegationResponse[]",
          "name": "response",
          "type": "tuple[]"
        },
        {
          "components": [
            {
              "internalType": "bytes",
              "name": "nextKey",
              "type": "bytes"
            },
            {
              "internalType": "uint64",
              "name": "total",
              "type": "uint64"
            }
          ],
          "internalType": "struct PageResponse",
          "name": "pageResponse",
          "type": "tuple"
        }
      ],
      "stateMutability": "view",
      "type": "function"
    },
    {
      "inputs": [
        {
          "internalType": "address",
          "name": "_delegatorAddr",
          "type": "address"
        },
        {
          "internalType": "string",
          "name": "_validatorAddr",
          "type": "string"
        }
      ],
      "name": "getUnbondingDelegation",
      "outputs": [
        {
          "components": [
            {
              "internalType": "string",
              "name": "delegatorAddress",
              "type": "string"
            },
            {
              "internalType": "string",
              "name": "validatorAddress",
              "type": "string"
            },
            {
              "components": [
                {
                  "internalType": "int64",
                  "name": "creationHeight",
                  "type": "int64"
                },
                {
                  "internalType": "int64",
                  "name": "completionTime",
                  "type": "int64"
                },
                {
                  "internalType": "uint256",
                  "name": "initialBalance",
                  "type": "uint256"
                },
                {
                  "internalType": "uint256",
                  "name": "balance",
                  "type": "uint256"
                },
                {
                  "internalType": "uint64",
                  "name": "unbondingId",
                  "type": "uint64"
                },
                {
                  "internalType": "int64",
                  "name": "unbondingOnHoldRefCount",
                  "type": "int64"
                }
              ],
              "internalType": "struct UnbondingDelegationEntry[]",
              "name": "entries",
              "type": "tuple[]"
            }
          ],
          "internalType": "struct UnbondingDelegationOutput",
          "name": "unbondingDelegation",
          "type": "tuple"
        }
      ],
      "stateMutability": "view",
      "type": "function"
    },
    {
      "inputs": [
        {
          "internalType": "address",
          "name": "_validatorAddr",
          "type": "address"
        }
      ],
      "name": "getValidator",
      "outputs": [
        {
          "components": [
            {
              "internalType": "string",
              "name": "operatorAddress",
              "type": "string"
            },
            {
              "internalType": "string",
              "name": "consensusPubkey",
              "type": "string"
            },
            {
              "internalType": "bool",
              "name": "jailed",
              "type": "bool"
            },
            {
              "internalType": "enum BondStatus",
              "name": "status",
              "type": "uint8"
            },
            {
              "internalType": "uint256",
              "name": "tokens",
              "type": "uint256"
            },
            {
              "internalType": "uint256",
              "name": "delegatorShares",
              "type": "uint256"
            },
            {
              "components": [
                {
                  "internalType": "string",
                  "name": "moniker",
                  "type": "string"
                },
                {
                  "internalType": "string",
                  "name": "identity",
                  "type": "string"
                },
                {
                  "internalType": "string",
                  "name": "website",
                  "type": "string"
                },
                {
                  "internalType": "string",
                  "name": "securityContact",
                  "type": "string"
                },
                {
                  "internalType": "string",
                  "name": "details",
                  "type": "string"
                }
              ],
              "internalType": "struct Description",
              "name": "description",
              "type": "tuple"
            },
            {
              "internalType": "int64",
              "name": "unbondingHeight",
              "type": "int64"
            },
            {
              "internalType": "int64",
              "name": "unbondingTime",
              "type": "int64"
            },
            {
              "internalType": "uint256",
              "name": "commission",
              "type": "uint256"
            },
            {
              "internalType": "uint256",
              "name": "minSelfDelegation",
              "type": "uint256"
            }
          ],
          "internalType": "struct Validator",
          "name": "validator",
          "type": "tuple"
        }
      ],
      "stateMutability": "view",
      "type": "function"
    },
    {
      "inputs": [
        {
          "internalType": "string",
          "name": "_status",
          "type": "string"
        },
        {
          "components": [
            {
              "internalType": "bytes",
              "name": "key",
              "type": "bytes"
            },
            {
              "internalType": "uint64",
              "name": "offset",
              "type": "uint64"
            },
            {
              "internalType": "uint64",
              "name": "limit",
              "type": "uint64"
            },
            {
              "internalType": "bool",
              "name": "countTotal",
              "type": "bool"
            },
            {
              "internalType": "bool",
              "name": "reverse",
              "type": "bool"
            }
          ],
          "internalType": "struct PageRequest",
          "name": "_pageRequest",
          "type": "tuple"
        }
      ],
      "name": "getValidators",
      "outputs": [
        {
          "components": [
            {
              "internalType": "string",
              "name": "operatorAddress",
              "type": "string"
            },
            {
              "internalType": "string",
              "name": "consensusPubkey",
              "type": "string"
            },
            {
              "internalType": "bool",
              "name": "jailed",
              "type": "bool"
            },
            {
              "internalType": "enum BondStatus",
              "name": "status",
              "type": "uint8"
            },
            {
              "internalType": "uint256",
              "name": "tokens",
              "type": "uint256"
            },
            {
              "internalType": "uint256",
              "name": "delegatorShares",
              "type": "uint256"
            },
            {
              "components": [
                {
                  "internalType": "string",
                  "name": "moniker",
                  "type": "string"
                },
                {
                  "internalType": "string",
                  "name": "identity",
                  "type": "string"
                },
                {
                  "internalType": "string",
                  "name": "website",
                  "type": "string"
                },
                {
                  "internalType": "string",
                  "name": "securityContact",
                  "type": "string"
                },
                {
                  "internalType": "string",
                  "name": "details",
                  "type": "string"
                }
              ],
              "internalType": "struct Description",
              "name": "description",
              "type": "tuple"
            },
            {
              "internalType": "int64",
              "name": "unbondingHeight",
              "type": "int64"
            },
            {
              "internalType": "int64",
              "name": "unbondingTime",
              "type": "int64"
            },
            {
              "internalType": "uint256",
              "name": "commission",
              "type": "uint256"
            },
            {
              "internalType": "uint256",
              "name": "minSelfDelegation",
              "type": "uint256"
            }
          ],
          "internalType": "struct Validator[]",
          "name": "validators",
          "type": "tuple[]"
        },
        {
          "components": [
            {
              "internalType": "bytes",
              "name": "nextKey",
              "type": "bytes"
            },
            {
              "internalType": "uint64",
              "name": "total",
              "type": "uint64"
            }
          ],
          "internalType": "struct PageResponse",
          "name": "pageResponse",
          "type": "tuple"
        }
      ],
      "stateMutability": "view",
      "type": "function"
    },
    {
      "inputs": [
        {
          "internalType": "address",
          "name": "_delegatorAddr",
          "type": "address"
        },
        {
          "internalType": "string",
          "name": "_validatorAddr",
          "type": "string"
        },
        {
          "internalType": "string",
          "name": "_calltype",
          "type": "string"
        }
      ],
      "name": "testCallDelegation",
      "outputs": [
        {
          "internalType": "uint256",
          "name": "shares",
          "type": "uint256"
        },
        {
          "components": [
            {
              "internalType": "string",
              "name": "denom",
              "type": "string"
            },
            {
              "internalType": "uint256",
              "name": "amount",
              "type": "uint256"
            }
          ],
          "internalType": "struct Coin",
          "name": "coin",
          "type": "tuple"
        }
      ],
      "stateMutability": "nonpayable",
      "type": "function"
    },
    {
      "inputs": [
        {
          "internalType": "string",
          "name": "_validatorAddr",
          "type": "string"
        },
        {
          "internalType": "uint256",
          "name": "_amount",
          "type": "uint256"
        },
        {
          "internalType": "string",
          "name": "_calltype",
          "type": "string"
        }
      ],
      "name": "testCallUndelegate",
      "outputs": [],
      "stateMutability": "nonpayable",
      "type": "function"
    },
    {
      "inputs": [
        {
          "internalType": "string",
          "name": "_validatorAddr",
          "type": "string"
        },
        {
          "internalType": "uint256",
          "name": "_amount",
          "type": "uint256"
        },
        {
          "internalType": "uint256",
          "name": "_creationHeight",
          "type": "uint256"
        }
      ],
      "name": "testCancelUnbonding",
      "outputs": [],
      "stateMutability": "nonpayable",
      "type": "function"
    },
    {
      "inputs": [
        {
          "components": [
            {
              "internalType": "string",
              "name": "moniker",
              "type": "string"
            },
            {
              "internalType": "string",
              "name": "identity",
              "type": "string"
            },
            {
              "internalType": "string",
              "name": "website",
              "type": "string"
            },
            {
              "internalType": "string",
              "name": "securityContact",
              "type": "string"
            },
            {
              "internalType": "string",
              "name": "details",
              "type": "string"
            }
          ],
          "internalType": "struct Description",
          "name": "_descr",
          "type": "tuple"
        },
        {
          "components": [
            {
              "internalType": "uint256",
              "name": "rate",
              "type": "uint256"
            },
            {
              "internalType": "uint256",
              "name": "maxRate",
              "type": "uint256"
            },
            {
              "internalType": "uint256",
              "name": "maxChangeRate",
              "type": "uint256"
            }
          ],
          "internalType": "struct CommissionRates",
          "name": "_commRates",
          "type": "tuple"
        },
        {
          "internalType": "uint256",
          "name": "_minSelfDel",
          "type": "uint256"
        },
        {
          "internalType": "address",
          "name": "_valAddr",
          "type": "address"
        },
        {
          "internalType": "string",
          "name": "_pubkey",
          "type": "string"
        },
        {
          "internalType": "uint256",
          "name": "_value",
          "type": "uint256"
        }
      ],
      "name": "testCreateValidator",
      "outputs": [
        {
          "internalType": "bool",
          "name": "",
          "type": "bool"
        }
      ],
      "stateMutability": "nonpayable",
      "type": "function"
    },
    {
      "inputs": [
        {
          "internalType": "string",
          "name": "_validatorAddr",
          "type": "string"
        }
      ],
      "name": "testDelegate",
      "outputs": [],
      "stateMutability": "payable",
      "type": "function"
    },
    {
      "inputs": [
        {
          "internalType": "string",
          "name": "_validatorAddr",
          "type": "string"
        }
      ],
      "name": "testDelegateAndFailCustomLogic",
      "outputs": [],
      "stateMutability": "payable",
      "type": "function"
    },
    {
      "inputs": [
        {
          "internalType": "string",
          "name": "_validatorAddr",
          "type": "string"
        }
      ],
      "name": "testDelegateIncrementCounter",
      "outputs": [],
      "stateMutability": "payable",
      "type": "function"
    },
    {
      "inputs": [
        {
          "components": [
            {
              "internalType": "string",
              "name": "moniker",
              "type": "string"
            },
            {
              "internalType": "string",
              "name": "identity",
              "type": "string"
            },
            {
              "internalType": "string",
              "name": "website",
              "type": "string"
            },
            {
              "internalType": "string",
              "name": "securityContact",
              "type": "string"
            },
            {
              "internalType": "string",
              "name": "details",
              "type": "string"
            }
          ],
          "internalType": "struct Description",
          "name": "_descr",
          "type": "tuple"
        },
        {
          "internalType": "address",
          "name": "_valAddr",
          "type": "address"
        },
        {
          "internalType": "int256",
          "name": "_commRate",
          "type": "int256"
        },
        {
          "internalType": "int256",
          "name": "_minSelfDel",
          "type": "int256"
        }
      ],
      "name": "testEditValidator",
      "outputs": [
        {
          "internalType": "bool",
          "name": "",
          "type": "bool"
        }
      ],
      "stateMutability": "nonpayable",
      "type": "function"
    },
    {
      "inputs": [
        {
          "internalType": "string",
          "name": "_validatorSrcAddr",
          "type": "string"
        },
        {
          "internalType": "string",
          "name": "_validatorDstAddr",
          "type": "string"
        },
        {
          "internalType": "uint256",
          "name": "_amount",
          "type": "uint256"
        }
      ],
      "name": "testRedelegate",
      "outputs": [],
      "stateMutability": "nonpayable",
      "type": "function"
    },
    {
      "inputs": [
        {
          "internalType": "string",
          "name": "_validatorAddr",
          "type": "string"
        },
        {
          "internalType": "uint256",
          "name": "_amount",
          "type": "uint256"
        }
      ],
      "name": "testUndelegate",
      "outputs": [],
      "stateMutability": "nonpayable",
      "type": "function"
    },
    {
      "inputs": [
        {
          "internalType": "address",
          "name": "",
          "type": "address"
        },
        {
          "internalType": "uint256",
          "name": "",
          "type": "uint256"
        }
      ],
      "name": "unbondingDelegations",
      "outputs": [
        {
          "internalType": "string",
          "name": "validator",
          "type": "string"
        },
        {
          "internalType": "uint256",
          "name": "amount",
          "type": "uint256"
        },
        {
          "internalType": "uint256",
          "name": "creationHeight",
          "type": "uint256"
        },
        {
          "internalType": "int64",
          "name": "completionTime",
          "type": "int64"
        }
      ],
      "stateMutability": "view",
      "type": "function"
    }
  ],
  "bytecode": "0x60803462000266576020906001600160401b0381830181811183821017620002505760808301818110838211176200025057604052602381527f2f636f736d6f732e7374616b696e672e763162657461312e4d736744656c656760408401526261746560e81b60608401528252600390815492600193848455808510620001d1575b5060008381528581209095869390925b868510620000a9576040516130a69081620002c28239f35b8051908151838111620001bd5788918691620000c687546200026b565b948c601f968588821162000182575b5050508c849683116001146200011c5795829186979262000110575b5050600019828c1b1c191690841b1786555b0193019401939162000091565b015190503880620000f1565b9095601f198316898352858320925b8181106200016a575090869784889594931062000151575b505050811b01865562000103565b0151600019838e1b60f8161c1916905538808062000143565b8289015184558e978c9794019392830192016200012b565b828b620001aa945220600589808701821c830193898810620001b3575b01901c0190620002a8565b8c3885620000d5565b935082936200019f565b634e487b7160e01b8a52604160045260248afd5b6000848152858088832093840193015b838110620001f25750505062000081565b82620001ff82546200026b565b8062000211575b5050018690620001e1565b601f8082116001146200022b57505081555b823862000206565b62000246908484528c8420920160051c8201858301620002a8565b8183555562000223565b634e487b7160e01b600052604160045260246000fd5b600080fd5b90600182811c921680156200029d575b60208310146200028757565b634e487b7160e01b600052602260045260246000fd5b91607f16916200027b565b818110620002b4575050565b60008155600101620002a856fe6080604052600436101561001257600080fd5b60003560e01c8063088b32b1146101575780631904bb2e1461015257806319b16c4c1461014d5780632345e7d41461014857806329e71c821461014357806331bcbcb31461013e578063455b855114610139578063464d2d0314610134578063569c21e31461012f578063570467ac1461012a57806361bc221a1461012557806368ac3df314610120578063a4603a2e1461011b578063af9a90b214610116578063b13d424214610111578063b3e982341461010c578063b61b519714610107578063cf2753cf14610102578063ddbaf2c2146100fd5763f732b065146100f857600080fd5b611c2d565b611ab9565b611a1e565b6119af565b6118b5565b611773565b61160f565b6114ae565b611427565b6113fb565b611338565b61121d565b6111a2565b610f9f565b610d97565b610c97565b610a6d565b6107ec565b6105b2565b6103dc565b600435906001600160a01b038216820361017257565b600080fd5b60a435906001600160a01b038216820361017257565b602435906001600160a01b038216820361017257565b80548210156101bf5760005260206000209060021b0190600090565b634e487b7160e01b600052603260045260246000fd5b90600182811c92168015610205575b60208310146101ef57565b634e487b7160e01b600052602260045260246000fd5b91607f16916101e4565b634e487b7160e01b600052604160045260246000fd5b61016081019081106001600160401b0382111761024157604052565b61020f565b60a081019081106001600160401b0382111761024157604052565b606081019081106001600160401b0382111761024157604052565b60c081019081106001600160401b0382111761024157604052565b608081019081106001600160401b0382111761024157604052565b604081019081106001600160401b0382111761024157604052565b90601f801991011681019081106001600160401b0382111761024157604052565b9060405191826000825492610302846101d5565b908184526001948581169081600014610371575060011461032e575b505061032c925003836102cd565b565b9093915060005260209081600020936000915b81831061035957505061032c9350820101388061031e565b85548884018501529485019487945091830191610341565b91505061032c94506020925060ff191682840152151560051b820101388061031e565b60005b8381106103a75750506000910152565b8181015183820152602001610397565b906020916103d081518092818552858086019101610394565b601f01601f1916010190565b34610172576040366003190112610172576103f561015c565b6001600160a01b03166000908152600160205260409020805460243591908210156101725761045a91610427916101a3565b50610431816102ee565b906001810154906003600282015491015460070b906040519485946080865260808601906103b7565b926020850152604084015260608301520390f35b90600482101561047b5752565b634e487b7160e01b600052602160045260246000fd5b6104fa9160806104e96104d76104c56104b3865160a0875260a08701906103b7565b602087015186820360208801526103b7565b604086015185820360408701526103b7565b606085015184820360608601526103b7565b9201519060808184039101526103b7565b90565b9061056d61052961051784516101608086528501906103b7565b602085015184820360208601526103b7565b6040848101511515908401526105476060850151606085019061046e565b6080840151608084015260a084015160a084015260c084015183820360c0850152610491565b60e08084015160070b90830152916101008181015160070b9083015261012080820151908301526101408091015191015290565b9060206104fa9281815201906104fd565b34610172576020366003190112610172576101406106766105d161015c565b6040908151906105e082610225565b60608083528060208401526000958387949285878195015283818301528360808301528360a083015286519061061582610246565b80825260208201819052878201819052818101819052608082015260c082015260e08101839052610100810183905261012081018390520152825163111d9dbd60e11b81526001600160a01b03909116600482015292839081906024820190565b03816108005afa9182156106c4578361069b949361069f575b505051918291826105a1565b0390f35b6106bc9293503d8091833e6106b481836102cd565b8101906128d8565b90388061068f565b611e38565b6040519061032c826102b2565b6040519061032c82610246565b6040519061032c82610225565b6040519061032c82610297565b6001600160401b03811161024157601f01601f191660200190565b929192610724826106fd565b9161073260405193846102cd565b829481845281830111610172578281602093846000960137010152565b9080601f83011215610172578160206104fa93359101610718565b6060600319820112610172576004356001600160a01b038116810361017257916001600160401b0360243581811161017257836107a99160040161074f565b92604435918211610172576104fa9160040161074f565b90815260406020820152606060206107e3845160408086015260808501906103b7565b93015191015290565b34610172576107fa3661076a565b60009291926108076128fd565b506040938451916020948584019463120bba7360e11b86528461082e858460248401612a97565b0390610842601f19928381018852876102cd565b8851610861816108558b82018095611aa2565b038481018352826102cd565b5190209088518881019061088c8161085584600c906b19195b1959d85d1958d85b1b60a21b81520190565b51902082036108db575050505050916000806108cd9361069b969551906108005af4906108c06108ba612edf565b92612fa3565b8082518301019101612a37565b9290915b51928392836107c0565b8851691cdd185d1a58d8d85b1b60b21b898201908152906108ff81600a8401610855565b519020820361093b575050505050916000806109339361069b969551906108005afa906108c061092d612edf565b92612f57565b9290916108d1565b88516318d85b1b60e21b898201908152906109598160048401610855565b519020820361098e575050505050916000806109339361069b96955190826108005af1906108c0610988612edf565b92612f0f565b9193955091935086516109c487820192826109b8856008906763616c6c636f646560c01b81520190565b039081018352826102cd565b51902003610a515760a460c0926109ef6109dc612ff9565b8051908801206001600160e01b03191690565b908787870151960151885196879586948552600485015289602485015260336044850152606484015260848301526108005af291815192610100606084015193018552156101725761069b91610a436106c9565b9160608352820152926108d1565b845162461bcd60e51b815280610a6960048201612eb4565b0390fd5b34610172576060366003190112610172576001600160401b0360043581811161017257610a9e90369060040161074f565b6024359160443590811161017257610aba90369060040161074f565b91610ac3612075565b6040805160209485820192630fb6accf60e21b845282610ae886883060248501611eeb565b0391610afc601f19938481018652856102cd565b8151610b1b81610b0f8b82018095611aa2565b038581018352826102cd565b519020610b30610b2a42611f69565b60070b90565b92825189810190610b588161085584600c906b19195b1959d85d1958d85b1b60a21b81520190565b5190208203610b99575050505093600080610b9193610b979751906108005af490610b846108ba612edf565b80825183010191016121ac565b91612205565b005b8251691cdd185d1a58d8d85b1b60b21b8a820190815290610bbd81600a8401610855565b5190208203610be9575050505093600080610b9193610b979751906108005afa90610b8461092d612edf565b82516318d85b1b60e21b8a820190815290610c078160048401610855565b5190208203610c34575050505093600080610b9193610b97975190826108005af190610b84610988612edf565b9091929697610c5c845191820192826109b8856008906763616c6c636f646560c01b81520190565b51902003610c80575060009182915190826108005af21561017257610b9792612205565b5162461bcd60e51b815280610a6960048201612eb4565b34610172576040366003190112610172576004356001600160401b03811161017257610cc790369060040161074f565b602435610cd48183612377565b610cdc612075565b604051630fb6accf60e21b81529060208280610cfd84873060048501611eeb565b038160006108005af19182156106c457600092610d67575b5060008260070b1315610d2b57610b9792612205565b60405162461bcd60e51b81526020600482015260146024820152734661696c656420746f20756e64656c656761746560601b6044820152606490fd5b610d8991925060203d8111610d90575b610d8181836102cd565b8101906121ac565b9038610d15565b503d610d77565b606036600319011261017257610dab61015c565b6024356001600160401b03811161017257610dca90369060040161074f565b610dd2612075565b60405163a9059cbb60e01b6020820190815233602483015260448035818401528252610e1d91610e036064826102cd565b600094859283809351925af1610e17612edf565b50613032565b6040516353266bbb60e01b81529060208280610e3e34853060048501611eeb565b0381866108005af19182156106c457610e6a92610e62918591610e6d575b50611f15565b349033611f79565b80f35b610e8e915060203d8111610e94575b610e8681836102cd565b810190611d3c565b38610e5c565b503d610e7c565b906040600319830112610172576004356001600160a01b03811681036101725791602435906001600160401b038211610172576104fa9160040161074f565b906020908183528051916060928382860152610efb608091828701906103b7565b93828401519581601f1997610f1c60409889928b86830301848701526103b7565b96015197828703019101528280875195868152019601946000925b858410610f48575050505050505090565b86518051600790810b8a5281870151810b8a880152818401518a850152818501518a860152818301516001600160401b03168a84015260a091820151900b9089015260c09097019695840195600190930192610f37565b3461017257610fad36610e9b565b906040805191610fbc83610261565b60609384845284836020958287820152015282519163a03ffee160e01b83528280610fee600094859460048401612a97565b03816108005afa9384156106c4578194611010575b83518061069b8782610eda565b90919293503d8083853e61102481856102cd565b83019080848303126111685783516001600160401b0394858211611170570193868584031261116c5785519461105986610261565b8051828111611174578461106e918301612725565b8652828101518281116111745784611087918301612725565b838701528681015191821161117057019180601f8401121561116c578251966110af88612917565b946110bc885196876102cd565b888652838601928460c0809b0287010195818711611168578501935b8685106110f8575050505050505061069b93508282015290388080611003565b8a8583031261116857858b918b5161110f8161027c565b6111188861219e565b815261112583890161219e565b838201528c8801518d82015286880151878201526080808901519061114982611b07565b82015260a0611159818a0161219e565b908201528152019401936110d8565b8280fd5b8380fd5b8480fd5b8580fd5b602060031982011261017257600435906001600160401b038211610172576104fa9160040161074f565b6111ab36611178565b6111b3612075565b6040516353266bbb60e01b8152806111d034843060048501611eeb565b039160208260009481866108005af19182156106c4576111fa92610e62918591610e6d5750611f15565b80803415611214575b8180809234903390f1156106c45780f35b506108fc611203565b61122636611178565b61122e612075565b6040516353266bbb60e01b8152906020828061124f34853060048501611eeb565b038160006108005af19182156106c457610b9792610e6291600091610e6d5750611f15565b805190611289608092838552838501906103b7565b60606112b66112a460209384860151888203868a01526103b7565b604085015187820360408901526103b7565b9201519360608184039101528080855193848152019401926000905b8382106112e157505050505090565b909192939483828261131a6001948a5160608091805160070b8452602081015160070b6020850152604081015160408501520151910152565b01960194939201906112d2565b9060206104fa928181520190611274565b346101725760006113483661076a565b9092916113b46040519261135b84610297565b606080858180975281602082015281604082015201526113a26040519687958695631f67e4e760e21b875260018060a01b03166004870152602486015260648501906103b7565b838103600319016044850152906103b7565b03816108005afa80156106c45761069b916000916113da575b5060405191829182611327565b6113f5913d8091833e6113ed81836102cd565b810190612bfa565b386113cd565b34610172576000366003190112610172576020600254604051908152f35b908160a09103126101725790565b3461017257610100366003190112610172576001600160401b0360043581811161017257611459903690600401611419565b9060603660231901126101725761146e610177565b9160c4359182116101725761069b9261148e61149c93369060040161074f565b9060e4359260843590611e44565b60405190151581529081906020820190565b34610172576060366003190112610172576004356001600160401b038111610172576114de90369060040161074f565b604435906024356114ed612075565b600091825b33600052846001806020526040600020548310156115fb573360009081526001602052604090206115249084906101a3565b5061154585611532836102ee565b6020815191012090602081519101201490565b90816115e2575b5061156157505061155c90611fbf565b6114f2565b84955060209391949250600161157a915b151514612698565b611599604051968793849363096ac6ff60e11b8552306004860161252a565b038160006108005af19283156106c457610b97936115bf916000916115c4575b5061255d565b6125a9565b6115dc915060203d8111610e9457610e8681836102cd565b386115b9565b600301546115f3915060070b610b2a565b42103861154c565b5092938491509161157a6001602094611572565b34610172576080366003190112610172576004356001600160401b0381116101725761163f903690600401611419565b602061167061164c61018d565b604051632943c16b60e21b8152608060048201529384928392916084840190611da3565b6001600160a01b03909116602483015260448035908301526064803590830152038160006108005af180156106c45761069b916000916116be575b5060405190151581529081906020820190565b6116d6915060203d8111610e9457610e8681836102cd565b386116ab565b9060206001600160401b03816116fb85516040865260408601906103b7565b9401511691015290565b929160408401916040855280518093526060850160608460051b870101936020809301916000905b8282106117495750505050936104fa93948184039101526116dc565b909192958480611765600193605f198d82030186528a516104fd565b98019201920190929161172d565b346101725760406003198181360112610172576001600160401b03600435818111610172576117a690369060040161074f565b60243590828211610172576000926117c56117f3933690600401611419565b946117ce6128fd565b506080808851978896879663186b216760e01b88528b600489015260448801906103b7565b9386850301602487015261181861180a8280611d51565b60a0875260a0870191611d82565b9480602083013561182881611b07565b1660208601528a82013561183b81611b07565b168a850152606081013561184e81611b23565b15156060850152013561186081611b23565b151591015203816108005afa9182156106c457600091829361188c575b5061069b905192839283611705565b6118ad91935061069b923d8091833e6118a581836102cd565b81019061298d565b92909161187d565b3461017257600319606036820112610172576001600160401b0390600435828111610172576118e890369060040161074f565b916024359081116101725761190190369060040161074f565b61194f6020604435936119148587612377565b604051809381926354b826f560e01b83523060048401526080602484015261193f608484018a6103b7565b90838203016044840152866103b7565b866064830152038160006108005af19081156106c457610b9794611985600061198b9487948291611991575b5060070b13612419565b3361245c565b33611f79565b6119a9915060203d8111610d9057610d8181836102cd565b3861197b565b6119b836611178565b6119c0612075565b6040516353266bbb60e01b815290602082806119e134853060048501611eeb565b038160006108005af19182156106c457611a0692610e6291600091610e6d5750611f15565b60025460018101809111611a1957600255005b611f53565b3461017257611a566000611a3136610e9b565b90611a3a6128fd565b5060405163120bba7360e11b8152938492839260048401612a97565b03816108005afa9081156106c4576000908192611a7e575b5061069b604051928392836107c0565b90611a9b92503d8091833e611a9381836102cd565b810190612a37565b9038611a6e565b90611ab560209282815194859201610394565b0190565b34610172576020611af581611acd36610e9b565b9060018060a01b03166000526000825260406000208260405194838680955193849201610394565b82019081520301902054604051908152f35b6001600160401b0381160361017257565b359061032c82611b07565b8015150361017257565b359061032c82611b23565b92916040918285018386528151809152606086019060608160051b88010194602080940192600091825b848410611b8057505050505050936104fa93948184039101526116dc565b9091929394978690605f198c8203018552895182611ba5825187855287850190611274565b910151918381830391015282808351928381520192019084905b808210611bde5750505090806001929a01940194019294939190611b62565b919360a060019294828751611c1883825160608091805160070b8452602081015160070b6020850152604081015160408501520151910152565b01516080820152019401920189939291611bbf565b346101725760031960803682011261017257611c4761015c565b6001600160401b039060243582811161017257611c6890369060040161074f565b60443583811161017257611c8090369060040161074f565b91606435948486116101725760a09086360301126101725760405193611ca585610246565b85600401359081116101725785019436602387011215610172576084611d1791611cdc611d21983690602460048201359101610718565b8752611cea60248201611b18565b6020880152611cfb60448201611b18565b6040880152611d0c60648201611b2d565b606088015201611b2d565b6080850152612dc6565b9061069b60405192839283611b38565b519061032c82611b23565b9081602091031261017257516104fa81611b23565b9035601e19823603018112156101725701602081359101916001600160401b03821161017257813603831361017257565b908060209392818452848401376000828201840152601f01601f1916010190565b6104fa91611e2a611e1f611e04611de9611dce611dc08780611d51565b60a0885260a0880191611d82565b611ddb6020880188611d51565b908783036020890152611d82565b611df66040870187611d51565b908683036040880152611d82565b611e116060860186611d51565b908583036060870152611d82565b926080810190611d51565b916080818503910152611d82565b6040513d6000823e3d90fd5b9093611eb2611e7693956020956040519788968796637be6aa8b60e11b88526101006004890152610104880190611da3565b92602435602488015260443560448801526064356064880152608487015260018060a01b031660a48601526003198583030160c48601526103b7565b9060e4830152038160006108005af19081156106c457600091611ed3575090565b6104fa915060203d8111610e9457610e8681836102cd565b939291611f109060409260018060a01b031686526060602087015260608601906103b7565b930152565b15611f1c57565b60405162461bcd60e51b815260206004820152600f60248201526e19195b1959d85d194819985a5b1959608a1b6044820152606490fd5b634e487b7160e01b600052601160045260246000fd5b90621baf808201809211611a1957565b611fa79160209160018060a01b03166000526000825260406000208260405194838680955193849201610394565b8201908152030190208054918201809211611a195755565b6000198114611a195760010190565b818110611fd9575050565b60008155600101611fce565b634e487b7160e01b600052600060045260246000fd5b906120635760038161200f600093546101d5565b80612026575b508260018201558260028201550155565b601f811160011461203c57508281555b38612015565b839082825261205a601f60208420920160051c820160018301611fce565b81835555612036565b611fe5565b91908203918211611a1957565b60005b336000526001602090808252604091826000208054851015612197578461209e916101a3565b509142600384015460070b11156120c2575b505050506120bd90611fbf565b612078565b3360009081526001602052604090206120e6906120e09087906101a3565b90611ffb565b828101543360009081526020819052604090209094519360009281549161210c836101d5565b9282811690811561217c5750600114612146575b505050815282900301902080546120bd939261213b91612068565b9055903880806120b0565b600090815285812093945091925b83831061216b5750505083019083816120bd612120565b805487840152918501918101612154565b60ff19168852505050801515028401915083816120bd612120565b5050505050565b51908160070b820361017257565b90816020910312610172576104fa9061219e565b9190601f81116121cf57505050565b61032c926000526020600020906020601f840160051c830193106121fb575b601f0160051c0190611fce565b90915081906121ee565b91903360005260016020918183526040600020926040519561222687610297565b86528086019182526040860193438552606087019560070b86528054600160401b8110156102415761225c9185820181556101a3565b9690966120635751908151916001600160401b0383116102415761228a836122848a546101d5565b8a6121c0565b81601f84116001146122fd57509282600396936122d4969361032c9a99966000926122f2575b505060001982891b1c191690831b1787555b51908601555160028501555160070b90565b9101906001600160401b0319825416906001600160401b0316179055565b0151905038806122b0565b9190601f1984166123138a600052602060002090565b936000905b82821061236057505093869361032c9a9996936122d498938360039b9810612348575b505050811b0187556122c2565b0151600019838b1b60f8161c1916905538808061233b565b808986978294978701518155019601940190612318565b602061239d91336000526000825260406000208260405194838680955193849201610394565b82019081520301902054106123ae57565b60405162461bcd60e51b815260206004820152603b60248201527f44656c65676174696f6e20646f6573206e6f74206578697374206f7220696e7360448201527f756666696369656e742064656c65676174696f6e20616d6f756e7400000000006064820152608490fd5b1561242057565b60405162461bcd60e51b81526020600482015260146024820152734661696c656420746f20726564656c656761746560601b6044820152606490fd5b9060018060a01b0382166000526000602052604060002091836040516020818551968287019761248d81848b610394565b82019081520301902054106124e5576001600160a01b03166000908152602081815260409091206124e1936124d093909190604051948593849251928391610394565b820190815203019020918254612068565b9055565b60405162461bcd60e51b815260206004820152601e60248201527f496e73756666696369656e742064656c65676174696f6e20616d6f756e7400006044820152606490fd5b6001600160a01b03909116815260806020820181905292949392606092612553918301906103b7565b9460408201520152565b1561256457565b60405162461bcd60e51b815260206004820152601a60248201527f4661696c656420746f2063616e63656c20756e626f6e64696e670000000000006044820152606490fd5b3360005260019160209083825260408481600020946000965b6125d0575b50505050505050565b8554871015612693576125e387876101a3565b509080600283015403612681575001928354918383106126305750509061260991612068565b8091551561261c575b80808080806125c7565b612629916120e0916101a3565b3880612612565b60849250519062461bcd60e51b82526004820152602560248201527f616d6f756e74206578636565647320756e626f6e64696e6720656e74727920616044820152641b5bdd5b9d60da1b6064820152fd5b905061268d8297611fbf565b966125c2565b6125c7565b1561269f57565b60405162461bcd60e51b815260206004820152602360248201527f556e626f6e64696e672064656c65676174696f6e20646f6573206e6f742065786044820152621a5cdd60ea1b6064820152608490fd5b909291926126fd816106fd565b9161270b60405193846102cd565b82948284528282011161017257602061032c930190610394565b9080601f830112156101725781516104fa926020016126f0565b5190600482101561017257565b91909160a081840312610172576127616106d6565b9281516001600160401b03908181116101725782612780918501612725565b85526020830151818111610172578261279a918501612725565b6020860152604083015181811161017257826127b7918501612725565b6040860152606083015181811161017257826127d4918501612725565b60608601526080830151908111610172576127ef9201612725565b6080830152565b919091610160818403126101725761280c6106e3565b928151906001600160401b0391828111610172578161282c918501612725565b855260208301518281116101725781612846918501612725565b602086015261285760408401611d31565b60408601526128686060840161273f565b60608601526080830151608086015260a083015160a086015260c08301519182116101725761289891830161274c565b60c08401526128a960e0820161219e565b60e08401526101006128bc81830161219e565b9084015261012080820151908401526101408091015190830152565b906020828203126101725781516001600160401b038111610172576104fa92016127f6565b6040519061290a826102b2565b6000602083606081520152565b6001600160401b0381116102415760051b60200190565b9190916040818403126101725760405190612948826102b2565b819381516001600160401b0381116101725782019181601f840112156101725761297b60209392838580955191016126f0565b845201519161298983611b07565b0152565b919091604081840312610172578051926001600160401b03938481116101725782019381601f860112156101725784516129c681612917565b906129d460405192836102cd565b808252602096878084019260051b8201019185831161017257888201905b838210612a12575050505094830151908111610172576104fa920161292e565b8151868111610172578a91612a2c898480948801016127f6565b8152019101906129f2565b9190916040818403126101725780519260208201516001600160401b039283821161017257016040818303126101725760405192612a74846102b2565b815190811161017257602092612a8b918301612725565b83520151602082015290565b6001600160a01b0390911681526040602082018190526104fa929101906103b7565b919082608091031261017257604051612ad181610297565b6060808294612adf8161219e565b8452612aed6020820161219e565b6020850152604081015160408501520151910152565b81601f8201121561017257805191612b1a83612917565b92612b2860405194856102cd565b808452602091828086019260071b85010193818511610172578301915b848310612b5457505050505090565b83608091612b628486612ab9565b815201920191612b45565b91909160808184031261017257612b826106f0565b9281516001600160401b03908181116101725782612ba1918501612725565b855260208301518181116101725782612bbb918501612725565b602086015260408301518181116101725782612bd8918501612725565b6040860152606083015190811161017257612bf39201612b03565b6060830152565b906020828203126101725781516001600160401b038111610172576104fa9201612b6d565b919091604080828503126101725781516001600160401b0381116101725784601f828501011215610172578083015190612c5882612917565b92612c65815194856102cd565b82845260208401918760208560051b83890101011161017257602081870101925b60208560051b83890101018410612cba5750505050509260208201516001600160401b038111610172576104fa920161292e565b83516001600160401b038111610172578288010183601f19828c03011261017257835190612ce7826102b2565b60208101516001600160401b038111610172578b6020612d0992840101612b6d565b825284810151906001600160401b03821161017257018a603f82011215610172576020810151612d3881612917565b91612d45875193846102cd565b818352602083018d8860a085028401011161017257818801908e5b8960a086028501018310612d895750505050506020828101919091529082529384019301612c86565b8260a09103126101725760208f9160a092612daf8c5191612da9836102b2565b86612ab9565b81526080850151838201528152019101908e612d60565b612e109493600093612dd66128fd565b50604051630428a14760e21b81526001600160a01b0390931660048401526080602484015291958693849391612e239160848601906103b7565b60031992838683030160448701526103b7565b90838203016064840152608080612e43845160a0855260a08501906103b7565b936001600160401b0380602083015116602086015260408201511660408501526060810151151560608501520151151591015203816108005afa9182156106c4576000908193612e9257509190565b90612eb09293503d8091833e612ea881836102cd565b810190612c1f565b9091565b60609060208152601060208201526f696e76616c69642063616c6c7479706560801b60408201520190565b3d15612f0a573d90612ef0826106fd565b91612efe60405193846102cd565b82523d6000602084013e565b606090565b15612f1657565b60405162461bcd60e51b81526020600482015260196024820152786661696c65642063616c6c20746f20707265636f6d70696c6560381b6044820152606490fd5b15612f5e57565b60405162461bcd60e51b815260206004820152601f60248201527f6661696c65642073746174696363616c6c20746f20707265636f6d70696c65006044820152606490fd5b15612faa57565b60405162461bcd60e51b815260206004820152602160248201527f6661696c65642064656c656761746563616c6c20746f20707265636f6d70696c6044820152606560f81b6064820152608490fd5b60405190613006826102b2565b601a82527f64656c65676174696f6e28616464726573732c737472696e67290000000000006020830152565b1561303957565b60405162461bcd60e51b815260206004820152600f60248201526e1d1c985b9cd9995c8819985a5b1959608a1b6044820152606490fdfea2646970667358221220d1e8c1d6b1ef8b01471c4ab06fb8583615d477c90c9b7811388bad4cc56ef39d64736f6c63430008140033",
  "linkReferences": {},
  "deployedLinkReferences": {}
}