{
  "_format": "hh-sol-artifact-1",
  "contractName": "BankCaller",
  "sourceName": "solidity/precompiles/bank/testdata/BankCaller.sol",
  "abi": [
    {
      "inputs": [
        {
          "internalType": "address",
          "name": "account",
          "type": "address"
        }
      ],
      "name": "callBalances",
      "outputs": [
        {
          "components": [
            {
              "internalType": "address",
              "name": "contractAddress",
              "type": "address"
            },
            {
              "internalType": "uint256",
              "name": "amount",
              "type": "uint256"
            }
          ],
          "internalType": "struct Balance[]",
          "name": "balances",
          "type": "tuple[]"
        }
      ],
      "stateMutability": "view",
      "type": "function"
    },
    {
      "inputs": [
        {
          "internalType": "address",
          "name": "erc20Address",
          "type": "address"
        }
      ],
      "name": "callSupplyOf",
      "outputs": [
        {
          "internalType": "uint256",
          "name": "",
          "type": "uint256"
        }
      ],
      "stateMutability": "view",
      "type": "function"
    },
    {
      "inputs": [],
      "name": "callTotalSupply",
      "outputs": [
        {
          "components": [
            {
              "internalType": "address",
              "name": "contractAddress",
              "type": "address"
            },
            {
              "internalType": "uint256",
              "name": "amount",
              "type": "uint256"
            }
          ],
          "internalType": "struct Balance[]",
          "name": "totalSupply",
          "type": "tuple[]"
        }
      ],
      "stateMutability": "view",
      "type": "function"
    }
  ],
  "bytecode": "0x6080806040523461001657610378908161001c8239f35b600080fdfe60806040908082526004918236101561001757600080fd5b600091823560e01c90816389129c681461016257508063acab2f94146100e95763bba60ca01461004657600080fd5b346100e557602092836003193601126100e15780356001600160a01b038116908190036100dd578251631890039360e21b81529182015283816024816108045afa9283156100d257809361009d575b505051908152f35b909192508382813d83116100cb575b6100b68183610234565b810103126100c8575051903880610095565b80fd5b503d6100ac565b8251903d90823e3d90fd5b8380fd5b8280fd5b5080fd5b508290346100e157826003193601126100e15782815180936318160ddd60e01b8252816108045afa918215610158578361012f9493610133575b505051918291826101e1565b0390f35b6101509293503d8091833e6101488183610234565b81019061026c565b908380610123565b81513d85823e3d90fd5b92939050346100dd5760203660031901126100dd5780356001600160a01b03811691908290036101dd576327e235e360e01b845283015282826024816108045afa918215610158578361012f94936101c057505051918291826101e1565b6101d59293503d8091833e6101488183610234565b903880610123565b8480fd5b60208082019080835283518092528060408094019401926000905b83821061020b57505050505090565b845180516001600160a01b031687528301518684015294850194938201936001909101906101fc565b90601f8019910116810190811067ffffffffffffffff82111761025657604052565b634e487b7160e01b600052604160045260246000fd5b6020808284031261032857815167ffffffffffffffff9283821161032857019083601f83011215610328578151838111610256576040938451956102b5848460051b0188610234565b828752838088019360061b86010194818611610328578401925b8584106102e0575050505050505090565b8684830312610328578651908782018281108582111761032d5788528451906001600160a01b0382168203610328578287928a945282870151838201528152019301926102cf565b600080fd5b60246000634e487b7160e01b81526041600452fdfea2646970667358221220069405aa45fc21b29f725237543db2b8600a62c69a04e7a4c44dce45d314303e64736f6c63430008140033",
  "linkReferences": {},
  "deployedLinkReferences": {}
}