{
  "_format": "hh-sol-artifact-1",
  "contractName": "Counterfactory",
  "sourceName": "solidity/evmd/eips/testdata/CounterFactory.sol",
  "abi": [
    {
      "inputs": [],
      "stateMutability": "nonpayable",
      "type": "constructor"
    },
    {
      "inputs": [],
      "name": "counterInstance",
      "outputs": [
        {
          "internalType": "contract Counter",
          "name": "",
          "type": "address"
        }
      ],
      "stateMutability": "view",
      "type": "function"
    },
    {
      "inputs": [],
      "name": "decrementCounter",
      "outputs": [],
      "stateMutability": "nonpayable",
      "type": "function"
    },
    {
      "inputs": [],
      "name": "getCounterValue",
      "outputs": [
        {
          "internalType": "uint256",
          "name": "",
          "type": "uint256"
        }
      ],
      "stateMutability": "view",
      "type": "function"
    },
    {
      "inputs": [],
      "name": "incrementCounter",
      "outputs": [],
      "stateMutability": "nonpayable",
      "type": "function"
    }
  ],
  "bytecode": "0x60808060405234610085576101018181016001600160401b0381118382101761006f5782916102cf833903906000f0801561006357600080546001600160a01b0319166001600160a01b0392909216919091179055604051610244908161008b8239f35b6040513d6000823e3d90fd5b634e487b7160e01b600052604160045260246000fd5b600080fdfe60806040818152600436101561001457600080fd5b600091823560e01c9081635b34b966146101a55750806372142b89146100e7578063aef38e72146100bc5763f5c5ad831461004e57600080fd5b8190346100b957816003193601126100b95781546001600160a01b031690813b156100b5578280926004835180958193632baeceb760e01b83525af19081156100ac57506100995750f35b6100a2906101fa565b6100a95780f35b80fd5b513d84823e3d90fd5b5050fd5b50fd5b50346100e357816003193601126100e357905490516001600160a01b039091168152602090f35b5080fd5b50346100e357816003193601126100e357815481516330de110d60e11b81529190602090839060049082906001600160a01b03165afa91821561019b578392610135575b6020838351908152f35b90915060203d8111610194575b601f8101601f1916820167ffffffffffffffff81118382101761017e57602091839185528101031261017a576020925051903861012b565b8280fd5b634e487b7160e01b600052604160045260246000fd5b503d610142565b81513d85823e3d90fd5b9190503461017a578260031936011261017a57825483906001600160a01b0316803b156100e35760048483819363684ef04560e11b83525af19081156100ac57506101ee575080f35b6101f7906101fa565b80f35b67ffffffffffffffff811161017e5760405256fea2646970667358221220a54e617d68b83f8da207d03f3e2a6168921e2f16fe65e0f3a363ec9a95228b8b64736f6c634300081400336080806040523461001a57600160005560e190816100208239f35b600080fdfe60806040526004361015601157600080fd5b6000803560e01c80632baeceb714608c57806361bc221a1460715763d09de08a14603a57600080fd5b34606e5780600319360112606e5780546000198114605a57600101815580f35b634e487b7160e01b82526011600452602482fd5b80fd5b5034606e5780600319360112606e5760209054604051908152f35b5034606e5780600319360112606e5780548015605a5760001901815580f3fea26469706673582212202060735f33efd8beff8de6826d5bb836375daa8720f3aab6ae7d0e6280ecf05964736f6c63430008140033",
  "linkReferences": {},
  "deployedLinkReferences": {}
}