{
  "_format": "hh-sol-artifact-1",
  "contractName": "Counter",
  "sourceName": "solidity/evmd/eips/testdata/Counter.sol",
  "abi": [
    {
      "inputs": [],
      "name": "counter",
      "outputs": [
        {
          "internalType": "uint256",
          "name": "",
          "type": "uint256"
        }
      ],
      "stateMutability": "view",
      "type": "function"
    },
    {
      "inputs": [],
      "name": "decrement",
      "outputs": [],
      "stateMutability": "nonpayable",
      "type": "function"
    },
    {
      "inputs": [],
      "name": "increment",
      "outputs": [],
      "stateMutability": "nonpayable",
      "type": "function"
    }
  ],
  "bytecode": "0x6080806040523461001a57600160005560e190816100208239f35b600080fdfe60806040526004361015601157600080fd5b6000803560e01c80632baeceb714608c57806361bc221a1460715763d09de08a14603a57600080fd5b34606e5780600319360112606e5780546000198114605a57600101815580f35b634e487b7160e01b82526011600452602482fd5b80fd5b5034606e5780600319360112606e5760209054604051908152f35b5034606e5780600319360112606e5780548015605a5760001901815580f3fea26469706673582212202060735f33efd8beff8de6826d5bb836375daa8720f3aab6ae7d0e6280ecf05964736f6c63430008140033",
  "linkReferences": {},
  "deployedLinkReferences": {}
}