{
  "_format": "hh-sol-artifact-1",
  "contractName": "Counter",
  "sourceName": "solidity/precompiles/testutil/contracts/Counter.sol",
  "abi": [
    {
      "anonymous": false,
      "inputs": [
        {
          "indexed": false,
          "internalType": "uint256",
          "name": "counter",
          "type": "uint256"
        }
      ],
      "name": "Added",
      "type": "event"
    },
    {
      "anonymous": false,
      "inputs": [
        {
          "indexed": false,
          "internalType": "uint256",
          "name": "counter",
          "type": "uint256"
        }
      ],
      "name": "Changed",
      "type": "event"
    },
    {
      "inputs": [],
      "name": "add",
      "outputs": [],
      "stateMutability": "nonpayable",
      "type": "function"
    },
    {
      "inputs": [],
      "name": "getCounter",
      "outputs": [
        {
          "internalType": "uint256",
          "name": "",
          "type": "uint256"
        }
      ],
      "stateMutability": "view",
      "type": "function"
    },
    {
      "inputs": [],
      "name": "subtract",
      "outputs": [],
      "stateMutability": "nonpayable",
      "type": "function"
    }
  ],
  "bytecode": "0x6080806040523461001a576000805561022190816100208239f35b600080fdfe60806040818152600436101561001457600080fd5b600091823560e01c9081634f2be91f1461015a575080636deebae31461006257638ada066e1461004357600080fd5b3461005e578160031936011261005e57602091549051908152f35b5080fd5b50903461015757806003193601126101575780549180519080820182811067ffffffffffffffff821117610143578152600f82526020916e434f554e5445525f544f4f5f4c4f5760881b8382015284156100ea57507f938d2ee5be9cfb0f7270ee2eff90507e94b37625d9d2b3a61c97d30a4560b8299293600019019081855551908152a180f35b9192905192839162461bcd60e51b8352816004840152835191826024850152815b83811061012c57505060448094508284010152601f80199101168101030190fd5b80860182015187820160440152869450810161010b565b634e487b7160e01b84526041600452602484fd5b80fd5b919050346101e757826003193601126101e757825460001981146101d357916020917f64a55044d1f2eddebe1b90e8e2853e8e96931cefadbfa0b2ceb34bee360619418360017f938d2ee5be9cfb0f7270ee2eff90507e94b37625d9d2b3a61c97d30a4560b829960193848855848152a151908152a180f35b634e487b7160e01b84526011600452602484fd5b8280fdfea26469706673582212208cda3063e5b6f9e0bcc39dda3f7fdb292885a257124e36733c773a00c2fa7eb164736f6c63430008140033",
  "linkReferences": {},
  "deployedLinkReferences": {}
}