{
  "_format": "hh-sol-artifact-1",
  "contractName": "DistributionCaller",
  "sourceName": "solidity/precompiles/testutil/contracts/DistributionCaller.sol",
  "abi": [
    {
      "inputs": [],
      "name": "counter",
      "outputs": [
        {
          "internalType": "int64",
          "name": "",
          "type": "int64"
        }
      ],
      "stateMutability": "view",
      "type": "function"
    },
    {
      "inputs": [
        {
          "internalType": "address",
          "name": "_delAddr",
          "type": "address"
        },
        {
          "internalType": "string",
          "name": "_withdrawAddr",
          "type": "string"
        }
      ],
      "name": "delegateCallSetWithdrawAddress",
      "outputs": [],
      "stateMutability": "nonpayable",
      "type": "function"
    },
    {
      "inputs": [],
      "name": "deposit",
      "outputs": [],
      "stateMutability": "payable",
      "type": "function"
    },
    {
      "inputs": [],
      "name": "getCommunityPool",
      "outputs": [
        {
          "components": [
            {
              "internalType": "string",
              "name": "denom",
              "type": "string"
            },
            {
              "internalType": "uint256",
              "name": "amount",
              "type": "uint256"
            },
            {
              "internalType": "uint8",
              "name": "precision",
              "type": "uint8"
            }
          ],
          "internalType": "struct DecCoin[]",
          "name": "",
          "type": "tuple[]"
        }
      ],
      "stateMutability": "view",
      "type": "function"
    },
    {
      "inputs": [
        {
          "internalType": "address",
          "name": "_delAddr",
          "type": "address"
        },
        {
          "internalType": "string",
          "name": "_valAddr",
          "type": "string"
        }
      ],
      "name": "getDelegationRewards",
      "outputs": [
        {
          "components": [
            {
              "internalType": "string",
              "name": "denom",
              "type": "string"
            },
            {
              "internalType": "uint256",
              "name": "amount",
              "type": "uint256"
            },
            {
              "internalType": "uint8",
              "name": "precision",
              "type": "uint8"
            }
          ],
          "internalType": "struct DecCoin[]",
          "name": "",
          "type": "tuple[]"
        }
      ],
      "stateMutability": "view",
      "type": "function"
    },
    {
      "inputs": [
        {
          "internalType": "address",
          "name": "_delAddr",
          "type": "address"
        }
      ],
      "name": "getDelegationTotalRewards",
      "outputs": [
        {
          "components": [
            {
              "internalType": "string",
              "name": "validatorAddress",
              "type": "string"
            },
            {
              "components": [
                {
                  "internalType": "string",
                  "name": "denom",
                  "type": "string"
                },
                {
                  "internalType": "uint256",
                  "name": "amount",
                  "type": "uint256"
                },
                {
                  "internalType": "uint8",
                  "name": "precision",
                  "type": "uint8"
                }
              ],
              "internalType": "struct DecCoin[]",
              "name": "reward",
              "type": "tuple[]"
            }
          ],
          "internalType": "struct DelegationDelegatorReward[]",
          "name": "rewards",
          "type": "tuple[]"
        },
        {
          "components": [
            {
              "internalType": "string",
              "name": "denom",
              "type": "string"
            },
            {
              "internalType": "uint256",
              "name": "amount",
              "type": "uint256"
            },
            {
              "internalType": "uint8",
              "name": "precision",
              "type": "uint8"
            }
          ],
          "internalType": "struct DecCoin[]",
          "name": "total",
          "type": "tuple[]"
        }
      ],
      "stateMutability": "view",
      "type": "function"
    },
    {
      "inputs": [
        {
          "internalType": "address",
          "name": "_delAddr",
          "type": "address"
        }
      ],
      "name": "getDelegatorValidators",
      "outputs": [
        {
          "internalType": "string[]",
          "name": "",
          "type": "string[]"
        }
      ],
      "stateMutability": "view",
      "type": "function"
    },
    {
      "inputs": [
        {
          "internalType": "address",
          "name": "_delAddr",
          "type": "address"
        }
      ],
      "name": "getDelegatorWithdrawAddress",
      "outputs": [
        {
          "internalType": "string",
          "name": "",
          "type": "string"
        }
      ],
      "stateMutability": "view",
      "type": "function"
    },
    {
      "inputs": [
        {
          "internalType": "string",
          "name": "_valAddr",
          "type": "string"
        }
      ],
      "name": "getValidatorCommission",
      "outputs": [
        {
          "components": [
            {
              "internalType": "string",
              "name": "denom",
              "type": "string"
            },
            {
              "internalType": "uint256",
              "name": "amount",
              "type": "uint256"
            },
            {
              "internalType": "uint8",
              "name": "precision",
              "type": "uint8"
            }
          ],
          "internalType": "struct DecCoin[]",
          "name": "",
          "type": "tuple[]"
        }
      ],
      "stateMutability": "view",
      "type": "function"
    },
    {
      "inputs": [
        {
          "internalType": "string",
          "name": "_valAddr",
          "type": "string"
        }
      ],
      "name": "getValidatorDistributionInfo",
      "outputs": [
        {
          "components": [
            {
              "internalType": "string",
              "name": "operatorAddress",
              "type": "string"
            },
            {
              "components": [
                {
                  "internalType": "string",
                  "name": "denom",
                  "type": "string"
                },
                {
                  "internalType": "uint256",
                  "name": "amount",
                  "type": "uint256"
                },
                {
                  "internalType": "uint8",
                  "name": "precision",
                  "type": "uint8"
                }
              ],
              "internalType": "struct DecCoin[]",
              "name": "selfBondRewards",
              "type": "tuple[]"
            },
            {
              "components": [
                {
                  "internalType": "string",
                  "name": "denom",
                  "type": "string"
                },
                {
                  "internalType": "uint256",
                  "name": "amount",
                  "type": "uint256"
                },
                {
                  "internalType": "uint8",
                  "name": "precision",
                  "type": "uint8"
                }
              ],
              "internalType": "struct DecCoin[]",
              "name": "commission",
              "type": "tuple[]"
            }
          ],
          "internalType": "struct ValidatorDistributionInfo",
          "name": "",
          "type": "tuple"
        }
      ],
      "stateMutability": "view",
      "type": "function"
    },
    {
      "inputs": [
        {
          "internalType": "string",
          "name": "_valAddr",
          "type": "string"
        }
      ],
      "name": "getValidatorOutstandingRewards",
      "outputs": [
        {
          "components": [
            {
              "internalType": "string",
              "name": "denom",
              "type": "string"
            },
            {
              "internalType": "uint256",
              "name": "amount",
              "type": "uint256"
            },
            {
              "internalType": "uint8",
              "name": "precision",
              "type": "uint8"
            }
          ],
          "internalType": "struct DecCoin[]",
          "name": "",
          "type": "tuple[]"
        }
      ],
      "stateMutability": "view",
      "type": "function"
    },
    {
      "inputs": [
        {
          "internalType": "string",
          "name": "_valAddr",
          "type": "string"
        },
        {
          "internalType": "uint64",
          "name": "_startingHeight",
          "type": "uint64"
        },
        {
          "internalType": "uint64",
          "name": "_endingHeight",
          "type": "uint64"
        },
        {
          "components": [
            {
              "internalType": "bytes",
              "name": "key",
              "type": "bytes"
            },
            {
              "internalType": "uint64",
              "name": "offset",
              "type": "uint64"
            },
            {
              "internalType": "uint64",
              "name": "limit",
              "type": "uint64"
            },
            {
              "internalType": "bool",
              "name": "countTotal",
              "type": "bool"
            },
            {
              "internalType": "bool",
              "name": "reverse",
              "type": "bool"
            }
          ],
          "internalType": "struct PageRequest",
          "name": "pageRequest",
          "type": "tuple"
        }
      ],
      "name": "getValidatorSlashes",
      "outputs": [
        {
          "components": [
            {
              "internalType": "uint64",
              "name": "validatorPeriod",
              "type": "uint64"
            },
            {
              "components": [
                {
                  "internalType": "uint256",
                  "name": "value",
                  "type": "uint256"
                },
                {
                  "internalType": "uint8",
                  "name": "precision",
                  "type": "uint8"
                }
              ],
              "internalType": "struct Dec",
              "name": "fraction",
              "type": "tuple"
            }
          ],
          "internalType": "struct ValidatorSlashEvent[]",
          "name": "",
          "type": "tuple[]"
        },
        {
          "components": [
            {
              "internalType": "bytes",
              "name": "nextKey",
              "type": "bytes"
            },
            {
              "internalType": "uint64",
              "name": "total",
              "type": "uint64"
            }
          ],
          "internalType": "struct PageResponse",
          "name": "",
          "type": "tuple"
        }
      ],
      "stateMutability": "view",
      "type": "function"
    },
    {
      "inputs": [
        {
          "internalType": "address payable",
          "name": "_delAddr",
          "type": "address"
        },
        {
          "internalType": "address payable",
          "name": "_withdrawer",
          "type": "address"
        },
        {
          "internalType": "string",
          "name": "_valAddr",
          "type": "string"
        },
        {
          "internalType": "bool",
          "name": "_after",
          "type": "bool"
        }
      ],
      "name": "revertWithdrawRewardsAndTransfer",
      "outputs": [],
      "stateMutability": "nonpayable",
      "type": "function"
    },
    {
      "inputs": [
        {
          "internalType": "address",
          "name": "_delAddr",
          "type": "address"
        }
      ],
      "name": "staticCallGetWithdrawAddress",
      "outputs": [
        {
          "internalType": "bytes",
          "name": "",
          "type": "bytes"
        }
      ],
      "stateMutability": "view",
      "type": "function"
    },
    {
      "inputs": [
        {
          "internalType": "address",
          "name": "_delAddr",
          "type": "address"
        },
        {
          "internalType": "string",
          "name": "_withdrawAddr",
          "type": "string"
        }
      ],
      "name": "staticCallSetWithdrawAddress",
      "outputs": [],
      "stateMutability": "view",
      "type": "function"
    },
    {
      "inputs": [
        {
          "internalType": "address",
          "name": "_delAddr",
          "type": "address"
        },
        {
          "internalType": "uint32",
          "name": "_maxRetrieve",
          "type": "uint32"
        }
      ],
      "name": "testClaimRewards",
      "outputs": [
        {
          "internalType": "bool",
          "name": "success",
          "type": "bool"
        }
      ],
      "stateMutability": "nonpayable",
      "type": "function"
    },
    {
      "inputs": [
        {
          "internalType": "uint32",
          "name": "_maxRetrieve",
          "type": "uint32"
        },
        {
          "internalType": "bool",
          "name": "_before",
          "type": "bool"
        },
        {
          "internalType": "bool",
          "name": "_after",
          "type": "bool"
        }
      ],
      "name": "testClaimRewardsWithTransfer",
      "outputs": [],
      "stateMutability": "nonpayable",
      "type": "function"
    },
    {
      "inputs": [
        {
          "internalType": "string",
          "name": "_validatorAddr",
          "type": "string"
        },
        {
          "internalType": "uint256",
          "name": "_amount",
          "type": "uint256"
        }
      ],
      "name": "testDelegateFromContract",
      "outputs": [],
      "stateMutability": "payable",
      "type": "function"
    },
    {
      "inputs": [
        {
          "internalType": "address",
          "name": "depositor",
          "type": "address"
        },
        {
          "internalType": "string",
          "name": "validatorAddress",
          "type": "string"
        },
        {
          "components": [
            {
              "internalType": "string",
              "name": "denom",
              "type": "string"
            },
            {
              "internalType": "uint256",
              "name": "amount",
              "type": "uint256"
            }
          ],
          "internalType": "struct Coin[]",
          "name": "amount",
          "type": "tuple[]"
        }
      ],
      "name": "testDepositValidatorRewardsPool",
      "outputs": [
        {
          "internalType": "bool",
          "name": "success",
          "type": "bool"
        }
      ],
      "stateMutability": "nonpayable",
      "type": "function"
    },
    {
      "inputs": [
        {
          "internalType": "string",
          "name": "validatorAddress",
          "type": "string"
        },
        {
          "components": [
            {
              "internalType": "string",
              "name": "denom",
              "type": "string"
            },
            {
              "internalType": "uint256",
              "name": "amount",
              "type": "uint256"
            }
          ],
          "internalType": "struct Coin[]",
          "name": "amount",
          "type": "tuple[]"
        },
        {
          "internalType": "bool",
          "name": "_before",
          "type": "bool"
        },
        {
          "internalType": "bool",
          "name": "_after",
          "type": "bool"
        }
      ],
      "name": "testDepositValidatorRewardsPoolWithTransfer",
      "outputs": [],
      "stateMutability": "nonpayable",
      "type": "function"
    },
    {
      "inputs": [
        {
          "internalType": "address",
          "name": "depositor",
          "type": "address"
        },
        {
          "components": [
            {
              "internalType": "string",
              "name": "denom",
              "type": "string"
            },
            {
              "internalType": "uint256",
              "name": "amount",
              "type": "uint256"
            }
          ],
          "internalType": "struct Coin[]",
          "name": "amount",
          "type": "tuple[]"
        }
      ],
      "name": "testFundCommunityPool",
      "outputs": [
        {
          "internalType": "bool",
          "name": "success",
          "type": "bool"
        }
      ],
      "stateMutability": "nonpayable",
      "type": "function"
    },
    {
      "inputs": [
        {
          "internalType": "address payable",
          "name": "depositor",
          "type": "address"
        },
        {
          "components": [
            {
              "internalType": "string",
              "name": "denom",
              "type": "string"
            },
            {
              "internalType": "uint256",
              "name": "amount",
              "type": "uint256"
            }
          ],
          "internalType": "struct Coin[]",
          "name": "amount",
          "type": "tuple[]"
        },
        {
          "internalType": "bool",
          "name": "_before",
          "type": "bool"
        },
        {
          "internalType": "bool",
          "name": "_after",
          "type": "bool"
        }
      ],
      "name": "testFundCommunityPoolWithTransfer",
      "outputs": [],
      "stateMutability": "nonpayable",
      "type": "function"
    },
    {
      "inputs": [
        {
          "internalType": "string",
          "name": "_withdrawAddr",
          "type": "string"
        },
        {
          "internalType": "address",
          "name": "_delAddr",
          "type": "address"
        },
        {
          "internalType": "string",
          "name": "_valAddr",
          "type": "string"
        }
      ],
      "name": "testRevertState",
      "outputs": [
        {
          "components": [
            {
              "internalType": "string",
              "name": "denom",
              "type": "string"
            },
            {
              "internalType": "uint256",
              "name": "amount",
              "type": "uint256"
            }
          ],
          "internalType": "struct Coin[]",
          "name": "",
          "type": "tuple[]"
        }
      ],
      "stateMutability": "nonpayable",
      "type": "function"
    },
    {
      "inputs": [
        {
          "internalType": "address",
          "name": "_delAddr",
          "type": "address"
        },
        {
          "internalType": "string",
          "name": "_withdrawAddr",
          "type": "string"
        }
      ],
      "name": "testSetWithdrawAddress",
      "outputs": [
        {
          "internalType": "bool",
          "name": "",
          "type": "bool"
        }
      ],
      "stateMutability": "nonpayable",
      "type": "function"
    },
    {
      "inputs": [
        {
          "internalType": "string",
          "name": "_withdrawAddr",
          "type": "string"
        }
      ],
      "name": "testSetWithdrawAddressFromContract",
      "outputs": [
        {
          "internalType": "bool",
          "name": "",
          "type": "bool"
        }
      ],
      "stateMutability": "nonpayable",
      "type": "function"
    },
    {
      "inputs": [
        {
          "internalType": "address",
          "name": "delegatorAddress",
          "type": "address"
        },
        {
          "internalType": "uint32",
          "name": "maxRetrieve",
          "type": "uint32"
        }
      ],
      "name": "testTryClaimRewards",
      "outputs": [
        {
          "internalType": "bool",
          "name": "",
          "type": "bool"
        }
      ],
      "stateMutability": "nonpayable",
      "type": "function"
    },
    {
      "inputs": [
        {
          "internalType": "address",
          "name": "_delAddr",
          "type": "address"
        },
        {
          "internalType": "string",
          "name": "_valAddr",
          "type": "string"
        }
      ],
      "name": "testWithdrawDelegatorReward",
      "outputs": [
        {
          "components": [
            {
              "internalType": "string",
              "name": "denom",
              "type": "string"
            },
            {
              "internalType": "uint256",
              "name": "amount",
              "type": "uint256"
            }
          ],
          "internalType": "struct Coin[]",
          "name": "",
          "type": "tuple[]"
        }
      ],
      "stateMutability": "nonpayable",
      "type": "function"
    },
    {
      "inputs": [
        {
          "internalType": "string",
          "name": "_valAddr",
          "type": "string"
        }
      ],
      "name": "testWithdrawDelegatorRewardFromContract",
      "outputs": [
        {
          "components": [
            {
              "internalType": "string",
              "name": "denom",
              "type": "string"
            },
            {
              "internalType": "uint256",
              "name": "amount",
              "type": "uint256"
            }
          ],
          "internalType": "struct Coin[]",
          "name": "",
          "type": "tuple[]"
        }
      ],
      "stateMutability": "nonpayable",
      "type": "function"
    },
    {
      "inputs": [
        {
          "internalType": "string",
          "name": "_valAddr",
          "type": "string"
        },
        {
          "internalType": "bool",
          "name": "_before",
          "type": "bool"
        },
        {
          "internalType": "bool",
          "name": "_after",
          "type": "bool"
        }
      ],
      "name": "testWithdrawDelegatorRewardWithTransfer",
      "outputs": [
        {
          "components": [
            {
              "internalType": "string",
              "name": "denom",
              "type": "string"
            },
            {
              "internalType": "uint256",
              "name": "amount",
              "type": "uint256"
            }
          ],
          "internalType": "struct Coin[]",
          "name": "coins",
          "type": "tuple[]"
        }
      ],
      "stateMutability": "nonpayable",
      "type": "function"
    },
    {
      "inputs": [
        {
          "internalType": "string",
          "name": "_valAddr",
          "type": "string"
        }
      ],
      "name": "testWithdrawValidatorCommission",
      "outputs": [
        {
          "components": [
            {
              "internalType": "string",
              "name": "denom",
              "type": "string"
            },
            {
              "internalType": "uint256",
              "name": "amount",
              "type": "uint256"
            }
          ],
          "internalType": "struct Coin[]",
          "name": "",
          "type": "tuple[]"
        }
      ],
      "stateMutability": "nonpayable",
      "type": "function"
    },
    {
      "inputs": [
        {
          "internalType": "string",
          "name": "_valAddr",
          "type": "string"
        },
        {
          "internalType": "address payable",
          "name": "_withdrawer",
          "type": "address"
        },
        {
          "internalType": "bool",
          "name": "_before",
          "type": "bool"
        },
        {
          "internalType": "bool",
          "name": "_after",
          "type": "bool"
        }
      ],
      "name": "testWithdrawValidatorCommissionWithTransfer",
      "outputs": [
        {
          "components": [
            {
              "internalType": "string",
              "name": "denom",
              "type": "string"
            },
            {
              "internalType": "uint256",
              "name": "amount",
              "type": "uint256"
            }
          ],
          "internalType": "struct Coin[]",
          "name": "coins",
          "type": "tuple[]"
        }
      ],
      "stateMutability": "nonpayable",
      "type": "function"
    },
    {
      "inputs": [
        {
          "internalType": "address",
          "name": "_delAddr",
          "type": "address"
        },
        {
          "internalType": "string",
          "name": "_valAddr",
          "type": "string"
        }
      ],
      "name": "withdrawDelegatorRewardsAndRevert",
      "outputs": [
        {
          "components": [
            {
              "internalType": "string",
              "name": "denom",
              "type": "string"
            },
            {
              "internalType": "uint256",
              "name": "amount",
              "type": "uint256"
            }
          ],
          "internalType": "struct Coin[]",
          "name": "coins",
          "type": "tuple[]"
        }
      ],
      "stateMutability": "nonpayable",
      "type": "function"
    }
  ],
  "bytecode": "0x60803462000260576020906001600160401b03818301818111838210176200024a5760808301818110838211176200024a57604052602381527f2f636f736d6f732e7374616b696e672e763162657461312e4d736744656c656760408401526261746560e81b60608401528252600092835492600193848655808510620001ce575b509084805280852085925b858410620000a45760405161240b9081620002bc8239f35b8051908151868111620001ba5787918591620000c1865462000265565b948b601f96858882116200017f575b505050839582116001146200011857849582918d926200010c575b5050600019600383901b1c191690841b1785555b019201930192906200008c565b015190503880620000eb565b868c52838c209095601f1983168d5b8181106200016757509086978488959493106200014d575b505050811b018555620000ff565b015160001960f88460031b161c191690553880806200013f565b8289015184558d978b97940193928301920162000127565b828a620001a7945220600589808701821c830193898810620001b0575b01901c0190620002a2565b8b3885620000d0565b935082936200019c565b634e487b7160e01b89526041600452602489fd5b858052848084882092830192015b828110620001ec57505062000081565b87620001f9825462000265565b806200020b575b5050018590620001dc565b601f8082116001146200022557505081555b873862000200565b6200024090848452888420920160051c8201858301620002a2565b818355556200021d565b634e487b7160e01b600052604160045260246000fd5b600080fd5b90600182811c9216801562000297575b60208310146200028157565b634e487b7160e01b600052602260045260246000fd5b91607f169162000275565b818110620002ae575050565b60008155600101620002a256fe6080604081815260048036101561001557600080fd5b600092833560e01c90816301b6800014611b43575080630c05e9e4146119c85780630da847681461199b578063151732ec1461186c578381631b0502071461177e57508063201139a21461172e5780632947221b146115f8578063296c60aa1461155a578063382d823c1461150e57806346e16d34146114e0578063613d4de81461136257806361bc221a146113405780636b7a547c146112b15780636f669da41461127157806378a5dfd114611244578063796b96d2146111e75780637c9db0bb1461119257806388b2d58114610e7257806393574cd114610de9578063963516e414610d58578063ad5c4cdd14610d00578063b2d1788314610b8e578063b6a216ae14610a27578063be4efc57146108c8578063cb85aa0a1461080f578063d0e30db014610800578063d3f831be14610759578063dd987c20146106b9578063ddbfa271146105ba578063e0421e3914610508578063e236c7a6146102fc5763f9ed9b671461018557600080fd5b8290346102f85760803660031901126102f8576101a0611bbf565b6001600160401b03936024358581116102f45760206101c56102109236908701611e4b565b6101cd611efd565b946101d6611f0c565b956102af575b8451630b4ac1e760e21b81526001600160a01b03909116968101879052602481018590529283918291906044830190611dc5565b0381886108015af19182156102a657508491610278575b501561027457610235575080f35b8180600f819361026f966001549061024f8260070b612126565b16906001600160401b031916176001555af1610269612154565b50612184565b388180f35b8280fd5b610299915060203d811161029f575b6102918183611c84565b810190611fd3565b38610227565b503d610287565b513d86823e3d90fd5b6001546102be8160070b612126565b67ffffffffffffffff19909116908a16176001556102ef88808080600f6001600160a01b0387165af1610269612154565b6101dc565b8480fd5b5080fd5b508234610505576020806003193601126102f857610318611bbf565b8451630a97c34560e31b81526001600160a01b039091169381019390935281836024816108015afa9182156104fa57809381936103e8575b50929093918251948386948501908086528451809252606086018360608460051b890101960197915b838310610397578787038589015287806103938989611f37565b0390f35b919360019193959750806103d48198605f198d82030187528b5190836103c4835189845289840190611c13565b9201519084818403910152611d07565b990193019301909288969492979593610379565b935091503d8083853e6103fb8185611c84565b830184848203126102745783516001600160401b03908181116102f45785019482601f870112156102f45785519561043287611e34565b9661043f89519889611c84565b808852858089019160051b830101918583116104f657868101915b8383106104825750505050838101519182116102f45761047b929101612289565b9185610350565b82518681116104f25782018b601f19828a0301126104f2578b51906104a682611c69565b898101518881116104ee57898b6104bf92840101612044565b82528c810151908882116104ee57916104df8a8c80969481960101612289565b8382015281520192019161045a565b8b80fd5b8980fd5b8780fd5b8451903d90823e3d90fd5b80fd5b509034610274576020366003190112610274578282356001600160401b0381116102f85761053b60209136908601611cc0565b9361055d84519586938493631e7271df60e11b85528401526024830190611c13565b0381836108015af19182156105b05783610393949361058b575b505051918291602083526020830190611dc5565b6105a89293503d8091833e6105a08183611c84565b81019061205e565b903880610577565b81513d85823e3d90fd5b509034610274576060366003190112610274576105d5611bbf565b916001600160401b03906024358281116106b5576105f69036908301611cc0565b93604435908382116106b15761061160209236908501611e4b565b92610650600154946106258660070b6121fa565b871667ffffffffffffffff19968716176001558751631758efa960e11b815298899485948501612245565b0381886108015af19384156106a75760209594610688575b50600154916106798360070b61221f565b16911617600155519015158152f35b6106a0919450853d811161029f576102918183611c84565b9238610668565b83513d87823e3d90fd5b8680fd5b8580fd5b5090806003193601126102745781356001600160401b03811161075557610711926106e960209236908301611cc0565b90835194859283926353266bbb60e01b84523090840152606060248401526064830190611c13565b60243560448301520381866108005af190811561074c5750610731575080f35b6107489060203d811161029f576102918183611c84565b5080f35b513d84823e3d90fd5b8380fd5b509034610274576020366003190112610274578282356001600160401b0381116102f85761078c60209136908601611cc0565b936107ae845195869384936342d9696d60e11b85528401526024830190611c13565b03816108015afa9182156105b0578361039394936107db575b505051918291602083526020830190611f37565b6107f89293503d8091833e6107f08183611c84565b810190612350565b9038806107c7565b83806003193601126105055780f35b509190346102f85760203660031901126102f85761082b611bbf565b81516305431f4560e41b81526001600160a01b039091169381019390935281836024816108015afa9182156108bd578092610876575b81516020808252819061039390820186611c13565b9091503d8082853e6108888185611c84565b8301926020818503126102f8578051916001600160401b0383116105055750926108b6916103939401612044565b9038610861565b9051903d90823e3d90fd5b50346102745760603660031901126102745780359163ffffffff831683036107555761091f60206108f7611f1b565b94610900611efd565b956109e7575b835180938192632efe8a5f60e01b8352308884016121da565b0381886108015af19081156109dd5785916109bf575b50156109825750506109445780f35b6001546109538160070b612126565b6001600160401b0316906001600160401b0319161760015561097f81808080600f335af1610269612154565b80f35b906020606492519162461bcd60e51b835282015260176024820152766661696c656420746f20636c61696d207265776172647360481b6044820152fd5b6109d7915060203d811161029f576102918183611c84565b38610935565b82513d87823e3d90fd5b6001546109f68160070b612126565b6001600160401b0316906001600160401b03191617600155610a2287808080600f335af1610269612154565b610906565b508290346102f8576020918260031936011261050557610a45611bbf565b845163a66cb60560e01b81526001600160a01b039091169281019290925280826024816108015afa918215610b82578192610ad5575b5083519280840190808552835180925280868601968360051b870101940192955b828710610aa95785850386f35b909192938280610ac5600193603f198a82030186528851611c13565b9601920196019592919092610a9c565b9091503d8083833e610ae78183611c84565b810183828203126102745781516001600160401b03928382116102f457019080601f8301121561075557815190610b1d82611e34565b93610b2a88519586611c84565b828552868086019360051b850101938285116106b157878101935b858510610b59575050505050509084610a7b565b8451838111610b7e578991610b7386848094870101612044565b815201940193610b45565b8880fd5b508351903d90823e3d90fd5b509034610274576060366003190112610274576001600160401b0382358181116102f457610bbf9036908501611cc0565b92610bc8611bda565b916044359081116106b557610be09036908301611cc0565b91835191632d4ecd4b60e11b835282610bfe60209733848401611feb565b0392868161080195818b885af1908115610cf6578891610cd9575b5015610c965791610c42939187809487519687958694859363b46a8d6160e01b85528401611feb565b03925af1938415610c8b578094610c69575b50506103939051928284938452830190611dc5565b61039392945090610c83913d8091833e6105a08183611c84565b929038610c54565b8251903d90823e3d90fd5b845162461bcd60e51b8152908101869052601e60248201527f6661696c656420746f20736574207769746864726177206164647265737300006044820152606490fd5b610cf09150873d891161029f576102918183611c84565b38610c19565b86513d8a823e3d90fd5b5090346102745782610d1136611d83565b93610d2d8451958693849363b46a8d6160e01b85528401611feb565b0381836108015af190811561074c5750610d45575080fd5b6102f8903d8084833e6105a08183611c84565b5090346102745760203660031901126102745781356001600160401b03811161075557610da992610d8e60209236908301611cc0565b8351632d4ecd4b60e11b815294859283929030908401611feb565b0381866108015af19182156105b05760209392610dca575b50519015158152f35b610de2919250833d811161029f576102918183611c84565b9038610dc1565b50346102745781600319360112610274579160209283610e07611bbf565b610e0f611fac565b92610e2b86519485938493632efe8a5f60e01b855284016121da565b0381856108015af1829181610e53575b50610e4b5750905b519015158152f35b905090610e43565b610e6b919250853d811161029f576102918183611c84565b9038610e3b565b508290346102f857600319608036820112610274576001600160401b0382358181116102f457610ea59036908501611cc0565b926024358281168091036106b557604435918383168093036106b1576064358481116104f65780360360a087820112610b7e57895196610ee488611c69565b6060958689528a6020809a0152610f118c519a63479239e760e11b8c526080878d015260848c0190611c13565b9560248b015260448a0152888503016064890152818301359060221901811215610b7e5781019182013591602401858311610b7e578236038113610b7e57878484610fb6608484968f8f9960c098601f9f9e9d9c60a090528160a089015289880137898886880101528b610f8760248401611fbf565b168d8701528b610f9960448401611fbf565b1690860152610faa60648201611f2a565b15158a86015201611f2a565b15156080830152891999018916010301816108015afa9485156111885786948796611054575b5050865187815284518189018190529096878301958501925b82821061102657505050508161101b869787860383890152865190808752860190611c13565b940151169101520390f35b835180518616885286015180518789015286015160ff168a8801529586019592850192600190910190610ff5565b91955093503d8087863e6110688186611c84565b84019387818603126106b15780518381116104f657810185601f820112156104f657805161109581611e34565b936110a28b519586611c84565b8185528689818701930284010192888411611184578701915b838310611127575050505083810151908382116104f6570187818603126106b1578751946110e886611c69565b8151848111610b7e57820181601f82011215610b7e57916111128692848461111a9651910161200d565b875201612375565b8385015292938780610fdc565b8289038a81126104ee578c8381519261113f84611c69565b61114887612375565b845201126104ee578a9189918e61117181519161116483611c69565b858901518352880161227b565b84820152838201528152019201916110bb565b8a80fd5b87513d88823e3d90fd5b509034610274576020366003190112610274578282356001600160401b0381116102f8576111c560209136908601611cc0565b936107ae845195869384936307ba81ef60e31b85528401526024830190611c13565b50508134610505578061097f9261122161122f61120336611d83565b9093519283916020830195632d4ecd4b60e11b875260248401611feb565b03601f198101835282611c84565b51906108015afa61123e612154565b50612389565b509034610274578261125536611d83565b936107ae845195869384936326b558ed60e21b85528401611feb565b509034610274578060031936011261027457602061128d611bbf565b611295611fac565b93610da984519586938493632efe8a5f60e01b855284016121da565b5090346102745780600319360112610274576112cb611bbf565b6001600160401b03906024358281116106b5576112ed60209136908701611e4b565b94600154926112fe8460070b6121fa565b85166001600160401b03198095161760015561065086519788938493630b4ac1e760e21b855260018060a01b0316908401528760248401526044830190611dc5565b5050346102f857816003193601126102f85760209060015460070b9051908152f35b509034610274576080366003190112610274576001600160401b039282358481116102f8576113949036908501611cc0565b9361139d611bda565b908260206113a9611efd565b966113b2611f0c565b97611489575b6113d98751998a938493631e7271df60e11b85528401526024830190611c13565b0381836108015af194851561147f57610393968496611463575b5061140e575b50505051918291602083526020830190611dc5565b6001549061141e8260070b612126565b67ffffffffffffffff199092169116176001556001600160a01b031690308203611449575b806113f9565b808080600f61145c955af1610269612154565b3880611443565b6114789196503d8086833e6105a08183611c84565b94386113f3565b84513d85823e3d90fd5b6001546114988160070b612126565b67ffffffffffffffff19909116908516176001556001600160a01b038516833082036114c6575b50506113b8565b808080600f6114d9955af1610269612154565b38836114bf565b5090346102745760206114f236611d83565b93610da984519586938493632d4ecd4b60e11b85528401611feb565b509034610274578260031936011261027457828151809363014d140b60e41b8252816108015afa9182156105b0578361039394936107db57505051918291602083526020830190611f37565b50903461027457828061159261122161157236611d83565b86939193519283916020830195632d4ecd4b60e11b875260248401611feb565b51906108015af46115a1612154565b50156115ab578280f35b906020608492519162461bcd60e51b8352820152602160248201527f6661696c65642064656c656761746543616c6c20746f20707265636f6d70696c6044820152606560f81b6064820152fd5b509034610274576060366003190112610274576001600160401b0382358181116102f457938061162e61165f9636908701611cc0565b611636611f1b565b9561163f611efd565b966116f5575b855163b46a8d6160e01b8152978892839230908401611feb565b0381836108015af19384156116e9576103939582956116cd575b5061169257505051918291602083526020830190611dc5565b6116c691600154906116a68260070b612126565b16906001600160401b03191617600155808080600f335af1610269612154565b3880610577565b6116e29195503d8084833e6105a08183611c84565b9338611679565b508251903d90823e3d90fd5b6001546117048160070b612126565b8616906001600160401b0319161760015561172983808080600f335af1610269612154565b611645565b50903461027457602036600319011261027457828235926001600160401b0384116102f85761176361055d9436908301611cc0565b835163b46a8d6160e01b815294859283929030908401611feb565b828185346102f85760803660031901126102f85761179a611bbf565b6117a2611bda565b936001600160401b03926044358481116106b5576117c4869136908501611cc0565b916117cd611f0c565b936117ff8251948593849363ad5c4cdd60e01b855260018060a01b03809a169085015260248401526044830190611c13565b038183305af1611852575b50611813578280f35b82600f81939261184a9683946001549061182f8260070b612126565b16906001600160401b03191617600155165af1610269612154565b818181808280f35b611865903d8087833e6105a08183611c84565b508661180a565b5034610274576080366003190112610274576001600160401b039181358381116102f45761189d9036908401611cc0565b6024358481116106b5576118b660209136908601611e4b565b916118bf611efd565b946118c8611f0c565b95611962575b6118eb85519485938493631758efa960e11b855230908501612245565b0381886108015af19182156102a657508491611944575b501561027457611910575080f35b600154906119208260070b612126565b16906001600160401b0319161760015561097f81808080600f335af1610269612154565b61195c915060203d811161029f576102918183611c84565b38611902565b6001546119718160070b612126565b8816906001600160401b0319161760015561199688808080600f335af1610269612154565b6118ce565b50903461027457826119ac36611d83565b9361055d8451958693849363b46a8d6160e01b85528401611feb565b50346102745760209081600319360112610755578035936001600160401b03918286116102f85781846119ff879836908501611cc0565b928751611a0b81611c38565b606099818b80935282858201520152611a3b885194859384936354212a8960e01b85528401526024830190611c13565b03816108015afa928315611b39578293611a9e575b505050610393918351948594828652611a8d611a76855184868a01526080890190611c13565b9385015193601f19948589830301848a0152611d07565b930151918584030190850152611d07565b909192503d8084843e611ab18184611c84565b8201918481840312610755578051908282116102f45701868184031261075557855193611add85611c38565b81518381116102f85784611af2918401612044565b8552858201518381116102f85784611b0b918401612289565b8686015286820151928311610505575091611b2c9161039395949301612289565b8482015290913880611a50565b85513d84823e3d90fd5b9150503461027457602036600319011261027457918061039393611b65611bbf565b6305431f4560e41b602083019081526001600160a01b03909116602480840191909152825290611b9481611c38565b51906108015afa90611bad611ba7612154565b92612389565b51918291602083526020830190611c13565b600435906001600160a01b0382168203611bd557565b600080fd5b602435906001600160a01b0382168203611bd557565b60005b838110611c035750506000910152565b8181015183820152602001611bf3565b90602091611c2c81518092818552858086019101611bf0565b601f01601f1916010190565b606081019081106001600160401b03821117611c5357604052565b634e487b7160e01b600052604160045260246000fd5b604081019081106001600160401b03821117611c5357604052565b90601f801991011681019081106001600160401b03821117611c5357604052565b6001600160401b038111611c5357601f01601f191660200190565b81601f82011215611bd557803590611cd782611ca5565b92611ce56040519485611c84565b82845260208383010111611bd557816000926020809301838601378301015290565b908082519081815260208091019281808460051b8301019501936000915b848310611d355750505050505090565b9091929394958480600192601f19858203018652895190611d5e82516060808452830190611c13565b91838101518483015260ff604080920151169101529801930193019194939290611d25565b906040600319830112611bd5576004356001600160a01b0381168103611bd55791602435906001600160401b038211611bd557611dc291600401611cc0565b90565b908082519081815260208091019281808460051b8301019501936000915b848310611df35750505050505090565b9091929394958480600192601f198582030186528951908280611e1e84516040808652850190611c13565b9301519101529801930193019194939290611de3565b6001600160401b038111611c535760051b60200190565b81601f82011215611bd5578035611e6181611e34565b92604091611e7183519586611c84565b808552602093848087019260051b82010193838511611bd557858201925b858410611ea0575050505050505090565b6001600160401b03908435828111611bd55784019083601f198389030112611bd5578351611ecd81611c69565b89830135938411611bd5578483611eea8a8d809881980101611cc0565b8352013583820152815201930192611e8f565b604435908115158203611bd557565b606435908115158203611bd557565b602435908115158203611bd557565b35908115158203611bd557565b90815180825260208092019182818360051b82019501936000915b848310611f625750505050505090565b90919293949584808284600194038652895190611f8782516060808452830190611c13565b91838101518483015260ff604080920151169101529801930193019194939290611f52565b6024359063ffffffff82168203611bd557565b35906001600160401b0382168203611bd557565b90816020910312611bd557518015158103611bd55790565b6001600160a01b039091168152604060208201819052611dc292910190611c13565b9092919261201a81611ca5565b916120286040519384611c84565b829482845282820111611bd5576020612042930190611bf0565b565b9080601f83011215611bd5578151611dc29260200161200d565b906020908183820312611bd55782516001600160401b0393848211611bd557019080601f83011215611bd557815161209581611e34565b9460406120a481519788611c84565b828752858088019360051b86010194848611611bd557868101935b8685106120d157505050505050505090565b8451848111611bd557820183601f198289030112611bd5578351916120f583611c69565b8982015192868411611bd55785836121138b8e809881980101612044565b83520151838201528152019401936120bf565b60070b677fffffffffffffff811461213e5760010190565b634e487b7160e01b600052601160045260246000fd5b3d1561217f573d9061216582611ca5565b916121736040519384611c84565b82523d6000602084013e565b606090565b1561218b57565b60405162461bcd60e51b815260206004820152602160248201527f4661696c656420746f2073656e6420457468657220746f2064656c656761746f6044820152603960f91b6064820152608490fd5b6001600160a01b03909116815263ffffffff909116602082015260400190565b60070b60010190677fffffffffffffff8213677fffffffffffffff1983121761213e57565b60070b6000190190677fffffffffffffff198212677fffffffffffffff83131761213e57565b6001600160a01b039091168152606060208201819052611dc293919261226d91840190611c13565b916040818403910152611dc5565b519060ff82168203611bd557565b9080601f83011215611bd55781516122a081611e34565b926040916122b083519586611c84565b808552602093848087019260051b84010193818511611bd557858401925b8584106122df575050505050505090565b8351906001600160401b0391828111611bd55786019060609283601f198488030112611bd55784519061231182611c38565b8a840151908111611bd5578a948461233189886123419581990101612044565b845287810151868501520161227b565b858201528152019301926122ce565b90602082820312611bd55781516001600160401b038111611bd557611dc29201612289565b51906001600160401b0382168203611bd557565b1561239057565b60405162461bcd60e51b815260206004820152601f60248201527f6661696c65642073746174696343616c6c20746f20707265636f6d70696c65006044820152606490fdfea2646970667358221220c29b806ba0c5393e3d3328caa418ca6534f2dcf4f200fd01cb544b8d104e1e3564736f6c63430008140033",
  "linkReferences": {},
  "deployedLinkReferences": {}
}