{
  "_format": "hh-sol-artifact-1",
  "contractName": "FlashLoan",
  "sourceName": "solidity/precompiles/testutil/contracts/FlashLoan.sol",
  "abi": [
    {
      "inputs": [],
      "stateMutability": "nonpayable",
      "type": "constructor"
    },
    {
      "inputs": [
        {
          "internalType": "address",
          "name": "_delegator",
          "type": "address"
        },
        {
          "internalType": "string",
          "name": "_validator",
          "type": "string"
        },
        {
          "internalType": "uint256",
          "name": "_amount",
          "type": "uint256"
        }
      ],
      "name": "delegateWithRevert",
      "outputs": [],
      "stateMutability": "nonpayable",
      "type": "function"
    },
    {
      "inputs": [
        {
          "internalType": "address",
          "name": "_token",
          "type": "address"
        },
        {
          "internalType": "string",
          "name": "_validator",
          "type": "string"
        }
      ],
      "name": "flashLoan",
      "outputs": [
        {
          "internalType": "bool",
          "name": "",
          "type": "bool"
        }
      ],
      "stateMutability": "payable",
      "type": "function"
    },
    {
      "inputs": [
        {
          "internalType": "address",
          "name": "_token",
          "type": "address"
        },
        {
          "internalType": "string",
          "name": "_validator",
          "type": "string"
        }
      ],
      "name": "flashLoanWithRevert",
      "outputs": [
        {
          "internalType": "bool",
          "name": "",
          "type": "bool"
        }
      ],
      "stateMutability": "payable",
      "type": "function"
    },
    {
      "inputs": [],
      "name": "owner",
      "outputs": [
        {
          "internalType": "address",
          "name": "",
          "type": "address"
        }
      ],
      "stateMutability": "view",
      "type": "function"
    }
  ],
  "bytecode": "0x6080806040523461002857600080546001600160a01b03191633179055610a4f908161002e8239f35b600080fdfe6080604081815260048036101561001557600080fd5b600092833560e01c9081638da5cb5b1461070e575080638f518430146106605780639b4f21a9146104195763b86219241461004f57600080fd5b610058366107c6565b84549094916001600160a01b03916100739083163314610809565b8451636eb1769f60e11b815233858201908152306020828101919091529793909216918790829081906040010381855afa801561040f5784906103e0575b6100be915034111561085f565b8451926370a0823160e01b92838552308686015260249488818781875afa9081156102f25783916103af575b5087516323b872dd60e01b8152338882019081523060208201523460408201528a9082908190606001038187895af19081156103885790610132918591610392575b506108bc565b875190858252308883015289828881885afa91821561038857908a92918592610352575b5061018b939161016a610170923490610919565b1461093c565b8851809381926353266bbb60e01b83523490308c850161097c565b0381856108005af190811561032b57906101ac918391610335575b506109d8565b855192808452308685015287848681865afa93841561032b5782946102fc575b50865163a9059cbb60e01b815233878201523486820152888160448186885af180156102f257908992916102c5575b50858851809581938252308a8301525afa9182156102b9578192610286575b503483039283116102745750036102345750505160018152f35b606493601b9293519362461bcd60e51b85528401528201527f466c617368206c6f616e2072657061796d656e74206661696c656400000000006044820152fd5b634e487b7160e01b8152601185528390fd5b9091508681813d83116102b2575b61029e8183610732565b810103126102ae5751903861021a565b5080fd5b503d610294565b508551903d90823e3d90fd5b6102e490833d85116102eb575b6102dc8183610732565b8101906108a4565b50386101fb565b503d6102d2565b88513d85823e3d90fd5b9093508781813d8311610324575b6103148183610732565b810103126102ae575192386101cc565b503d61030a565b87513d84823e3d90fd5b61034c9150893d8b116102eb576102dc8183610732565b386101a6565b8092508391933d8311610381575b61036a8183610732565b8101031261037d57518991610170610156565b8380fd5b503d610360565b89513d86823e3d90fd5b6103a991508b3d8d116102eb576102dc8183610732565b3861012c565b90508881813d83116103d9575b6103c68183610732565b810103126103d55751386100ea565b8280fd5b503d6103bc565b508681813d8311610408575b6103f68183610732565b8101031261037d576100be90516100b1565b503d6103ec565b86513d86823e3d90fd5b5091610424366107c6565b82549094916001600160a01b039161043f9083163314610809565b8451636eb1769f60e11b815233848201908152306020828101919091529793909216918790829081906040010381855afa80156105c9578590610631575b61048a915034111561085f565b8451906370a0823160e01b80835230858401528783602481855afa9283156106275786936105f4575b5086516323b872dd60e01b81523386820190815230602082015234604082015289908290819060600103818a875af19081156105ea578992916104fc9189916105d357506108bc565b6024885180948193825230898301525afa9081156105c9578591610596575b5061016a61052a923490610919565b303b156103d557908261055393928551809581926308f5184360e41b835234903087850161097c565b038183305af1610568575b5050505160018152f35b67ffffffffffffffff8311610583575050815238808061055e565b634e487b7160e01b825260419052602490fd5b90508681813d83116105c2575b6105ad8183610732565b810103126105be575161016a61051b565b8480fd5b503d6105a3565b86513d87823e3d90fd5b6103a99150843d86116102eb576102dc8183610732565b88513d89823e3d90fd5b9092508781813d8311610620575b61060c8183610732565b8101031261061c575191386104b3565b8580fd5b503d610602565b87513d88823e3d90fd5b508681813d8311610659575b6106478183610732565b810103126105be5761048a905161047d565b503d61063d565b50346103d55760603660031901126103d55780356001600160a01b038116810361037d576024359067ffffffffffffffff82116105be576106a66020923690850161076a565b84516353266bbb60e01b815293849283926106c7926044359290850161097c565b0381866108005af1908115610702576106e7925083916106ea57506109d8565b80fd5b61034c915060203d81116102eb576102dc8183610732565b505051903d90823e3d90fd5b8490346102ae57816003193601126102ae5790546001600160a01b03168152602090f35b90601f8019910116810190811067ffffffffffffffff82111761075457604052565b634e487b7160e01b600052604160045260246000fd5b81601f820112156107c15780359067ffffffffffffffff8211610754576040519261079f601f8401601f191660200185610732565b828452602083830101116107c157816000926020809301838601378301015290565b600080fd5b9060406003198301126107c1576004356001600160a01b03811681036107c157916024359067ffffffffffffffff82116107c1576108069160040161076a565b90565b1561081057565b60405162461bcd60e51b815260206004820152602160248201527f4f6e6c79206f776e65722063616e2063616c6c20746869732066756e6374696f6044820152603760f91b6064820152608490fd5b1561086657565b60405162461bcd60e51b8152602060048201526016602482015275496e73756666696369656e7420616c6c6f77616e636560501b6044820152606490fd5b908160209103126107c1575180151581036107c15790565b156108c357565b60405162461bcd60e51b815260206004820152602860248201527f4661696c656420746f207472616e7366657220746f6b656e7320666f7220666c60448201526730b9b4103637b0b760c11b6064820152608490fd5b9190820180921161092657565b634e487b7160e01b600052601160045260246000fd5b1561094357565b60405162461bcd60e51b8152602060048201526011602482015270119b185cda081b1bd85b8819985a5b1959607a1b6044820152606490fd5b9392919060018060a01b03168452602060608186015281519182606087015260005b8381106109c45750505060808160008260409488010152601f8019910116850101930152565b81810183015187820160800152820161099e565b156109df57565b60405162461bcd60e51b81526020600482015260126024820152716661696c656420746f2064656c656761746560701b6044820152606490fdfea2646970667358221220623c3a35889e520292f1a8bc7fd77edbb9e309cbac5c431f7a0b2f8a24f625fa64736f6c63430008140033",
  "linkReferences": {},
  "deployedLinkReferences": {}
}