{
  "_format": "hh-sol-artifact-1",
  "contractName": "GovCaller",
  "sourceName": "solidity/precompiles/testutil/contracts/GovCaller.sol",
  "abi": [
    {
      "inputs": [],
      "name": "counter",
      "outputs": [
        {
          "internalType": "int64",
          "name": "",
          "type": "int64"
        }
      ],
      "stateMutability": "view",
      "type": "function"
    },
    {
      "inputs": [],
      "name": "deposit",
      "outputs": [],
      "stateMutability": "payable",
      "type": "function"
    },
    {
      "inputs": [],
      "name": "getParams",
      "outputs": [
        {
          "components": [
            {
              "internalType": "int64",
              "name": "votingPeriod",
              "type": "int64"
            },
            {
              "components": [
                {
                  "internalType": "string",
                  "name": "denom",
                  "type": "string"
                },
                {
                  "internalType": "uint256",
                  "name": "amount",
                  "type": "uint256"
                }
              ],
              "internalType": "struct Coin[]",
              "name": "minDeposit",
              "type": "tuple[]"
            },
            {
              "internalType": "int64",
              "name": "maxDepositPeriod",
              "type": "int64"
            },
            {
              "internalType": "string",
              "name": "quorum",
              "type": "string"
            },
            {
              "internalType": "string",
              "name": "threshold",
              "type": "string"
            },
            {
              "internalType": "string",
              "name": "vetoThreshold",
              "type": "string"
            },
            {
              "internalType": "string",
              "name": "minInitialDepositRatio",
              "type": "string"
            },
            {
              "internalType": "string",
              "name": "proposalCancelRatio",
              "type": "string"
            },
            {
              "internalType": "string",
              "name": "proposalCancelDest",
              "type": "string"
            },
            {
              "internalType": "int64",
              "name": "expeditedVotingPeriod",
              "type": "int64"
            },
            {
              "internalType": "string",
              "name": "expeditedThreshold",
              "type": "string"
            },
            {
              "components": [
                {
                  "internalType": "string",
                  "name": "denom",
                  "type": "string"
                },
                {
                  "internalType": "uint256",
                  "name": "amount",
                  "type": "uint256"
                }
              ],
              "internalType": "struct Coin[]",
              "name": "expeditedMinDeposit",
              "type": "tuple[]"
            },
            {
              "internalType": "bool",
              "name": "burnVoteQuorum",
              "type": "bool"
            },
            {
              "internalType": "bool",
              "name": "burnProposalDepositPrevote",
              "type": "bool"
            },
            {
              "internalType": "bool",
              "name": "burnVoteVeto",
              "type": "bool"
            },
            {
              "internalType": "string",
              "name": "minDepositRatio",
              "type": "string"
            }
          ],
          "internalType": "struct Params",
          "name": "params",
          "type": "tuple"
        }
      ],
      "stateMutability": "view",
      "type": "function"
    },
    {
      "inputs": [
        {
          "internalType": "address payable",
          "name": "_randomAddr",
          "type": "address"
        },
        {
          "internalType": "uint64",
          "name": "_proposalId",
          "type": "uint64"
        },
        {
          "internalType": "bool",
          "name": "_before",
          "type": "bool"
        },
        {
          "internalType": "bool",
          "name": "_after",
          "type": "bool"
        }
      ],
      "name": "testCancelFromContractWithTransfer",
      "outputs": [
        {
          "internalType": "bool",
          "name": "success",
          "type": "bool"
        }
      ],
      "stateMutability": "payable",
      "type": "function"
    },
    {
      "inputs": [
        {
          "internalType": "uint64",
          "name": "_proposalId",
          "type": "uint64"
        }
      ],
      "name": "testCancelProposalFromContract",
      "outputs": [
        {
          "internalType": "bool",
          "name": "success",
          "type": "bool"
        }
      ],
      "stateMutability": "payable",
      "type": "function"
    },
    {
      "inputs": [
        {
          "internalType": "uint64",
          "name": "_proposalId",
          "type": "uint64"
        },
        {
          "internalType": "bool",
          "name": "_before",
          "type": "bool"
        },
        {
          "internalType": "bool",
          "name": "_after",
          "type": "bool"
        }
      ],
      "name": "testCancelWithTransfer",
      "outputs": [
        {
          "internalType": "bool",
          "name": "success",
          "type": "bool"
        }
      ],
      "stateMutability": "payable",
      "type": "function"
    },
    {
      "inputs": [
        {
          "internalType": "address payable",
          "name": "_depositorAddr",
          "type": "address"
        },
        {
          "internalType": "uint64",
          "name": "_proposalId",
          "type": "uint64"
        },
        {
          "components": [
            {
              "internalType": "string",
              "name": "denom",
              "type": "string"
            },
            {
              "internalType": "uint256",
              "name": "amount",
              "type": "uint256"
            }
          ],
          "internalType": "struct Coin[]",
          "name": "_deposit",
          "type": "tuple[]"
        }
      ],
      "name": "testDeposit",
      "outputs": [
        {
          "internalType": "bool",
          "name": "success",
          "type": "bool"
        }
      ],
      "stateMutability": "payable",
      "type": "function"
    },
    {
      "inputs": [
        {
          "internalType": "uint64",
          "name": "_proposalId",
          "type": "uint64"
        },
        {
          "components": [
            {
              "internalType": "string",
              "name": "denom",
              "type": "string"
            },
            {
              "internalType": "uint256",
              "name": "amount",
              "type": "uint256"
            }
          ],
          "internalType": "struct Coin[]",
          "name": "_deposit",
          "type": "tuple[]"
        }
      ],
      "name": "testDepositFromContract",
      "outputs": [
        {
          "internalType": "bool",
          "name": "success",
          "type": "bool"
        }
      ],
      "stateMutability": "payable",
      "type": "function"
    },
    {
      "inputs": [
        {
          "internalType": "address payable",
          "name": "_randomAddr",
          "type": "address"
        },
        {
          "internalType": "uint64",
          "name": "_proposalId",
          "type": "uint64"
        },
        {
          "components": [
            {
              "internalType": "string",
              "name": "denom",
              "type": "string"
            },
            {
              "internalType": "uint256",
              "name": "amount",
              "type": "uint256"
            }
          ],
          "internalType": "struct Coin[]",
          "name": "_deposit",
          "type": "tuple[]"
        },
        {
          "internalType": "bool",
          "name": "_before",
          "type": "bool"
        },
        {
          "internalType": "bool",
          "name": "_after",
          "type": "bool"
        }
      ],
      "name": "testDepositFromContractWithTransfer",
      "outputs": [
        {
          "internalType": "bool",
          "name": "success",
          "type": "bool"
        }
      ],
      "stateMutability": "payable",
      "type": "function"
    },
    {
      "inputs": [
        {
          "internalType": "uint64",
          "name": "_proposalId",
          "type": "uint64"
        },
        {
          "components": [
            {
              "internalType": "string",
              "name": "denom",
              "type": "string"
            },
            {
              "internalType": "uint256",
              "name": "amount",
              "type": "uint256"
            }
          ],
          "internalType": "struct Coin[]",
          "name": "_deposit",
          "type": "tuple[]"
        },
        {
          "internalType": "bool",
          "name": "_before",
          "type": "bool"
        },
        {
          "internalType": "bool",
          "name": "_after",
          "type": "bool"
        }
      ],
      "name": "testDepositWithTransfer",
      "outputs": [
        {
          "internalType": "bool",
          "name": "success",
          "type": "bool"
        }
      ],
      "stateMutability": "payable",
      "type": "function"
    },
    {
      "inputs": [
        {
          "internalType": "address",
          "name": "depositor",
          "type": "address"
        },
        {
          "internalType": "string",
          "name": "validatorAddress",
          "type": "string"
        },
        {
          "components": [
            {
              "internalType": "string",
              "name": "denom",
              "type": "string"
            },
            {
              "internalType": "uint256",
              "name": "amount",
              "type": "uint256"
            }
          ],
          "internalType": "struct Coin[]",
          "name": "amount",
          "type": "tuple[]"
        }
      ],
      "name": "testFundCommunityPool",
      "outputs": [
        {
          "internalType": "bool",
          "name": "success",
          "type": "bool"
        }
      ],
      "stateMutability": "nonpayable",
      "type": "function"
    },
    {
      "inputs": [
        {
          "internalType": "address",
          "name": "_proposerAddr",
          "type": "address"
        },
        {
          "internalType": "bytes",
          "name": "_jsonProposal",
          "type": "bytes"
        },
        {
          "components": [
            {
              "internalType": "string",
              "name": "denom",
              "type": "string"
            },
            {
              "internalType": "uint256",
              "name": "amount",
              "type": "uint256"
            }
          ],
          "internalType": "struct Coin[]",
          "name": "_deposit",
          "type": "tuple[]"
        }
      ],
      "name": "testSubmitProposal",
      "outputs": [
        {
          "internalType": "uint64",
          "name": "proposalId",
          "type": "uint64"
        }
      ],
      "stateMutability": "payable",
      "type": "function"
    },
    {
      "inputs": [
        {
          "internalType": "bytes",
          "name": "_jsonProposal",
          "type": "bytes"
        },
        {
          "components": [
            {
              "internalType": "string",
              "name": "denom",
              "type": "string"
            },
            {
              "internalType": "uint256",
              "name": "amount",
              "type": "uint256"
            }
          ],
          "internalType": "struct Coin[]",
          "name": "_deposit",
          "type": "tuple[]"
        }
      ],
      "name": "testSubmitProposalFromContract",
      "outputs": [
        {
          "internalType": "uint64",
          "name": "proposalId",
          "type": "uint64"
        }
      ],
      "stateMutability": "payable",
      "type": "function"
    },
    {
      "inputs": [
        {
          "internalType": "address payable",
          "name": "_randomAddr",
          "type": "address"
        },
        {
          "internalType": "bytes",
          "name": "_jsonProposal",
          "type": "bytes"
        },
        {
          "components": [
            {
              "internalType": "string",
              "name": "denom",
              "type": "string"
            },
            {
              "internalType": "uint256",
              "name": "amount",
              "type": "uint256"
            }
          ],
          "internalType": "struct Coin[]",
          "name": "_deposit",
          "type": "tuple[]"
        },
        {
          "internalType": "bool",
          "name": "_before",
          "type": "bool"
        },
        {
          "internalType": "bool",
          "name": "_after",
          "type": "bool"
        }
      ],
      "name": "testSubmitProposalFromContractWithTransfer",
      "outputs": [
        {
          "internalType": "uint64",
          "name": "",
          "type": "uint64"
        }
      ],
      "stateMutability": "payable",
      "type": "function"
    },
    {
      "inputs": [
        {
          "internalType": "bytes",
          "name": "_jsonProposal",
          "type": "bytes"
        },
        {
          "components": [
            {
              "internalType": "string",
              "name": "denom",
              "type": "string"
            },
            {
              "internalType": "uint256",
              "name": "amount",
              "type": "uint256"
            }
          ],
          "internalType": "struct Coin[]",
          "name": "_deposit",
          "type": "tuple[]"
        },
        {
          "internalType": "bool",
          "name": "_before",
          "type": "bool"
        },
        {
          "internalType": "bool",
          "name": "_after",
          "type": "bool"
        }
      ],
      "name": "testSubmitProposalWithTransfer",
      "outputs": [
        {
          "internalType": "uint64",
          "name": "",
          "type": "uint64"
        }
      ],
      "stateMutability": "payable",
      "type": "function"
    },
    {
      "inputs": [
        {
          "internalType": "address payable",
          "name": "depositor",
          "type": "address"
        },
        {
          "internalType": "uint64",
          "name": "_proposalId",
          "type": "uint64"
        },
        {
          "internalType": "bytes",
          "name": "denom",
          "type": "bytes"
        },
        {
          "internalType": "string",
          "name": "validatorAddress",
          "type": "string"
        }
      ],
      "name": "testTransferCancelFund",
      "outputs": [
        {
          "internalType": "bool",
          "name": "success",
          "type": "bool"
        }
      ],
      "stateMutability": "payable",
      "type": "function"
    },
    {
      "stateMutability": "payable",
      "type": "receive"
    }
  ],
  "bytecode": "0x6080806040523461001657611db3908161001c8239f35b600080fdfe6080604052600436101561001b575b361561001957600080fd5b005b60003560e01c80630f6265fb14611276578063258691e21461112d57806326c11ffa14610ff65780635e615a6b14610b7557806361bc221a14610b5457806361f09ad214610ae757806372ff5ec4146109a35780637726ece0146108445780638e7431d3146107cb57806391d6d8e71461068d57806397fd84d214610601578063b94c9822146103d8578063bc7bdf7514610326578063d0e30db014610318578063e8702c34146102545763ed6c08f70361000e5760a03660031901126101f4576100e4611713565b6100ec611729565b604435916001600160401b038084116101f45761010f6020943690600401611944565b949061011961186f565b9461012261187e565b9561020d575b610147604051978893849363592581bb60e11b85523060048601611ad5565b038160006108055af1928315610201576000936101c1575b60209450610174575b50506040519015158152f35b60008080600f6101ba95829583549061018f8260070b611b02565b67ffffffffffffffff1990921691161783556001600160a01b03165af16101b4611b1a565b50611b4a565b3880610168565b92506020843d82116101f9575b816101db602093836117cf565b810103126101f4576101ee602094611aa5565b9261015f565b600080fd5b3d91506101ce565b6040513d6000823e3d90fd5b60005461021c8160070b611b02565b67ffffffffffffffff1990911690851617600090815561024f90808080600f6001600160a01b038b165af16101b4611b1a565b610128565b60603660031901126101f457610268611713565b6001600160401b036024358181116101f457610288903690600401611755565b9290604435918383116101f4576102c46102a86020943690600401611944565b90604051978895869563a8fdc91960e01b875260048701611a71565b038160006108055af1908115610201576020926000926102e9575b5060405191168152f35b61030a919250833d8111610311575b61030281836117cf565b81019061198b565b90836102df565b503d6102f8565b60003660031901126101f457005b60403660031901126101f45761033a61173f565b6024356001600160401b0381116101f45761035b6020913690600401611944565b9261037b604051948593849363592581bb60e11b85523060048601611ad5565b038160006108055af180156102015760009061039f575b6020906040519015158152f35b506020813d82116103d0575b816103b8602093836117cf565b810103126101f4576103cb602091611aa5565b610392565b3d91506103ab565b346101f45760603660031901126101f4576103f1611713565b6024356001600160401b0381116101f457610410903690600401611842565b6001600160401b03604435116101f4573660236044350112156101f457604435600401359061043e82611974565b9161044c60405193846117cf565b80835260208301903660248260051b6044350101116101f457602460443501915b60248260051b604435010183106105855750505060005460018160070b0190677fffffffffffffff1992677fffffffffffffff9584841287851317610533576020926001600160401b031980956001600160401b03169116176000556104e76040519687938493631758efa960e11b855260048501611d47565b038160006108015af192831561020157600093610549575b50600054916000198360070b0194851390851217610533576020936001600160401b03169116176000556040519015158152f35b634e487b7160e01b600052601160045260246000fd5b9092506020813d60201161057d575b81610565602093836117cf565b810103126101f45761057690611aa5565b91846104ff565b3d9150610558565b82356001600160401b0381116101f45760406044358201360360231901126101f457604051906105b482611782565b6001600160401b03602482604435010135116101f45760249260209283926044906105e93683358301808a0135018901611842565b8352813501013583820152815201930192905061046d565b6020806003193601126101f4576106358161061a61173f565b6040518093819263519f184360e11b83523060048401611ab2565b038160006108055af190811561020157600091610658575b506040519015158152f35b90508181813d8311610686575b61066f81836117cf565b810103126101f45761068090611aa5565b8261064d565b503d610665565b60803660031901126101f4576001600160401b036004358181116101f4576106b9903690600401611755565b90916024358181116101f4576106d56020913690600401611944565b93909461070e6106e3611860565b956106ec61186f565b96610791575b60405163a8fdc91960e01b815297889485943060048701611a71565b038160006108055af191821561020157602093600093610772575b50610738575b60405191168152f35b6000546107478160070b611b02565b8216906001600160401b0319161760005561076d6000808080600f335af16101b4611b1a565b61072f565b61078a919350843d81116103115761030281836117cf565b9184610729565b6000546107a08160070b611b02565b8716906001600160401b031916176000556107c66000808080600f335af16101b4611b1a565b6106f2565b60603660031901126101f4576107df611713565b6107e7611729565b604435906001600160401b03928383116101f45761037b61080e6020943690600401611944565b604051968795869563592581bb60e11b875260018060a01b031660048701521660248501526060604485015260648401916119cb565b60a03660031901126101f457610858611713565b6001600160401b036024358181116101f457610878903690600401611755565b9190926044358281116101f4576108956020913690600401611944565b9490956108ce6108a361186f565b966108ac61187e565b9761095c575b60405163a8fdc91960e01b815298899485943060048701611a71565b038160006108055af19283156102015760209460009461093d575b506108f8575060405191168152f35b6000808080600f6109379582546109118160070b611b02565b67ffffffffffffffff199091169089161783556001600160a01b03165af16101b4611b1a565b836102df565b610955919450853d81116103115761030281836117cf565b92856108e9565b60005461096b8160070b611b02565b67ffffffffffffffff1990911690881617600090815561099e90808080600f6001600160a01b038c165af16101b4611b1a565b6108b2565b60803660031901126101f4576109b761173f565b602435906001600160401b038083116101f4576109da6020933690600401611944565b93906109e4611860565b936109ed61186f565b94610aad575b610a12604051968793849363592581bb60e11b85523060048601611ad5565b038160006108055af191821561020157600092610a72575b60209350610a3d57506040519015158152f35b60005490610a4d8260070b611b02565b16906001600160401b031916176000556106806000808080600f335af16101b4611b1a565b91506020833d8211610aa5575b81610a8c602093836117cf565b810103126101f457610a9f602093611aa5565b91610a2a565b3d9150610a7f565b600054610abc8160070b611b02565b8516906001600160401b03191617600055610ae26000808080600f335af16101b4611b1a565b6109f3565b60403660031901126101f4576001600160401b036004358181116101f457610b13903690600401611755565b602492919235908282116101f4576102c493610b356020933690600401611944565b60405163a8fdc91960e01b815296879485949193913060048701611a71565b346101f45760003660031901126101f457602060005460070b604051908152f35b346101f45760003660031901126101f45760606101e0604051610b97816117b3565b600081528260208201526000604082015282808201528260808201528260a08201528260c08201528260e08201528261010082015260006101208201528261014082015282610160820152600061018082015260006101a082015260006101c08201520152604051635e615a6b60e01b81526000816004816108055afa801561020157600090610d7b575b610d779060405191829160208352805160070b60208401526080836101e0610d3e610d28610d03610ced610cd8610cc4610cb0610c9a8b60208101519a6060610c796102009d8e60408501526102208401906118d5565b92604081015160070b82840152015190601f199d8e828503019101526118b0565b8d60808d01519060a08d828503019101526118b0565b60a08b01518d82038b0160c08f01526118b0565b60c08a01518c82038a0160e08e01526118b0565b60e0890151888c8303016101008d01526118b0565b610100880151878b8303016101208c01526118b0565b61012087015160070b6101408a0152610140870151868a8303016101608b01526118b0565b61016086015185898303016101808a01526118d5565b9361018081015115156101a08801526101a081015115156101c08801526101c081015115158288015201519185840301908501526118b0565b0390f35b503d90816000823e610d8d82826117cf565b60208183810103126101f4578051916001600160401b0383116101f45761020083830182840103126101f45760405191610dc6836117b3565b610dd1848201611b95565b8352602084820101516001600160401b0381116101f457610df9908383019086840101611be5565b6020840152610e0c604085830101611b95565b6040840152606084820101516001600160401b0381116101f457610e37908383019086840101611ba3565b6060840152608084820101516001600160401b0381116101f457610e62908383019086840101611ba3565b608084015260a084820101516001600160401b0381116101f457610e8d908383019086840101611ba3565b60a084015260c084820101516001600160401b0381116101f457610eb8908383019086840101611ba3565b60c084015260e084820101516001600160401b0381116101f457610ee3908383019086840101611ba3565b60e084015261010084820101516001600160401b0381116101f457610f0f908383019086840101611ba3565b610100840152610f2461012085830101611b95565b61012084015261014084820101516001600160401b0381116101f457610f51908383019086840101611ba3565b61014084015261016084820101516001600160401b0381116101f457610f7e908383019086840101611be5565b610160840152610f9361018085830101611aa5565b610180840152610fa86101a085830101611aa5565b6101a0840152610fbd6101c085830101611aa5565b6101c08401526101e084820101516001600160401b0381116101f457610d7794610feb938301920101611ba3565b6101e0820152610c22565b60603660031901126101f45761100a61173f565b60243580151581036101f457602061104592611024611860565b926110ec575b6040518094819263519f184360e11b83523060048401611ab2565b038160006108055af1908115610201576000916110b1575b60209250611070575b6040519015158152f35b60005461107f8160070b611b02565b6001600160401b0316906001600160401b031916176000556110ac6000808080600f335af16101b4611b1a565b611066565b90506020823d82116110e4575b816110cb602093836117cf565b810103126101f4576110de602092611aa5565b9061105d565b3d91506110be565b6000546110fb8160070b611b02565b6001600160401b0316906001600160401b031916176000556111286000808080600f335af16101b4611b1a565b61102a565b60803660031901126101f457611181611144611713565b61114c611729565b906020611157611860565b9261116061186f565b9361122d575b6040518095819263519f184360e11b83523060048401611ab2565b038160006108055af1918215610201576000926111f2575b602093506111ac57506040519015158152f35b6000808080600f6106809582546111c58160070b611b02565b6001600160401b031667ffffffffffffffff19919091161783556001600160a01b03165af16101b4611b1a565b91506020833d8211611225575b8161120c602093836117cf565b810103126101f45761121f602093611aa5565b91611199565b3d91506111ff565b60005461123c8160070b611b02565b6001600160401b0316906001600160401b031916176000556112716000808080600f60018060a01b0389165af16101b4611b1a565b611166565b60803660031901126101f45761128a611713565b611292611729565b9060448035916001600160401b03928381116101f4576112b6903690600401611755565b93909160649485358381116101f4576112d3903690600401611842565b9160018060a01b0316926000546112ec8160070b611b02565b82166001600160401b03198092161760005560008080806001895af1611310611b1a565b50156116c65761133a97986040519063519f184360e11b8252818060209b8c933060048401611ab2565b038160006108055af16000918161168f575b5061142b5789898961135c611c98565b6308c379a0146113a7575b7f63616e63656c50726f706f73616c206661696c65642073696c656e746c790000906040519262461bcd60e51b84526004840152601e6024840152820152fd5b6113af611cb6565b806113ba5750611367565b826114066037604051809476031b0b731b2b6283937b837b9b0b6103330b4b632b21d1604d1b858301526113f68151809287868601910161188d565b81010360178101855201836117cf565b61142760405192839262461bcd60e51b8452600484015260248301906118b0565b0390fd5b1561164c5790879492959391600054916114478360070b611b02565b169116176000556040519261145b84611782565b6001845260005b85811061161c5750946114866114c1966040519261147f84611782565b369161180b565b815260028582015261149784611d24565b526114a183611d24565b506000604051809681958294635ca64c1160e11b84528660048501611d47565b03925af1600091816115e5575b5061159757506114dc611c98565b6308c379a014611532575b6084927f66756e64436f6d6d756e697479506f6f6c206661696c65642073696c656e746c607960f81b926040519462461bcd60e51b8652600486015260216024860152840152820152fd5b61153a611cb6565b8061154557506114e7565b82611406603a60405180947f66756e64436f6d6d756e697479506f6f6c206661696c65643a20000000000000858301526115878151809287868601910161188d565b810103601a8101855201836117cf565b156115a6575060405160018152f35b7f66756e64436f6d6d756e697479506f6f6c2072657475726e65642066616c7365906040519262461bcd60e51b84528060048501526024840152820152fd5b9091508381813d8311611615575b6115fd81836117cf565b810103126101f45761160e90611aa5565b90856114ce565b503d6115f3565b6040969395919294965161162f81611782565b606081526000838201528282890101520190879492959391611462565b60405162461bcd60e51b815260048101899052601d60248201527f63616e63656c50726f706f73616c2072657475726e65642066616c7365000000818901528990fd5b9091508981813d83116116bf575b6116a781836117cf565b810103126101f4576116b890611aa5565b908b61134c565b503d61169d565b60405162461bcd60e51b815260206004820152602160248201527f4661696c656420746f2073656e6420457468657220746f206465706f7369746f81890152603960f91b818a0152608490fd5b600435906001600160a01b03821682036101f457565b602435906001600160401b03821682036101f457565b600435906001600160401b03821682036101f457565b9181601f840112156101f4578235916001600160401b0383116101f457602083818601950101116101f457565b604081019081106001600160401b0382111761179d57604052565b634e487b7160e01b600052604160045260246000fd5b61020081019081106001600160401b0382111761179d57604052565b90601f801991011681019081106001600160401b0382111761179d57604052565b6001600160401b03811161179d57601f01601f191660200190565b929192611817826117f0565b9161182560405193846117cf565b8294818452818301116101f4578281602093846000960137010152565b9080601f830112156101f45781602061185d9335910161180b565b90565b6044359081151582036101f457565b6064359081151582036101f457565b6084359081151582036101f457565b60005b8381106118a05750506000910152565b8181015183820152602001611890565b906020916118c98151809281855285808601910161188d565b601f01601f1916010190565b908082519081815260208091019281808460051b8301019501936000915b8483106119035750505050505090565b9091929394958480600192601f19858203018652895190828061192e845160408086528501906118b0565b93015191015298019301930191949392906118f3565b9181601f840112156101f4578235916001600160401b0383116101f4576020808501948460051b0101116101f457565b6001600160401b03811161179d5760051b60200190565b908160209103126101f457516001600160401b03811681036101f45790565b908060209392818452848401376000828201840152601f01601f1916010190565b9080835260208093019081938160051b830194846000915b8483106119f4575050505050505090565b9091929394959681810387528735603e19843603018112156101f45783018035601e19823603018112156101f4578101908682359201906001600160401b0383116101f45782360382136101f4576001938880611a5c819695829660408087528601916119aa565b930135910152990197019594930191906119e3565b939161185d9593611a979260018060a01b031686526060602087015260608601916119aa565b9260408185039101526119cb565b519081151582036101f457565b6001600160a01b0390911681526001600160401b03909116602082015260400190565b6001600160401b0361185d959360609360018060a01b0316835216602082015281604082015201916119cb565b60070b677fffffffffffffff81146105335760010190565b3d15611b45573d90611b2b826117f0565b91611b3960405193846117cf565b82523d6000602084013e565b606090565b15611b5157565b606460405162461bcd60e51b815260206004820152602060248201527f4661696c656420746f2073656e6420457468657220746f2070726f706f7365726044820152fd5b51908160070b82036101f457565b81601f820112156101f4578051611bb9816117f0565b92611bc760405194856117cf565b818452602082840101116101f45761185d916020808501910161188d565b81601f820112156101f4578051611bfb81611974565b92604091611c0b835195866117cf565b808552602093848087019260051b820101938385116101f457858201925b858410611c3a575050505050505090565b8351906001600160401b03918281116101f45784019083601f1983890301126101f4578351611c6881611782565b898301519384116101f4578483611c858a8d809881980101611ba3565b8352015183820152815201930192611c29565b60009060033d11611ca557565b905060046000803e60005160e01c90565b600060443d1061185d57604051600319913d83016004833e81516001600160401b03918282113d602484011117611d1357818401948551938411611d1b573d85010160208487010111611d13575061185d929101602001906117cf565b949350505050565b50949350505050565b805115611d315760200190565b634e487b7160e01b600052603260045260246000fd5b6001600160a01b03909116815260606020820181905261185d939192611d6f918401906118b0565b9160408184039101526118d556fea2646970667358221220c9625558987b92b3d3d39d698b4548091cb23adaf68209787374d331e395f0ec64736f6c63430008140033",
  "linkReferences": {},
  "deployedLinkReferences": {}
}