{
  "_format": "hh-sol-artifact-1",
  "contractName": "ICS20Caller",
  "sourceName": "solidity/precompiles/testutil/contracts/ICS20Caller.sol",
  "abi": [
    {
      "inputs": [],
      "name": "counter",
      "outputs": [
        {
          "internalType": "int64",
          "name": "",
          "type": "int64"
        }
      ],
      "stateMutability": "view",
      "type": "function"
    },
    {
      "inputs": [],
      "name": "deposit",
      "outputs": [],
      "stateMutability": "payable",
      "type": "function"
    },
    {
      "inputs": [
        {
          "internalType": "string",
          "name": "_sourcePort",
          "type": "string"
        },
        {
          "internalType": "string",
          "name": "_sourceChannel",
          "type": "string"
        },
        {
          "internalType": "string",
          "name": "_denom",
          "type": "string"
        },
        {
          "internalType": "uint256",
          "name": "_amount",
          "type": "uint256"
        },
        {
          "internalType": "address",
          "name": "_sender",
          "type": "address"
        },
        {
          "internalType": "string",
          "name": "_receiver",
          "type": "string"
        },
        {
          "components": [
            {
              "internalType": "uint64",
              "name": "revisionNumber",
              "type": "uint64"
            },
            {
              "internalType": "uint64",
              "name": "revisionHeight",
              "type": "uint64"
            }
          ],
          "internalType": "struct Height",
          "name": "_timeoutHeight",
          "type": "tuple"
        },
        {
          "internalType": "uint64",
          "name": "_timeoutTimestamp",
          "type": "uint64"
        },
        {
          "internalType": "string",
          "name": "_memo",
          "type": "string"
        }
      ],
      "name": "ibcTransferAndRevert",
      "outputs": [
        {
          "internalType": "uint64",
          "name": "nextSequence",
          "type": "uint64"
        }
      ],
      "stateMutability": "nonpayable",
      "type": "function"
    },
    {
      "inputs": [
        {
          "internalType": "string",
          "name": "_sourcePort",
          "type": "string"
        },
        {
          "internalType": "string",
          "name": "_sourceChannel",
          "type": "string"
        },
        {
          "internalType": "string",
          "name": "_denom",
          "type": "string"
        },
        {
          "internalType": "uint256",
          "name": "_amount",
          "type": "uint256"
        },
        {
          "internalType": "address",
          "name": "_sender",
          "type": "address"
        },
        {
          "internalType": "string",
          "name": "_receiver",
          "type": "string"
        },
        {
          "components": [
            {
              "internalType": "uint64",
              "name": "revisionNumber",
              "type": "uint64"
            },
            {
              "internalType": "uint64",
              "name": "revisionHeight",
              "type": "uint64"
            }
          ],
          "internalType": "struct Height",
          "name": "_timeoutHeight",
          "type": "tuple"
        },
        {
          "internalType": "uint64",
          "name": "_timeoutTimestamp",
          "type": "uint64"
        },
        {
          "internalType": "string",
          "name": "_memo",
          "type": "string"
        }
      ],
      "name": "testIbcTransfer",
      "outputs": [
        {
          "internalType": "uint64",
          "name": "",
          "type": "uint64"
        }
      ],
      "stateMutability": "nonpayable",
      "type": "function"
    },
    {
      "inputs": [
        {
          "internalType": "string",
          "name": "_sourcePort",
          "type": "string"
        },
        {
          "internalType": "string",
          "name": "_sourceChannel",
          "type": "string"
        },
        {
          "internalType": "string",
          "name": "_denom",
          "type": "string"
        },
        {
          "internalType": "uint256",
          "name": "_amount",
          "type": "uint256"
        },
        {
          "internalType": "string",
          "name": "_receiver",
          "type": "string"
        },
        {
          "components": [
            {
              "internalType": "uint64",
              "name": "revisionNumber",
              "type": "uint64"
            },
            {
              "internalType": "uint64",
              "name": "revisionHeight",
              "type": "uint64"
            }
          ],
          "internalType": "struct Height",
          "name": "_timeoutHeight",
          "type": "tuple"
        },
        {
          "internalType": "uint64",
          "name": "_timeoutTimestamp",
          "type": "uint64"
        },
        {
          "internalType": "string",
          "name": "_memo",
          "type": "string"
        }
      ],
      "name": "testIbcTransferFromContract",
      "outputs": [
        {
          "internalType": "uint64",
          "name": "",
          "type": "uint64"
        }
      ],
      "stateMutability": "nonpayable",
      "type": "function"
    },
    {
      "inputs": [
        {
          "internalType": "string",
          "name": "_sourcePort",
          "type": "string"
        },
        {
          "internalType": "string",
          "name": "_sourceChannel",
          "type": "string"
        },
        {
          "internalType": "string",
          "name": "_denom",
          "type": "string"
        },
        {
          "internalType": "uint256",
          "name": "_amount",
          "type": "uint256"
        },
        {
          "internalType": "address",
          "name": "_sender",
          "type": "address"
        },
        {
          "internalType": "string",
          "name": "_receiver",
          "type": "string"
        },
        {
          "components": [
            {
              "internalType": "uint64",
              "name": "revisionNumber",
              "type": "uint64"
            },
            {
              "internalType": "uint64",
              "name": "revisionHeight",
              "type": "uint64"
            }
          ],
          "internalType": "struct Height",
          "name": "_timeoutHeight",
          "type": "tuple"
        },
        {
          "internalType": "uint64",
          "name": "_timeoutTimestamp",
          "type": "uint64"
        },
        {
          "internalType": "string",
          "name": "_memo",
          "type": "string"
        },
        {
          "internalType": "bool",
          "name": "_before",
          "type": "bool"
        },
        {
          "internalType": "bool",
          "name": "_after",
          "type": "bool"
        }
      ],
      "name": "testIbcTransferWithTransfer",
      "outputs": [
        {
          "internalType": "uint64",
          "name": "",
          "type": "uint64"
        }
      ],
      "stateMutability": "nonpayable",
      "type": "function"
    },
    {
      "inputs": [
        {
          "internalType": "string",
          "name": "_sourcePort",
          "type": "string"
        },
        {
          "internalType": "string",
          "name": "_sourceChannel",
          "type": "string"
        },
        {
          "internalType": "string",
          "name": "_denom",
          "type": "string"
        },
        {
          "internalType": "uint256",
          "name": "_amount",
          "type": "uint256"
        },
        {
          "internalType": "address",
          "name": "_sender",
          "type": "address"
        },
        {
          "internalType": "string",
          "name": "_receiver",
          "type": "string"
        },
        {
          "internalType": "address",
          "name": "_receiverAddr",
          "type": "address"
        },
        {
          "components": [
            {
              "internalType": "uint64",
              "name": "revisionNumber",
              "type": "uint64"
            },
            {
              "internalType": "uint64",
              "name": "revisionHeight",
              "type": "uint64"
            }
          ],
          "internalType": "struct Height",
          "name": "_timeoutHeight",
          "type": "tuple"
        },
        {
          "internalType": "uint64",
          "name": "_timeoutTimestamp",
          "type": "uint64"
        },
        {
          "internalType": "string",
          "name": "_memo",
          "type": "string"
        },
        {
          "internalType": "bool",
          "name": "_after",
          "type": "bool"
        }
      ],
      "name": "testRevertIbcTransfer",
      "outputs": [],
      "stateMutability": "nonpayable",
      "type": "function"
    }
  ],
  "bytecode": "0x6080806040523461001657610a61908161001c8239f35b600080fdfe608060408181526004908136101561001657600080fd5b600092833560e01c90816361bc221a146106a357508063b42bc5a9146104bf578063bcc45b7914610372578063c352645014610179578063d0e30db014610167578063d8bb6c0e146100f85763e12e9b271461007157600080fd5b346100f45760206100a86100843661079f565b8b5163632535b960e01b81529c8d9a8b9a9099929893979496949392918b016108e7565b0381866108025af19081156100eb57506100c0575080fd5b6100e09060203d81116100e4575b6100d881836106f1565b810190610888565b5080fd5b503d6100ce565b513d84823e3d90fd5b8280fd5b50346100f457602061010c6100843661079f565b0381866108025af191821561015d5760209392610135575b506001600160401b03905191168152f35b6001600160401b0391925061015690843d81116100e4576100d881836106f1565b9190610124565b81513d85823e3d90fd5b83806003193601126101765780f35b80fd5b50346100f4576101803660031901126100f4576001600160401b0390823582811161036e576101ab903690850161072d565b936024358381116100e0576101c3903690860161072d565b6044358481116100f4576101da903690870161072d565b956101e3610779565b60a43586811161036e576101fa903690890161072d565b8560c31936011261036e578551610210816106c0565b60c435888116810361036a57815260e435888116810361036a5760208201526101043591888316830361036a5761012435898111610366576102559036908c0161072d565b93610144359a8b15158c0361036257916020979695939161029b959361027961078f565b9d61032b575b8b5163632535b960e01b81529e8f998a99606435938b016108e7565b0381846108025af193841561031f576020958295610300575b506102c2575b505191168152f35b806102fa91546102d48160070b610981565b8516906001600160401b031916178155808080600f335af16102f46109af565b506109df565b386102ba565b610318919550863d81116100e4576100d881836106f1565b93386102b4565b509051903d90823e3d90fd5b8a548d61033a8260070b610981565b16906001600160401b031916178b5561035d8b808080600f335af16102f46109af565b61027f565b8880fd5b8780fd5b8680fd5b8480fd5b50346100f4576101203660031901126100f4576001600160401b0390823582811161036e576103a4903690850161072d565b6024358381116104bb576103bb903690860161072d565b60443584811161036a576103d2903690870161072d565b90608435858111610366576103ea903690880161072d565b928460a31936011261036657845190610402826106c0565b60a43587811681036104b757825260c43587811681036104b757602083015260e43587811681036104b75761010435928884116104b35760209661044c61046b9536908d0161072d565b9389519b8c98899863632535b960e01b8a523093606435938b016108e7565b0381876108025af19283156104a9576020949361048a57505191168152f35b6104a2919350843d81116100e4576100d881836106f1565b91386102ba565b81513d86823e3d90fd5b8a80fd5b8980fd5b8580fd5b50346100f4576101803660031901126100f457826001600160401b0383358181116100f4576104f1903690860161072d565b9060243581811161069f57610509903690870161072d565b60443582811161036e57610520903690880161072d565b610528610779565b9160a43584811161036a576105409036908a0161072d565b60c435959091906001600160a01b0387168703610366578860e3193601126103665788519461056e866106c0565b60e43587811681036104b75786526101043587811681036104b75760208701526101243587811681036104b75761014435908882116104b3578b976020966105e4948f946105bf903690870161072d565b946105c861078f565b9b5163e12e9b2760e01b81529a8b998a99606435938b016108e7565b038188305af1610681575b506105f8578280f35b82600f8193829383549061060e8260070b610981565b16906001600160401b0319161783555af16106276109af565b5015610634578281808280f35b906020608492519162461bcd60e51b8352820152602160248201527f4661696c656420746f2073656e6420457468657220746f2064656c656761746f6044820152603960f91b6064820152fd5b6106989060203d81116100e4576100d881836106f1565b50386105ef565b8380fd5b8490346100e057816003193601126100e0576020915460070b8152f35b604081019081106001600160401b038211176106db57604052565b634e487b7160e01b600052604160045260246000fd5b90601f801991011681019081106001600160401b038211176106db57604052565b6001600160401b0381116106db57601f01601f191660200190565b81601f820112156107745780359061074482610712565b9261075260405194856106f1565b8284526020838301011161077457816000926020809301838601378301015290565b600080fd5b608435906001600160a01b038216820361077457565b6101643590811515820361077457565b610140600319820112610774576004906001600160401b03823581811161077457826107cc91850161072d565b9360243582811161077457836107e391860161072d565b9360443583811161077457846107fa91830161072d565b93606435936084356001600160a01b0381168103610774579360a435828111610774578361082991860161072d565b93604060c31985011261077457604051610842816106c0565b60c435848116810361077457815260e43584811681036107745760208201529361010435848116810361077457936101243590811161077457610885920161072d565b90565b9081602091031261077457516001600160401b03811681036107745790565b919082519283825260005b8481106108d3575050826000602080949584010152601f8019910116010190565b6020818301810151848301820152016108b2565b95909461092c61094f9461091e6108859c9a9b979561091160209a8c6101408091528d01906108a7565b908b82038b8d01526108a7565b9089820360408b01526108a7565b60608801939093526001600160a01b0316608087015285820360a08701526108a7565b946001600160401b039281848093511660c087015201511660e0840152166101008201526101208184039101526108a7565b60070b677fffffffffffffff81146109995760010190565b634e487b7160e01b600052601160045260246000fd5b3d156109da573d906109c082610712565b916109ce60405193846106f1565b82523d6000602084013e565b606090565b156109e657565b60405162461bcd60e51b815260206004820152601e60248201527f4661696c656420746f2073656e6420457468657220746f2073656e64657200006044820152606490fdfea26469706673582212208791b3d3dbefb3ff5d8becbb8ea142afe50bff91ecc385918766b552c4a8067464736f6c63430008140033",
  "linkReferences": {},
  "deployedLinkReferences": {}
}