{
  "_format": "hh-sol-artifact-1",
  "contractName": "InterchainSender",
  "sourceName": "solidity/precompiles/testutil/contracts/InterchainSender.sol",
  "abi": [
    {
      "inputs": [],
      "name": "counter",
      "outputs": [
        {
          "internalType": "int64",
          "name": "",
          "type": "int64"
        }
      ],
      "stateMutability": "view",
      "type": "function"
    },
    {
      "inputs": [
        {
          "internalType": "string",
          "name": "hash",
          "type": "string"
        }
      ],
      "name": "testDenom",
      "outputs": [
        {
          "components": [
            {
              "internalType": "string",
              "name": "base",
              "type": "string"
            },
            {
              "components": [
                {
                  "internalType": "string",
                  "name": "portId",
                  "type": "string"
                },
                {
                  "internalType": "string",
                  "name": "channelId",
                  "type": "string"
                }
              ],
              "internalType": "struct Hop[]",
              "name": "trace",
              "type": "tuple[]"
            }
          ],
          "internalType": "struct Denom",
          "name": "denom",
          "type": "tuple"
        }
      ],
      "stateMutability": "view",
      "type": "function"
    },
    {
      "inputs": [
        {
          "internalType": "string",
          "name": "trace",
          "type": "string"
        }
      ],
      "name": "testDenomHash",
      "outputs": [
        {
          "internalType": "string",
          "name": "hash",
          "type": "string"
        }
      ],
      "stateMutability": "view",
      "type": "function"
    },
    {
      "inputs": [
        {
          "components": [
            {
              "internalType": "bytes",
              "name": "key",
              "type": "bytes"
            },
            {
              "internalType": "uint64",
              "name": "offset",
              "type": "uint64"
            },
            {
              "internalType": "uint64",
              "name": "limit",
              "type": "uint64"
            },
            {
              "internalType": "bool",
              "name": "countTotal",
              "type": "bool"
            },
            {
              "internalType": "bool",
              "name": "reverse",
              "type": "bool"
            }
          ],
          "internalType": "struct PageRequest",
          "name": "pageRequest",
          "type": "tuple"
        }
      ],
      "name": "testDenoms",
      "outputs": [
        {
          "components": [
            {
              "internalType": "string",
              "name": "base",
              "type": "string"
            },
            {
              "components": [
                {
                  "internalType": "string",
                  "name": "portId",
                  "type": "string"
                },
                {
                  "internalType": "string",
                  "name": "channelId",
                  "type": "string"
                }
              ],
              "internalType": "struct Hop[]",
              "name": "trace",
              "type": "tuple[]"
            }
          ],
          "internalType": "struct Denom[]",
          "name": "denoms",
          "type": "tuple[]"
        },
        {
          "components": [
            {
              "internalType": "bytes",
              "name": "nextKey",
              "type": "bytes"
            },
            {
              "internalType": "uint64",
              "name": "total",
              "type": "uint64"
            }
          ],
          "internalType": "struct PageResponse",
          "name": "pageResponse",
          "type": "tuple"
        }
      ],
      "stateMutability": "view",
      "type": "function"
    },
    {
      "inputs": [
        {
          "internalType": "address payable",
          "name": "_source",
          "type": "address"
        },
        {
          "internalType": "string",
          "name": "sourcePort",
          "type": "string"
        },
        {
          "internalType": "string",
          "name": "sourceChannel",
          "type": "string"
        },
        {
          "internalType": "string",
          "name": "denom",
          "type": "string"
        },
        {
          "internalType": "uint256",
          "name": "amount",
          "type": "uint256"
        },
        {
          "internalType": "string",
          "name": "receiver",
          "type": "string"
        },
        {
          "internalType": "bool",
          "name": "_before",
          "type": "bool"
        },
        {
          "internalType": "bool",
          "name": "_between",
          "type": "bool"
        },
        {
          "internalType": "bool",
          "name": "_after",
          "type": "bool"
        }
      ],
      "name": "testMultiTransferWithInternalTransfer",
      "outputs": [],
      "stateMutability": "nonpayable",
      "type": "function"
    },
    {
      "inputs": [
        {
          "internalType": "string",
          "name": "sourcePort",
          "type": "string"
        },
        {
          "internalType": "string",
          "name": "sourceChannel",
          "type": "string"
        },
        {
          "internalType": "string",
          "name": "denom",
          "type": "string"
        },
        {
          "internalType": "uint256",
          "name": "amount",
          "type": "uint256"
        },
        {
          "internalType": "string",
          "name": "receiver",
          "type": "string"
        },
        {
          "components": [
            {
              "internalType": "uint64",
              "name": "revisionNumber",
              "type": "uint64"
            },
            {
              "internalType": "uint64",
              "name": "revisionHeight",
              "type": "uint64"
            }
          ],
          "internalType": "struct Height",
          "name": "timeoutHeight",
          "type": "tuple"
        },
        {
          "internalType": "uint64",
          "name": "timeoutTimestamp",
          "type": "uint64"
        },
        {
          "internalType": "string",
          "name": "memo",
          "type": "string"
        }
      ],
      "name": "testTransferContractFunds",
      "outputs": [
        {
          "internalType": "uint64",
          "name": "nextSequence",
          "type": "uint64"
        }
      ],
      "stateMutability": "nonpayable",
      "type": "function"
    },
    {
      "inputs": [
        {
          "internalType": "address payable",
          "name": "_otherAcc",
          "type": "address"
        },
        {
          "internalType": "address",
          "name": "_source",
          "type": "address"
        },
        {
          "internalType": "string",
          "name": "sourcePort",
          "type": "string"
        },
        {
          "internalType": "string",
          "name": "sourceChannel",
          "type": "string"
        },
        {
          "internalType": "string",
          "name": "denom",
          "type": "string"
        },
        {
          "internalType": "uint256",
          "name": "amount",
          "type": "uint256"
        },
        {
          "internalType": "string",
          "name": "receiver",
          "type": "string"
        },
        {
          "internalType": "bool",
          "name": "_before",
          "type": "bool"
        },
        {
          "internalType": "bool",
          "name": "_after",
          "type": "bool"
        }
      ],
      "name": "testTransferFundsWithTransferToOtherAcc",
      "outputs": [],
      "stateMutability": "nonpayable",
      "type": "function"
    },
    {
      "inputs": [
        {
          "internalType": "string",
          "name": "sourcePort",
          "type": "string"
        },
        {
          "internalType": "string",
          "name": "sourceChannel",
          "type": "string"
        },
        {
          "internalType": "string",
          "name": "denom",
          "type": "string"
        },
        {
          "internalType": "uint256",
          "name": "amount",
          "type": "uint256"
        },
        {
          "internalType": "string",
          "name": "receiver",
          "type": "string"
        },
        {
          "components": [
            {
              "internalType": "uint64",
              "name": "revisionNumber",
              "type": "uint64"
            },
            {
              "internalType": "uint64",
              "name": "revisionHeight",
              "type": "uint64"
            }
          ],
          "internalType": "struct Height",
          "name": "timeoutHeight",
          "type": "tuple"
        },
        {
          "internalType": "uint64",
          "name": "timeoutTimestamp",
          "type": "uint64"
        },
        {
          "internalType": "string",
          "name": "memo",
          "type": "string"
        }
      ],
      "name": "testTransferUserFunds",
      "outputs": [
        {
          "internalType": "uint64",
          "name": "nextSequence",
          "type": "uint64"
        }
      ],
      "stateMutability": "nonpayable",
      "type": "function"
    }
  ],
  "bytecode": "0x6080806040523461001657611101908161001c8239f35b600080fdfe6080604052600436101561001257600080fd5b60003560e01c80631dba685b146107e757806344c286701461055157806361bc221a146105305780636fdf23cc146104f95780637492bdd81461045e578063accc7b901461038a578063b9672879146101485763c595699a1461007457600080fd5b34610137576020366003190112610137576001600160401b036004358181116101375760006100aa6100cc923690600401610b0c565b6040518093819263b5cb6e7d60e01b8352602060048401526024830190610ba2565b03816108025afa90811561013c576000916100fc575b604051602080825281906100f890820185610ba2565b0390f35b90503d806000833e61010e8183610ad0565b8101602082820312610137578151928311610137576100f8926101319201610fa7565b386100e2565b600080fd5b6040513d6000823e3d90fd5b34610137576003196101203682011261013757610163610a89565b6001600160a01b03916024358381169190829003610137576001600160401b03916044358381116101375761019c903690600401610b0c565b606435848111610137576101b4903690600401610b0c565b91608435858111610137576101cd903690600401610b0c565b9160c435868111610137576101e6903690600401610b0c565b926101ef610b53565b958989896101fb610b62565b99610361575b50505060405161021081610a9f565b606481526020958695869485840160649052604051998a9763632535b960e01b8952600489016101409052610144890161024991610ba2565b868982030160248a015261025c91610ba2565b8588820301604489015261026f91610ba2565b9060a43560648801526084870152838682030160a487015261029091610ba2565b9060c485016102b491602090816001600160401b0391828151168552015116910152565b6101048401600090528381039182016101248501526000905201815a610802600091f1801561013c5761032d575b50506102ea57005b600080650da475abf00061032b958295839584549061030b8260070b610e07565b16906001600160401b031916178455165af1610325610e35565b50610e65565b005b81813d831161035a575b6103418183610ad0565b810103126101375761035290610d4c565b5084806102e2565b503d610337565b600080650da475abf000610382958295839584549061030b8260070b610e07565b898989610201565b3461013757602080600319360112610137576001600160401b03906004358281116101375760006103c26103f7923690600401610b0c565b6060846040516103d181610a9f565b828152015260405180938192632f8fcc5160e11b83528660048401526024830190610ba2565b03816108025afa92831561013c57600093610423575b50506100f8604051928284938452830190610bc7565b909192503d806000843e6104378184610ad0565b8201908383830312610137578251908111610137576104569201610fc1565b90828061040d565b3461013757610495602061047136610c77565b93989496604093919351998a98899863632535b960e01b8a52339360048b01610d60565b038160006108025af1801561013c576000906104c0575b6020906001600160401b0360405191168152f35b506020813d82116104f1575b816104d960209383610ad0565b81010312610137576104ec602091610d4c565b6104ac565b3d91506104cc565b3461013757610495602061050c36610c77565b93989496604093919351998a98899863632535b960e01b8a52309360048b01610d60565b3461013757600036600319011261013757602060005460070b604051908152f35b346101375760031960203682018113610137576001600160401b03916004358381116101375760a0813603928301126101375760008360405161059381610a9f565b6060815201526040519163303eac4160e21b8352836004840152816004013590602219018112156101375781016024600482013591019185821161013757813603831361013757838261063f608460e494849660009860a060248801528160c488015287870137878685870101528a61060e60248301610c63565b1660448601528a61062160448301610c63565b16606486015261063360648201610b72565b15158286015201610b72565b151560a4830152601f01601f191681010301816108025afa90811561013c576000906000926106ec575b50604051926040840194604085528251809652606085018260608860051b8801019401906000905b8882106106c45750505084809650830382860152816106b98551604086526040860190610ba2565b940151169101520390f35b90919484806106df600193605f198c82030186528951610bc7565b9701920192019091610691565b9150503d806000833e6106ff8183610ad0565b8101906040818303126101375780518481116101375781019082601f8301121561013757815161072e81610f59565b9261073c6040519485610ad0565b818452858085019260051b8201019185831161013757868201905b8382106107c2575050505083810151908582116101375701604081840312610137576040519261078684610a9f565b81518681116101375782019181601f84011215610137576107b0869284846107b896519101610f70565b855201610d4c565b8383015284610669565b81518981116101375788916107dc89848094880101610fc1565b815201910190610757565b346101375761012036600319011261013757610801610a89565b6024356001600160401b03811161013757610820903690600401610b0c565b6044356001600160401b0381116101375761083f903690600401610b0c565b906064356001600160401b0381116101375761085f903690600401610b0c565b60a4356001600160401b0381116101375761087e903690600401610b0c565b9060c43593841515850361013757610894610b53565b9261089d610b62565b95610a3b575b60405180946108b182610a9f565b60648252606460208301526020838a6108e8604051958693849363632535b960e01b85528d8c8c60843560011c9260048901610ebb565b038160006108025af191821561013c5789926109f3575b509160209591610930936109cf575b60405163632535b960e01b8152978896879660843560011c9260048901610ebb565b038160006108025af1801561013c57610996575b5061094b57005b6000808080650da475abf00061032b9582546109698160070b610e07565b6001600160401b031667ffffffffffffffff19919091161783556001600160a01b03165af1610325610e35565b6020813d6020116109c7575b816109af60209383610ad0565b81010312610137576109c090610d4c565b5082610944565b3d91506109a2565b6000808080650da475abf0006109ed9582546109698160070b610e07565b8861090e565b959150916020863d602011610a33575b81610a1060209383610ad0565b81010312610137578861093093610a28602098610d4c565b5091935091956108ff565b3d9150610a03565b600054610a4a8160070b610e07565b6001600160401b0316906001600160401b03191617600055610a846000808080650da475abf00060018060a01b038d165af1610325610e35565b6108a3565b600435906001600160a01b038216820361013757565b604081019081106001600160401b03821117610aba57604052565b634e487b7160e01b600052604160045260246000fd5b90601f801991011681019081106001600160401b03821117610aba57604052565b6001600160401b038111610aba57601f01601f191660200190565b81601f8201121561013757803590610b2382610af1565b92610b316040519485610ad0565b8284526020838301011161013757816000926020809301838601378301015290565b60e43590811515820361013757565b6101043590811515820361013757565b3590811515820361013757565b60005b838110610b925750506000910152565b8181015183820152602001610b82565b90602091610bbb81518092818552858086019101610b7f565b601f01601f1916010190565b805190610bdc60409283855283850190610ba2565b90602080910151938181840391015283519182815281810182808560051b8401019601946000925b858410610c15575050505050505090565b909192939495968580610c52600193601f198682030188528b519083610c4283518a84528a840190610ba2565b9201519084818403910152610ba2565b990194019401929594939190610c04565b35906001600160401b038216820361013757565b610120600319820112610137576004916001600160401b039083358281116101375783610ca5918601610b0c565b936024358381116101375784610cbc918301610b0c565b936044358481116101375781610cd3918401610b0c565b93606435936084358281116101375783610cee918601610b0c565b93604060a31985011261013757604051610d0781610a9f565b60a435848116810361013757815260c43584811681036101375760208201529360e435848116810361013757936101043590811161013757610d499201610b0c565b90565b51906001600160401b038216820361013757565b956001600160401b0395610dae610df295610da0610dd196610d92610d499f9d9e9a978d610140908181520190610ba2565b8c810360208e015290610ba2565b908a820360408c0152610ba2565b60608901939093526001600160a01b0316608088015286820360a0880152610ba2565b9560c0850190602090816001600160401b0391828151168552015116910152565b16610100820152610120818403910152610ba2565b60070b677fffffffffffffff8114610e1f5760010190565b634e487b7160e01b600052601160045260246000fd5b3d15610e60573d90610e4682610af1565b91610e546040519384610ad0565b82523d6000602084013e565b606090565b15610e6c57565b60405162461bcd60e51b815260206004820152602160248201527f4661696c656420746f2073656e6420457468657220746f2064656c656761746f6044820152603960f91b6064820152608490fd5b94610efc610f1f94610eee610f409795610ee160209c9b96610140808d528c0190610ba2565b908a82038d8c0152610ba2565b9088820360408a0152610ba2565b60608701939093526001600160a01b0316608086015284820360a0860152610ba2565b9260c0830190602090816001600160401b0391828151168552015116910152565b6000610100820152610120818303910152600081520190565b6001600160401b038111610aba5760051b60200190565b90929192610f7d81610af1565b91610f8b6040519384610ad0565b829482845282820111610137576020610fa5930190610b7f565b565b9080601f83011215610137578151610d4992602001610f70565b91906040928381830312610137578351610fda81610a9f565b80948251936001600160401b03948581116101375781610ffb918601610fa7565b8352602093848101519086821161013757019181601f840112156101375782519061102582610f59565b9661103282519889610ad0565b828852868089019360051b8601019484861161013757878101935b86851061105f57505050505050500152565b84518381116101375782019084601f1983890301126101375784519061108482610a9f565b8a83015185811161013757888c61109d92860101610fa7565b82528583015191858311610137576110bc898d80969581960101610fa7565b8382015281520194019361104d56fea264697066735822122051814c264fbc9ad728c93acc6f2ffed8fd0c82f027781cd49e1e7fee771c9b4164736f6c63430008140033",
  "linkReferences": {},
  "deployedLinkReferences": {}
}