{
  "_format": "hh-sol-artifact-1",
  "contractName": "InterchainSenderCaller",
  "sourceName": "solidity/precompiles/testutil/contracts/InterchainSenderCaller.sol",
  "abi": [
    {
      "inputs": [
        {
          "internalType": "address",
          "name": "_interchainSender",
          "type": "address"
        }
      ],
      "stateMutability": "payable",
      "type": "constructor"
    },
    {
      "inputs": [],
      "name": "counter",
      "outputs": [
        {
          "internalType": "int64",
          "name": "",
          "type": "int64"
        }
      ],
      "stateMutability": "view",
      "type": "function"
    },
    {
      "inputs": [
        {
          "internalType": "address payable",
          "name": "_source",
          "type": "address"
        },
        {
          "internalType": "string",
          "name": "sourcePort",
          "type": "string"
        },
        {
          "internalType": "string",
          "name": "sourceChannel",
          "type": "string"
        },
        {
          "internalType": "string",
          "name": "denom",
          "type": "string"
        },
        {
          "internalType": "uint256",
          "name": "amount",
          "type": "uint256"
        },
        {
          "internalType": "string",
          "name": "receiver",
          "type": "string"
        }
      ],
      "name": "performMultiTransferWithRevert",
      "outputs": [],
      "stateMutability": "nonpayable",
      "type": "function"
    },
    {
      "inputs": [
        {
          "internalType": "address payable",
          "name": "_source",
          "type": "address"
        },
        {
          "internalType": "string",
          "name": "sourcePort",
          "type": "string"
        },
        {
          "internalType": "string",
          "name": "sourceChannel",
          "type": "string"
        },
        {
          "internalType": "string",
          "name": "denom",
          "type": "string"
        },
        {
          "internalType": "uint256",
          "name": "amount",
          "type": "uint256"
        },
        {
          "internalType": "string",
          "name": "receiver",
          "type": "string"
        }
      ],
      "name": "performNestedTransfers",
      "outputs": [],
      "stateMutability": "nonpayable",
      "type": "function"
    },
    {
      "inputs": [
        {
          "internalType": "address payable",
          "name": "_source",
          "type": "address"
        },
        {
          "internalType": "string",
          "name": "sourcePort",
          "type": "string"
        },
        {
          "internalType": "string",
          "name": "sourceChannel",
          "type": "string"
        },
        {
          "internalType": "string",
          "name": "denom",
          "type": "string"
        },
        {
          "internalType": "uint256",
          "name": "amount",
          "type": "uint256"
        },
        {
          "internalType": "string",
          "name": "receiver",
          "type": "string"
        }
      ],
      "name": "transfersWithNestedRevert",
      "outputs": [],
      "stateMutability": "nonpayable",
      "type": "function"
    },
    {
      "inputs": [
        {
          "internalType": "address payable",
          "name": "_source",
          "type": "address"
        },
        {
          "internalType": "string",
          "name": "sourcePort",
          "type": "string"
        },
        {
          "internalType": "string",
          "name": "sourceChannel",
          "type": "string"
        },
        {
          "internalType": "string",
          "name": "denom",
          "type": "string"
        },
        {
          "internalType": "uint256",
          "name": "amount",
          "type": "uint256"
        },
        {
          "internalType": "string",
          "name": "receiver",
          "type": "string"
        }
      ],
      "name": "transfersWithRevert",
      "outputs": [],
      "stateMutability": "nonpayable",
      "type": "function"
    }
  ],
  "bytecode": "0x6080601f6106af38819003918201601f19168301916001600160401b038311848410176100815780849260209460405283398101031261007c57516001600160a01b038116810361007c5760008054600160401b600160e01b031916604092831b600160401b600160e01b03161790555161061790816100988239f35b600080fd5b634e487b7160e01b600052604160045260246000fdfe6040608081526004908136101561001557600080fd5b600091823560e01c838163073989ff146102e8578163427c1cb6146102195750806361bc221a146101f557806369a98b2b146100de5763ec3c5a141461005a57600080fd5b8291346100da5761006a36610414565b88549397909593871c6001600160a01b03169392843b156100d657899687936100a7928a519b8c998a988997631dba685b60e01b89528801610510565b03925af19081156100cd57506100ba5750fd5b6100c390610382565b6100ca5780fd5b80fd5b513d84823e3d90fd5b8980fd5b5050fd5b5090346101cf57826100ef36610414565b8654989297949593949161010660078b900b6104a2565b67ffffffffffffffff199a8b1667ffffffffffffffff91821617808a55909a9990841c6001600160a01b0316803b156100d6578989899289838a6101608a8a8a8e519a8b998a988997631dba685b60e01b89528801610510565b03925af180156101eb57908a916101d7575b5050303b156101d357889661019894519889978897633b0f168560e21b89528801610585565b038183305af16101bb575b5054916101b28360070b6104a2565b16911617815580f35b6101c490610382565b6101cf5782386101a3565b8280fd5b8880fd5b6101e090610382565b6101d3578838610172565b85513d8c823e3d90fd5b5050346102155781600319360112610215576020915460070b9051908152f35b5080fd5b929050346100da5761022a36610414565b9060018060a09995949796991b038954881c16803b156100d6578989859288838961026c898f8f8b91519a8b998a988997631dba685b60e01b89528801610510565b03925af180156102de57908a916102ca575b5050303b156101d35788956102a5938851998a978897633b0f168560e21b89528801610585565b038183305af19081156100cd57506102ba5750f35b6102c390610382565b6100ca5780f35b6102d390610382565b6101d357883861027e565b88513d8c823e3d90fd5b808484346100da576102f936610414565b90889594969397929854986103108a60070b6104a2565b67ffffffffffffffff199a8b1667ffffffffffffffff9182161788559998303b1561037e576103509451988997889763213e0e5b60e11b89528801610585565b038183305af161036b575b508254916101b28360070b6104a2565b61037790939193610382565b918361035b565b8780fd5b67ffffffffffffffff811161039657604052565b634e487b7160e01b600052604160045260246000fd5b81601f8201121561040f5780359067ffffffffffffffff928383116103965760405193601f8401601f19908116603f0116850190811185821017610396576040528284526020838301011161040f57816000926020809301838601378301015290565b600080fd5b60c060031982011261040f576004356001600160a01b038116810361040f579167ffffffffffffffff60243581811161040f5783610454916004016103ac565b9260443582811161040f578161046c916004016103ac565b9260643583811161040f5782610484916004016103ac565b926084359260a43591821161040f5761049f916004016103ac565b90565b60070b677fffffffffffffff81146104ba5760010190565b634e487b7160e01b600052601160045260246000fd5b919082519283825260005b8481106104fc575050826000602080949584010152601f8019910116010190565b6020818301810151848301820152016104db565b969590610100946105536105749561054560019996610561958b8060a01b03168d5260208d61012091829101528d01906104d0565b908b820360408d01526104d0565b9089820360608b01526104d0565b91608088015286820360a08801526104d0565b938260c08201528260e08201520152565b926105c0906105b26105ce9461049f99979460018060a01b0316875260c0602088015260c08701906104d0565b9085820360408701526104d0565b9083820360608501526104d0565b92608082015260a08184039101526104d056fea264697066735822122034839481f88e1aff801b78902159f4d7ed1d3d669e8c0e715a2b7bb7448bcfc464736f6c63430008140033",
  "linkReferences": {},
  "deployedLinkReferences": {}
}