{
  "_format": "hh-sol-artifact-1",
  "contractName": "Reverter",
  "sourceName": "solidity/precompiles/testutil/contracts/Reverter.sol",
  "abi": [
    {
      "inputs": [],
      "stateMutability": "payable",
      "type": "constructor"
    },
    {
      "inputs": [],
      "name": "run",
      "outputs": [],
      "stateMutability": "nonpayable",
      "type": "function"
    },
    {
      "inputs": [
        {
          "internalType": "bytes32",
          "name": "salt",
          "type": "bytes32"
        },
        {
          "internalType": "uint256",
          "name": "v",
          "type": "uint256"
        }
      ],
      "name": "transferFunds",
      "outputs": [],
      "stateMutability": "nonpayable",
      "type": "function"
    },
    {
      "stateMutability": "payable",
      "type": "receive"
    }
  ],
  "bytecode": "0x6080806040526000805561064b90816100168239f3fe6080604090808252600480361015610022575b505050361561002057600080fd5b005b600091823560e01c90816379388e94146101c3575063c04062260361001257346101bf57816003193601126101bf5761005b8254610383565b80835547303b156101bb57845191631e4e23a560e21b8352838301526024820152828160448183305af190816101a8575b506101a05781549260a881516100a560208301826103d1565b818152602081019161056e83396100da6020845180936100cd83830196879251928391610409565b81010380845201826103d1565b51902091815192602084019560ff60f81b87523060601b6021860152603585015260558401526055835260808301928084106001600160401b0385111761018b5783835251909420929384936001600160a01b0316803b1561018757849184838193633ccfd60b60e01b83525af190811561017e5750610167575b50505b6101628154610383565b815580f35b610170906103a8565b61017b578038610155565b80fd5b513d84823e3d90fd5b8480fd5b604182634e487b7160e01b6000525260246000fd5b509050610158565b6101b4909391936103a8565b913861008c565b8380fd5b5080fd5b92939050346101bb57806003193601126101bb5760a8908184016001600160401b0392858210848311176103705761056e86396024948085359203908635f515610367578051630a97c34560e31b8152308482015293858582816108015afa801561035d57610230578580fd5b3d8087873e61023f81876103d1565b85019382868603126103595785518481116103555786019185601f840112156103555782519161026e836103f2565b9461027b815196876103d1565b8386526020808097019460051b8601019488861161035157868101945b8686106102c457505050505050508301519081116101bb576102ba9201610485565b5038808080808580fd5b855189811161034d5782019083601f19838d03011261034d578351908482018281108c82111761033b578552898301518b8111610337578c8b6103099286010161042c565b825284830151918b8311610337576103288d8c80969581960101610485565b83820152815201950194610298565b8e80fd5b634e487b7160e01b8f5260418752878ffd5b8c80fd5b8a80fd5b8780fd5b8680fd5b82513d88823e3d90fd5b513d85823e3d90fd5b634e487b7160e01b875260418552602487fd5b60001981146103925760010190565b634e487b7160e01b600052601160045260246000fd5b6001600160401b0381116103bb57604052565b634e487b7160e01b600052604160045260246000fd5b90601f801991011681019081106001600160401b038211176103bb57604052565b6001600160401b0381116103bb5760051b60200190565b60005b83811061041c5750506000910152565b818101518382015260200161040c565b81601f820112156104805780516001600160401b0381116103bb576040519261045f601f8301601f1916602001856103d1565b818452602082840101116104805761047d9160208085019101610409565b90565b600080fd5b9080601f830112156104805781519161049d836103f2565b926040906104ad825195866103d1565b808552602093848087019260051b8501019381851161048057858101925b8584106104dc575050505050505090565b8351906001600160401b039182811161048057830160609081601f19828803011261048057875193828501858110828211176105585789528a82015190811161048057868b61052d9284010161042c565b8452878101518a85015201519060ff82168203610480578289939288859401528152019301926104cb565b60246000634e487b7160e01b81526041600452fdfe608080604052609790816100118239f3fe60806040526004361015601157600080fd5b6000803560e01c633ccfd60b14602657600080fd5b34605e5780600319360112605e5780808080478181156056575b3390f115604a5780f35b604051903d90823e3d90fd5b506108fc6040565b80fdfea2646970667358221220a84d47d16d94667ccf1fa2c5806581649184eaca8c39fac14a893453228a441064736f6c63430008140033a2646970667358221220752c4206a3f71a423553a97c473d9ee307c1e6c5b9df4acdbe3bbcc8736c257664736f6c63430008140033",
  "linkReferences": {},
  "deployedLinkReferences": {}
}