{
  "_format": "hh-sol-artifact-1",
  "contractName": "StakingReverter",
  "sourceName": "solidity/precompiles/testutil/contracts/StakingReverter.sol",
  "abi": [
    {
      "inputs": [],
      "stateMutability": "payable",
      "type": "constructor"
    },
    {
      "inputs": [
        {
          "internalType": "uint256",
          "name": "numTimes",
          "type": "uint256"
        },
        {
          "internalType": "string",
          "name": "validatorAddress",
          "type": "string"
        }
      ],
      "name": "callPrecompileBeforeAndAfterRevert",
      "outputs": [],
      "stateMutability": "nonpayable",
      "type": "function"
    },
    {
      "inputs": [
        {
          "internalType": "string",
          "name": "validatorAddress",
          "type": "string"
        }
      ],
      "name": "getCurrentStake",
      "outputs": [
        {
          "internalType": "uint256",
          "name": "shares",
          "type": "uint256"
        },
        {
          "components": [
            {
              "internalType": "string",
              "name": "denom",
              "type": "string"
            },
            {
              "internalType": "uint256",
              "name": "amount",
              "type": "uint256"
            }
          ],
          "internalType": "struct Coin",
          "name": "balance",
          "type": "tuple"
        }
      ],
      "stateMutability": "view",
      "type": "function"
    },
    {
      "inputs": [
        {
          "internalType": "uint256",
          "name": "numTimes",
          "type": "uint256"
        },
        {
          "internalType": "string",
          "name": "validatorAddress",
          "type": "string"
        }
      ],
      "name": "multipleDelegations",
      "outputs": [],
      "stateMutability": "nonpayable",
      "type": "function"
    },
    {
      "inputs": [
        {
          "internalType": "uint256",
          "name": "numTimes",
          "type": "uint256"
        },
        {
          "internalType": "address",
          "name": "validatorAddress",
          "type": "address"
        }
      ],
      "name": "multipleQueries",
      "outputs": [
        {
          "components": [
            {
              "internalType": "string",
              "name": "operatorAddress",
              "type": "string"
            },
            {
              "internalType": "string",
              "name": "consensusPubkey",
              "type": "string"
            },
            {
              "internalType": "bool",
              "name": "jailed",
              "type": "bool"
            },
            {
              "internalType": "enum BondStatus",
              "name": "status",
              "type": "uint8"
            },
            {
              "internalType": "uint256",
              "name": "tokens",
              "type": "uint256"
            },
            {
              "internalType": "uint256",
              "name": "delegatorShares",
              "type": "uint256"
            },
            {
              "internalType": "string",
              "name": "description",
              "type": "string"
            },
            {
              "internalType": "int64",
              "name": "unbondingHeight",
              "type": "int64"
            },
            {
              "internalType": "int64",
              "name": "unbondingTime",
              "type": "int64"
            },
            {
              "internalType": "uint256",
              "name": "commission",
              "type": "uint256"
            },
            {
              "internalType": "uint256",
              "name": "minSelfDelegation",
              "type": "uint256"
            }
          ],
          "internalType": "struct Validator",
          "name": "validator",
          "type": "tuple"
        }
      ],
      "stateMutability": "view",
      "type": "function"
    },
    {
      "inputs": [
        {
          "internalType": "uint256",
          "name": "outerTimes",
          "type": "uint256"
        },
        {
          "internalType": "uint256",
          "name": "innerTimes",
          "type": "uint256"
        },
        {
          "internalType": "string",
          "name": "validatorAddress",
          "type": "string"
        }
      ],
      "name": "nestedTryCatchDelegations",
      "outputs": [],
      "stateMutability": "nonpayable",
      "type": "function"
    },
    {
      "inputs": [
        {
          "internalType": "string",
          "name": "validatorAddress",
          "type": "string"
        }
      ],
      "name": "performDelegation",
      "outputs": [],
      "stateMutability": "nonpayable",
      "type": "function"
    },
    {
      "inputs": [
        {
          "internalType": "uint256",
          "name": "numTimes",
          "type": "uint256"
        },
        {
          "internalType": "string",
          "name": "validatorAddress",
          "type": "string"
        }
      ],
      "name": "run",
      "outputs": [],
      "stateMutability": "nonpayable",
      "type": "function"
    }
  ],
  "bytecode": "0x60806040526000805561150f806100176000396000f3fe608060405234801561001057600080fd5b506004361061007d5760003560e01c8063668f452b1161005b578063668f452b146100d6578063922a4b6714610107578063cbc367d414610123578063f66013d7146101535761007d565b80634d9db92b146100825780634e5a8fe51461009e57806352fce7b1146100ba575b600080fd5b61009c60048036038101906100979190610a0e565b61016f565b005b6100b860048036038101906100b39190610a82565b61041c565b005b6100d460048036038101906100cf9190610a82565b6104be565b005b6100f060048036038101906100eb9190610ae2565b610566565b6040516100fe929190610c1a565b60405180910390f35b610121600480360381019061011c9190610a82565b610600565b005b61013d60048036038101906101389190610ca8565b610797565b60405161014a9190610e93565b60405180910390f35b61016d60048036038101906101689190610ae2565b610847565b005b61080073ffffffffffffffffffffffffffffffffffffffff166353266bbb308484600a6040518563ffffffff1660e01b81526004016101b19493929190610f56565b6020604051808303816000875af11580156101d0573d6000803e3d6000fd5b505050506040513d601f19601f820116820180604052508101906101f49190610fc2565b5060005b8481101561038f573073ffffffffffffffffffffffffffffffffffffffff1663f66013d784846040518363ffffffff1660e01b815260040161023b929190610fef565b600060405180830381600087803b15801561025557600080fd5b505af1925050508015610266575060015b61037b5761080073ffffffffffffffffffffffffffffffffffffffff166353266bbb308585600a6040518563ffffffff1660e01b81526004016102ac9493929190610f56565b6020604051808303816000875af11580156102cb573d6000803e3d6000fd5b505050506040513d601f19601f820116820180604052508101906102ef9190610fc2565b5060005b84811015610375573073ffffffffffffffffffffffffffffffffffffffff1663f66013d785856040518363ffffffff1660e01b8152600401610336929190610fef565b600060405180830381600087803b15801561035057600080fd5b505af1925050508015610361575060015b50808061036d90611042565b9150506102f3565b5061037c565b5b808061038790611042565b9150506101f8565b5061080073ffffffffffffffffffffffffffffffffffffffff166353266bbb308484600a6040518563ffffffff1660e01b81526004016103d29493929190610f56565b6020604051808303816000875af11580156103f1573d6000803e3d6000fd5b505050506040513d601f19601f820116820180604052508101906104159190610fc2565b5050505050565b60008081548092919061042e90611042565b919050555060005b838110156104b8573073ffffffffffffffffffffffffffffffffffffffff1663f66013d784846040518363ffffffff1660e01b8152600401610479929190610fef565b600060405180830381600087803b15801561049357600080fd5b505af19250505080156104a4575060015b5080806104b090611042565b915050610436565b50505050565b6000808154809291906104d090611042565b919050555060005b83811015610560573073ffffffffffffffffffffffffffffffffffffffff1663f66013d784846040518363ffffffff1660e01b815260040161051b929190610fef565b600060405180830381600087803b15801561053557600080fd5b505af1158015610549573d6000803e3d6000fd5b50505050808061055890611042565b9150506104d8565b50505050565b60006105706108d1565b61080073ffffffffffffffffffffffffffffffffffffffff1663241774e63086866040518463ffffffff1660e01b81526004016105af9392919061108a565b600060405180830381865afa1580156105cc573d6000803e3d6000fd5b505050506040513d6000823e3d601f19601f820116820180604052508101906105f59190611268565b915091509250929050565b61080073ffffffffffffffffffffffffffffffffffffffff166353266bbb308484600a6040518563ffffffff1660e01b81526004016106429493929190610f56565b6020604051808303816000875af1158015610661573d6000803e3d6000fd5b505050506040513d601f19601f820116820180604052508101906106859190610fc2565b5060005b8381101561070b573073ffffffffffffffffffffffffffffffffffffffff1663f66013d784846040518363ffffffff1660e01b81526004016106cc929190610fef565b600060405180830381600087803b1580156106e657600080fd5b505af19250505080156106f7575060015b50808061070390611042565b915050610689565b5061080073ffffffffffffffffffffffffffffffffffffffff166353266bbb308484600a6040518563ffffffff1660e01b815260040161074e9493929190610f56565b6020604051808303816000875af115801561076d573d6000803e3d6000fd5b505050506040513d601f19601f820116820180604052508101906107919190610fc2565b50505050565b61079f6108eb565b60005b838110156108405761080073ffffffffffffffffffffffffffffffffffffffff1663223b3b7a846040518263ffffffff1660e01b81526004016107e591906112c4565b600060405180830381865afa158015610802573d6000803e3d6000fd5b505050506040513d6000823e3d601f19601f8201168201806040525081019061082b9190611490565b9150808061083890611042565b9150506107a2565b5092915050565b61080073ffffffffffffffffffffffffffffffffffffffff166353266bbb308484600a6040518563ffffffff1660e01b81526004016108899493929190610f56565b6020604051808303816000875af11580156108a8573d6000803e3d6000fd5b505050506040513d601f19601f820116820180604052508101906108cc9190610fc2565b600080fd5b604051806040016040528060608152602001600081525090565b60405180610160016040528060608152602001606081526020016000151581526020016000600381111561092257610921610d03565b5b8152602001600081526020016000815260200160608152602001600060070b8152602001600060070b815260200160008152602001600081525090565b6000604051905090565b600080fd5b600080fd5b6000819050919050565b61098681610973565b811461099157600080fd5b50565b6000813590506109a38161097d565b92915050565b600080fd5b600080fd5b600080fd5b60008083601f8401126109ce576109cd6109a9565b5b8235905067ffffffffffffffff8111156109eb576109ea6109ae565b5b602083019150836001820283011115610a0757610a066109b3565b5b9250929050565b60008060008060608587031215610a2857610a27610969565b5b6000610a3687828801610994565b9450506020610a4787828801610994565b935050604085013567ffffffffffffffff811115610a6857610a6761096e565b5b610a74878288016109b8565b925092505092959194509250565b600080600060408486031215610a9b57610a9a610969565b5b6000610aa986828701610994565b935050602084013567ffffffffffffffff811115610aca57610ac961096e565b5b610ad6868287016109b8565b92509250509250925092565b60008060208385031215610af957610af8610969565b5b600083013567ffffffffffffffff811115610b1757610b1661096e565b5b610b23858286016109b8565b92509250509250929050565b610b3881610973565b82525050565b600081519050919050565b600082825260208201905092915050565b60005b83811015610b78578082015181840152602081019050610b5d565b60008484015250505050565b6000601f19601f8301169050919050565b6000610ba082610b3e565b610baa8185610b49565b9350610bba818560208601610b5a565b610bc381610b84565b840191505092915050565b610bd781610973565b82525050565b60006040830160008301518482036000860152610bfa8282610b95565b9150506020830151610c0f6020860182610bce565b508091505092915050565b6000604082019050610c2f6000830185610b2f565b8181036020830152610c418184610bdd565b90509392505050565b600073ffffffffffffffffffffffffffffffffffffffff82169050919050565b6000610c7582610c4a565b9050919050565b610c8581610c6a565b8114610c9057600080fd5b50565b600081359050610ca281610c7c565b92915050565b60008060408385031215610cbf57610cbe610969565b5b6000610ccd85828601610994565b9250506020610cde85828601610c93565b9150509250929050565b60008115159050919050565b610cfd81610ce8565b82525050565b7f4e487b7100000000000000000000000000000000000000000000000000000000600052602160045260246000fd5b60048110610d4357610d42610d03565b5b50565b6000819050610d5482610d32565b919050565b6000610d6482610d46565b9050919050565b610d7481610d59565b82525050565b60008160070b9050919050565b610d9081610d7a565b82525050565b6000610160830160008301518482036000860152610db48282610b95565b91505060208301518482036020860152610dce8282610b95565b9150506040830151610de36040860182610cf4565b506060830151610df66060860182610d6b565b506080830151610e096080860182610bce565b5060a0830151610e1c60a0860182610bce565b5060c083015184820360c0860152610e348282610b95565b91505060e0830151610e4960e0860182610d87565b50610100830151610e5e610100860182610d87565b50610120830151610e73610120860182610bce565b50610140830151610e88610140860182610bce565b508091505092915050565b60006020820190508181036000830152610ead8184610d96565b905092915050565b610ebe81610c6a565b82525050565b600082825260208201905092915050565b82818337600083830152505050565b6000610ef08385610ec4565b9350610efd838584610ed5565b610f0683610b84565b840190509392505050565b6000819050919050565b6000819050919050565b6000610f40610f3b610f3684610f11565b610f1b565b610973565b9050919050565b610f5081610f25565b82525050565b6000606082019050610f6b6000830187610eb5565b8181036020830152610f7e818587610ee4565b9050610f8d6040830184610f47565b95945050505050565b610f9f81610ce8565b8114610faa57600080fd5b50565b600081519050610fbc81610f96565b92915050565b600060208284031215610fd857610fd7610969565b5b6000610fe684828501610fad565b91505092915050565b6000602082019050818103600083015261100a818486610ee4565b90509392505050565b7f4e487b7100000000000000000000000000000000000000000000000000000000600052601160045260246000fd5b600061104d82610973565b91507fffffffffffffffffffffffffffffffffffffffffffffffffffffffffffffffff820361107f5761107e611013565b5b600182019050919050565b600060408201905061109f6000830186610eb5565b81810360208301526110b2818486610ee4565b9050949350505050565b6000815190506110cb8161097d565b92915050565b600080fd5b7f4e487b7100000000000000000000000000000000000000000000000000000000600052604160045260246000fd5b61110e82610b84565b810181811067ffffffffffffffff8211171561112d5761112c6110d6565b5b80604052505050565b600061114061095f565b905061114c8282611105565b919050565b600080fd5b600080fd5b600067ffffffffffffffff821115611176576111756110d6565b5b61117f82610b84565b9050602081019050919050565b600061119f61119a8461115b565b611136565b9050828152602081018484840111156111bb576111ba611156565b5b6111c6848285610b5a565b509392505050565b600082601f8301126111e3576111e26109a9565b5b81516111f384826020860161118c565b91505092915050565b600060408284031215611212576112116110d1565b5b61121c6040611136565b9050600082015167ffffffffffffffff81111561123c5761123b611151565b5b611248848285016111ce565b600083015250602061125c848285016110bc565b60208301525092915050565b6000806040838503121561127f5761127e610969565b5b600061128d858286016110bc565b925050602083015167ffffffffffffffff8111156112ae576112ad61096e565b5b6112ba858286016111fc565b9150509250929050565b60006020820190506112d96000830184610eb5565b92915050565b600481106112ec57600080fd5b50565b6000815190506112fe816112df565b92915050565b61130d81610d7a565b811461131857600080fd5b50565b60008151905061132a81611304565b92915050565b60006101608284031215611347576113466110d1565b5b611352610160611136565b9050600082015167ffffffffffffffff81111561137257611371611151565b5b61137e848285016111ce565b600083015250602082015167ffffffffffffffff8111156113a2576113a1611151565b5b6113ae848285016111ce565b60208301525060406113c284828501610fad565b60408301525060606113d6848285016112ef565b60608301525060806113ea848285016110bc565b60808301525060a06113fe848285016110bc565b60a08301525060c082015167ffffffffffffffff81111561142257611421611151565b5b61142e848285016111ce565b60c08301525060e06114428482850161131b565b60e0830152506101006114578482850161131b565b6101008301525061012061146d848285016110bc565b61012083015250610140611483848285016110bc565b6101408301525092915050565b6000602082840312156114a6576114a5610969565b5b600082015167ffffffffffffffff8111156114c4576114c361096e565b5b6114d084828501611330565b9150509291505056fea2646970667358221220909639086b03bb38b32aaba32e58073b8f74fe67a6fa3e21df62be2b2faddaed64736f6c63430008140033",
  "linkReferences": {},
  "deployedLinkReferences": {}
}