{
  "_format": "hh-sol-artifact-1",
  "contractName": "StakingReverter",
  "sourceName": "solidity/precompiles/testutil/contracts/StakingReverter.sol",
  "abi": [
    {
      "inputs": [],
      "stateMutability": "payable",
      "type": "constructor"
    },
    {
      "inputs": [
        {
          "internalType": "uint256",
          "name": "numTimes",
          "type": "uint256"
        },
        {
          "internalType": "string",
          "name": "validatorAddress",
          "type": "string"
        }
      ],
      "name": "callPrecompileBeforeAndAfterRevert",
      "outputs": [],
      "stateMutability": "nonpayable",
      "type": "function"
    },
    {
      "inputs": [
        {
          "internalType": "string",
          "name": "validatorAddress",
          "type": "string"
        }
      ],
      "name": "getCurrentStake",
      "outputs": [
        {
          "internalType": "uint256",
          "name": "shares",
          "type": "uint256"
        },
        {
          "components": [
            {
              "internalType": "string",
              "name": "denom",
              "type": "string"
            },
            {
              "internalType": "uint256",
              "name": "amount",
              "type": "uint256"
            }
          ],
          "internalType": "struct Coin",
          "name": "balance",
          "type": "tuple"
        }
      ],
      "stateMutability": "view",
      "type": "function"
    },
    {
      "inputs": [
        {
          "internalType": "uint256",
          "name": "numTimes",
          "type": "uint256"
        },
        {
          "internalType": "string",
          "name": "validatorAddress",
          "type": "string"
        }
      ],
      "name": "multipleDelegations",
      "outputs": [],
      "stateMutability": "nonpayable",
      "type": "function"
    },
    {
      "inputs": [
        {
          "internalType": "uint256",
          "name": "numTimes",
          "type": "uint256"
        },
        {
          "internalType": "address",
          "name": "validatorAddress",
          "type": "address"
        }
      ],
      "name": "multipleQueries",
      "outputs": [
        {
          "components": [
            {
              "internalType": "string",
              "name": "operatorAddress",
              "type": "string"
            },
            {
              "internalType": "string",
              "name": "consensusPubkey",
              "type": "string"
            },
            {
              "internalType": "bool",
              "name": "jailed",
              "type": "bool"
            },
            {
              "internalType": "enum BondStatus",
              "name": "status",
              "type": "uint8"
            },
            {
              "internalType": "uint256",
              "name": "tokens",
              "type": "uint256"
            },
            {
              "internalType": "uint256",
              "name": "delegatorShares",
              "type": "uint256"
            },
            {
              "components": [
                {
                  "internalType": "string",
                  "name": "moniker",
                  "type": "string"
                },
                {
                  "internalType": "string",
                  "name": "identity",
                  "type": "string"
                },
                {
                  "internalType": "string",
                  "name": "website",
                  "type": "string"
                },
                {
                  "internalType": "string",
                  "name": "securityContact",
                  "type": "string"
                },
                {
                  "internalType": "string",
                  "name": "details",
                  "type": "string"
                }
              ],
              "internalType": "struct Description",
              "name": "description",
              "type": "tuple"
            },
            {
              "internalType": "int64",
              "name": "unbondingHeight",
              "type": "int64"
            },
            {
              "internalType": "int64",
              "name": "unbondingTime",
              "type": "int64"
            },
            {
              "internalType": "uint256",
              "name": "commission",
              "type": "uint256"
            },
            {
              "internalType": "uint256",
              "name": "minSelfDelegation",
              "type": "uint256"
            }
          ],
          "internalType": "struct Validator",
          "name": "validator",
          "type": "tuple"
        }
      ],
      "stateMutability": "view",
      "type": "function"
    },
    {
      "inputs": [
        {
          "internalType": "uint256",
          "name": "outerTimes",
          "type": "uint256"
        },
        {
          "internalType": "uint256",
          "name": "innerTimes",
          "type": "uint256"
        },
        {
          "internalType": "string",
          "name": "validatorAddress",
          "type": "string"
        }
      ],
      "name": "nestedTryCatchDelegations",
      "outputs": [],
      "stateMutability": "nonpayable",
      "type": "function"
    },
    {
      "inputs": [
        {
          "internalType": "string",
          "name": "validatorAddress",
          "type": "string"
        }
      ],
      "name": "performDelegation",
      "outputs": [],
      "stateMutability": "nonpayable",
      "type": "function"
    },
    {
      "inputs": [
        {
          "internalType": "uint256",
          "name": "numTimes",
          "type": "uint256"
        },
        {
          "internalType": "string",
          "name": "validatorAddress",
          "type": "string"
        }
      ],
      "name": "run",
      "outputs": [],
      "stateMutability": "nonpayable",
      "type": "function"
    }
  ],
  "bytecode": "0x60808060405260008055610db890816100168239f3fe608080604052600436101561001357600080fd5b60003560e01c9081634d9db92b14610938575080634e5a8fe5146108c757806352fce7b11461083f578063668f452b14610714578063922a4b671461059c578063cbc367d41461012b5763f66013d71461006c57600080fd5b34610112576020366003190112610112576004356001600160401b0381116101125760206100a16100ca923690600401610b89565b6040516353266bbb60e01b81523060048201526060602482015293849283926064840191610cf2565b600a6044830152038160006108005af1801561011f576100e957600080fd5b6020813d8211610117575b8161010160209383610cd1565b810103126101125761011290610d13565b600080fd5b3d91506100f4565b6040513d6000823e3d90fd5b34610112576040366003190112610112576024356001600160a01b03811681036101125760405161015b81610c9a565b6060815260606020820152600060408201526000606082015260006080820152600060a082015260405161018e81610cb6565b6060815260606020820152606060408201526060808201526060608082015260c0820152600060e0820152600061010082015260006101208201526000610140820152906000905b60043582106103185782604051906020825261021961020382516101606020860152610180850190610c0c565b6020830151848203601f19016040860152610c0c565b906040810151151560608401526060810151916004831015610302576102ce6101409185946080860152608084015160a086015260a084015160c086015260c084015190601f198682030160e087015260806102bd6102ab610299610287865160a0875260a0870190610c0c565b60208701518682036020880152610c0c565b60408601518582036040870152610c0c565b60608501518482036060860152610c0c565b920151906080818403910152610c0c565b9160e081015160070b61010085015261010081015160070b6101208501526101208101518285015201516101608301520390f35b634e487b7160e01b600052602160045260246000fd5b60405163111d9dbd60e11b81526001600160a01b0382166004820152919250906000816024816108005afa801561011f57600090610362575b61035c915092610c31565b906101d6565b503d806000833e6103738183610cd1565b6020828281010312610112578151906001600160401b03821161011257610160828401828501031261011257604051916103ac83610c9a565b808401516001600160401b038111610112576103cf908386019083870101610d20565b8352602081850101516001600160401b038111610112576103f7908386019083870101610d20565b602084015261040a604082860101610d13565b60408401526060818501015160048110156101125760608401528381016080818101519085015260a0808201519085015260c00151936001600160401b0385116101125760a0858383010184830103126101125760405161046a81610cb6565b8583830101516001600160401b038111610112576104919085840190888686010101610d20565b81526020868484010101516001600160401b038111610112576104bd9085840190888686010101610d20565b60208201526040868484010101516001600160401b038111610112576104ec9085840190888686010101610d20565b60408201526060868484010101516001600160401b0381116101125761051b9085840190888686010101610d20565b6060820152608086848401010151936001600160401b0385116101125761035c9661014095610551928501918686010101610d20565b608082015260c085015261056960e083830101610d74565b60e085015261057d61010083830101610d74565b6101008501520161012081810151908401520151610140820152610351565b34610112576105aa36610bb6565b91604051916353266bbb60e01b8084523060048501526024916060838601526105d7606486018783610cf2565b93600a604487015260209586818061080098038160008a5af1801561011f576106e0575b5091859391949260005b81811061067c57505060009061063760609596604051998a978896879586523060048701528501526064840191610cf2565b600a604483015203925af1801561011f5761064e57005b81813d8311610675575b6106628183610cd1565b810103126101125761067390610d13565b005b503d610658565b90919395929450303b156101125760405163f66013d760e01b8152600481018890526106c59190600081806106b48a82018e8a610cf2565b038183305af16106d1575b50610c31565b90869492959391610605565b6106da90610c56565b896106bf565b8681813d831161070d575b6106f58183610cd1565b810103126101125761070690610d13565b50876105fb565b503d6106eb565b3461011257602080600319360112610112576004356001600160401b0380821161011257600061074b610788933690600401610b89565b828660405161075981610c7f565b606081520152604051948592839263120bba7360e11b8452306004850152604060248501526044840191610cf2565b03816108005afa90811561011f576000926000926107d2575b505060405192839283526040818401526107c682516040808601526080850190610c0c565b91015160608301520390f35b915091503d806000833e6107e68183610cd1565b81016040828203126101125781519184810151908482116101125701604081830312610112576040519361081985610c7f565b815190811161011257859261082f918301610d20565b84520151838301529083806107a1565b346101125761084d36610bb6565b61085b600093929354610c31565b60005560005b82811061086a57005b303b156101125760405163f66013d760e01b815260206004820152906000828061089860248201878a610cf2565b038183305af191821561011f576108b3926108b85750610c31565b610861565b6108c190610c56565b856106bf565b34610112576108d536610bb6565b91906108e2600054610c31565b60005560005b8281106108f157005b303b156101125760405163f66013d760e01b815260206004820152610933919060008180610923602482018a89610cf2565b038183305af16108b85750610c31565b6108e8565b34610112576060366003190112610112576044356001600160401b03811161011257610968903690600401610b89565b6353266bbb60e01b8352306004840152606060248401529160208180610992606482018787610cf2565b600a6044830152038160006108005af1801561011f57610b50575b5060005b6004358110610a23576040516353266bbb60e01b815230600482015260606024820152602081806109e6606482018888610cf2565b600a6044830152038160006108005af1801561011f57610a0257005b6020813d602011610a1b575b8161066260209383610cd1565b3d9150610a0e565b90303b156101125760405163f66013d760e01b81526020600482015260008180610a51602482018887610cf2565b038183305af19081610b41575b50610b37576040516353266bbb60e01b81523060048201526060602482015260208180610a8f606482018887610cf2565b600a6044830152038160006108005af1801561011f57610afe575b5060005b6024358110610ac7575090610ac290610c31565b6109b1565b303b156101125760405163f66013d760e01b815260206004820152610af9919060008180610923602482018a89610cf2565b610aae565b6020813d602011610b2f575b81610b1760209383610cd1565b8101031261011257610b2890610d13565b5083610aaa565b3d9150610b0a565b90610ac290610c31565b610b4a90610c56565b84610a5e565b6020813d602011610b81575b81610b6960209383610cd1565b8101031261011257610b7a90610d13565b50826109ad565b3d9150610b5c565b9181601f84011215610112578235916001600160401b038311610112576020838186019501011161011257565b9060406003198301126101125760043591602435906001600160401b03821161011257610be591600401610b89565b9091565b60005b838110610bfc5750506000910152565b8181015183820152602001610bec565b90602091610c2581518092818552858086019101610be9565b601f01601f1916010190565b6000198114610c405760010190565b634e487b7160e01b600052601160045260246000fd5b6001600160401b038111610c6957604052565b634e487b7160e01b600052604160045260246000fd5b604081019081106001600160401b03821117610c6957604052565b61016081019081106001600160401b03821117610c6957604052565b60a081019081106001600160401b03821117610c6957604052565b90601f801991011681019081106001600160401b03821117610c6957604052565b908060209392818452848401376000828201840152601f01601f1916010190565b5190811515820361011257565b81601f820112156101125780516001600160401b038111610c695760405192610d53601f8301601f191660200185610cd1565b8184526020828401011161011257610d719160208085019101610be9565b90565b51908160070b82036101125756fea26469706673582212204b99277ce78a90870d2a3dd8b1cfe0c936d27451384c2c734af37693a846925564736f6c63430008140033",
  "linkReferences": {},
  "deployedLinkReferences": {}
}