{
  "_format": "hh-sol-artifact-1",
  "contractName": "ERC20RecursiveNonRevertingPrecompileCall",
  "sourceName": "solidity/ERC20RecursiveNonRevertingPrecompileCall.sol",
  "abi": [
    {
      "inputs": [
        {
          "internalType": "string",
          "name": "name",
          "type": "string"
        },
        {
          "internalType": "string",
          "name": "symbol",
          "type": "string"
        },
        {
          "internalType": "uint8",
          "name": "decimals_",
          "type": "uint8"
        }
      ],
      "stateMutability": "nonpayable",
      "type": "constructor"
    },
    {
      "anonymous": false,
      "inputs": [
        {
          "indexed": true,
          "internalType": "address",
          "name": "owner",
          "type": "address"
        },
        {
          "indexed": true,
          "internalType": "address",
          "name": "spender",
          "type": "address"
        },
        {
          "indexed": false,
          "internalType": "uint256",
          "name": "value",
          "type": "uint256"
        }
      ],
      "name": "Approval",
      "type": "event"
    },
    {
      "anonymous": false,
      "inputs": [
        {
          "indexed": false,
          "internalType": "address",
          "name": "from",
          "type": "address"
        },
        {
          "indexed": false,
          "internalType": "address",
          "name": "to",
          "type": "address"
        },
        {
          "indexed": false,
          "internalType": "uint256",
          "name": "amount",
          "type": "uint256"
        }
      ],
      "name": "BeforeTokenTransferHookCalled",
      "type": "event"
    },
    {
      "anonymous": false,
      "inputs": [
        {
          "indexed": false,
          "internalType": "address",
          "name": "account",
          "type": "address"
        }
      ],
      "name": "Paused",
      "type": "event"
    },
    {
      "anonymous": false,
      "inputs": [
        {
          "indexed": true,
          "internalType": "bytes32",
          "name": "role",
          "type": "bytes32"
        },
        {
          "indexed": true,
          "internalType": "bytes32",
          "name": "previousAdminRole",
          "type": "bytes32"
        },
        {
          "indexed": true,
          "internalType": "bytes32",
          "name": "newAdminRole",
          "type": "bytes32"
        }
      ],
      "name": "RoleAdminChanged",
      "type": "event"
    },
    {
      "anonymous": false,
      "inputs": [
        {
          "indexed": true,
          "internalType": "bytes32",
          "name": "role",
          "type": "bytes32"
        },
        {
          "indexed": true,
          "internalType": "address",
          "name": "account",
          "type": "address"
        },
        {
          "indexed": true,
          "internalType": "address",
          "name": "sender",
          "type": "address"
        }
      ],
      "name": "RoleGranted",
      "type": "event"
    },
    {
      "anonymous": false,
      "inputs": [
        {
          "indexed": true,
          "internalType": "bytes32",
          "name": "role",
          "type": "bytes32"
        },
        {
          "indexed": true,
          "internalType": "address",
          "name": "account",
          "type": "address"
        },
        {
          "indexed": true,
          "internalType": "address",
          "name": "sender",
          "type": "address"
        }
      ],
      "name": "RoleRevoked",
      "type": "event"
    },
    {
      "anonymous": false,
      "inputs": [
        {
          "indexed": true,
          "internalType": "address",
          "name": "from",
          "type": "address"
        },
        {
          "indexed": true,
          "internalType": "address",
          "name": "to",
          "type": "address"
        },
        {
          "indexed": false,
          "internalType": "uint256",
          "name": "value",
          "type": "uint256"
        }
      ],
      "name": "Transfer",
      "type": "event"
    },
    {
      "anonymous": false,
      "inputs": [
        {
          "indexed": false,
          "internalType": "address",
          "name": "account",
          "type": "address"
        }
      ],
      "name": "Unpaused",
      "type": "event"
    },
    {
      "inputs": [],
      "name": "BURNER_ROLE",
      "outputs": [
        {
          "internalType": "bytes32",
          "name": "",
          "type": "bytes32"
        }
      ],
      "stateMutability": "view",
      "type": "function"
    },
    {
      "inputs": [],
      "name": "DEFAULT_ADMIN_ROLE",
      "outputs": [
        {
          "internalType": "bytes32",
          "name": "",
          "type": "bytes32"
        }
      ],
      "stateMutability": "view",
      "type": "function"
    },
    {
      "inputs": [],
      "name": "MINTER_ROLE",
      "outputs": [
        {
          "internalType": "bytes32",
          "name": "",
          "type": "bytes32"
        }
      ],
      "stateMutability": "view",
      "type": "function"
    },
    {
      "inputs": [],
      "name": "PAUSER_ROLE",
      "outputs": [
        {
          "internalType": "bytes32",
          "name": "",
          "type": "bytes32"
        }
      ],
      "stateMutability": "view",
      "type": "function"
    },
    {
      "inputs": [
        {
          "internalType": "address",
          "name": "owner",
          "type": "address"
        },
        {
          "internalType": "address",
          "name": "spender",
          "type": "address"
        }
      ],
      "name": "allowance",
      "outputs": [
        {
          "internalType": "uint256",
          "name": "",
          "type": "uint256"
        }
      ],
      "stateMutability": "view",
      "type": "function"
    },
    {
      "inputs": [
        {
          "internalType": "address",
          "name": "spender",
          "type": "address"
        },
        {
          "internalType": "uint256",
          "name": "amount",
          "type": "uint256"
        }
      ],
      "name": "approve",
      "outputs": [
        {
          "internalType": "bool",
          "name": "",
          "type": "bool"
        }
      ],
      "stateMutability": "nonpayable",
      "type": "function"
    },
    {
      "inputs": [
        {
          "internalType": "address",
          "name": "account",
          "type": "address"
        }
      ],
      "name": "balanceOf",
      "outputs": [
        {
          "internalType": "uint256",
          "name": "",
          "type": "uint256"
        }
      ],
      "stateMutability": "view",
      "type": "function"
    },
    {
      "inputs": [
        {
          "internalType": "uint256",
          "name": "amount",
          "type": "uint256"
        }
      ],
      "name": "burn",
      "outputs": [],
      "stateMutability": "nonpayable",
      "type": "function"
    },
    {
      "inputs": [
        {
          "internalType": "address",
          "name": "from",
          "type": "address"
        },
        {
          "internalType": "uint256",
          "name": "amount",
          "type": "uint256"
        }
      ],
      "name": "burnCoins",
      "outputs": [],
      "stateMutability": "nonpayable",
      "type": "function"
    },
    {
      "inputs": [
        {
          "internalType": "address",
          "name": "account",
          "type": "address"
        },
        {
          "internalType": "uint256",
          "name": "amount",
          "type": "uint256"
        }
      ],
      "name": "burnFrom",
      "outputs": [],
      "stateMutability": "nonpayable",
      "type": "function"
    },
    {
      "inputs": [],
      "name": "claimRewards",
      "outputs": [],
      "stateMutability": "nonpayable",
      "type": "function"
    },
    {
      "inputs": [],
      "name": "decimals",
      "outputs": [
        {
          "internalType": "uint8",
          "name": "",
          "type": "uint8"
        }
      ],
      "stateMutability": "view",
      "type": "function"
    },
    {
      "inputs": [
        {
          "internalType": "address",
          "name": "spender",
          "type": "address"
        },
        {
          "internalType": "uint256",
          "name": "subtractedValue",
          "type": "uint256"
        }
      ],
      "name": "decreaseAllowance",
      "outputs": [
        {
          "internalType": "bool",
          "name": "",
          "type": "bool"
        }
      ],
      "stateMutability": "nonpayable",
      "type": "function"
    },
    {
      "inputs": [
        {
          "internalType": "string",
          "name": "validatorAddress",
          "type": "string"
        },
        {
          "internalType": "uint256",
          "name": "amount",
          "type": "uint256"
        }
      ],
      "name": "delegate",
      "outputs": [],
      "stateMutability": "nonpayable",
      "type": "function"
    },
    {
      "inputs": [
        {
          "internalType": "bytes32",
          "name": "role",
          "type": "bytes32"
        }
      ],
      "name": "getRoleAdmin",
      "outputs": [
        {
          "internalType": "bytes32",
          "name": "",
          "type": "bytes32"
        }
      ],
      "stateMutability": "view",
      "type": "function"
    },
    {
      "inputs": [
        {
          "internalType": "bytes32",
          "name": "role",
          "type": "bytes32"
        },
        {
          "internalType": "uint256",
          "name": "index",
          "type": "uint256"
        }
      ],
      "name": "getRoleMember",
      "outputs": [
        {
          "internalType": "address",
          "name": "",
          "type": "address"
        }
      ],
      "stateMutability": "view",
      "type": "function"
    },
    {
      "inputs": [
        {
          "internalType": "bytes32",
          "name": "role",
          "type": "bytes32"
        }
      ],
      "name": "getRoleMemberCount",
      "outputs": [
        {
          "internalType": "uint256",
          "name": "",
          "type": "uint256"
        }
      ],
      "stateMutability": "view",
      "type": "function"
    },
    {
      "inputs": [
        {
          "internalType": "bytes32",
          "name": "role",
          "type": "bytes32"
        },
        {
          "internalType": "address",
          "name": "account",
          "type": "address"
        }
      ],
      "name": "grantRole",
      "outputs": [],
      "stateMutability": "nonpayable",
      "type": "function"
    },
    {
      "inputs": [
        {
          "internalType": "bytes32",
          "name": "role",
          "type": "bytes32"
        },
        {
          "internalType": "address",
          "name": "account",
          "type": "address"
        }
      ],
      "name": "hasRole",
      "outputs": [
        {
          "internalType": "bool",
          "name": "",
          "type": "bool"
        }
      ],
      "stateMutability": "view",
      "type": "function"
    },
    {
      "inputs": [
        {
          "internalType": "address",
          "name": "spender",
          "type": "address"
        },
        {
          "internalType": "uint256",
          "name": "addedValue",
          "type": "uint256"
        }
      ],
      "name": "increaseAllowance",
      "outputs": [
        {
          "internalType": "bool",
          "name": "",
          "type": "bool"
        }
      ],
      "stateMutability": "nonpayable",
      "type": "function"
    },
    {
      "inputs": [
        {
          "internalType": "address",
          "name": "to",
          "type": "address"
        },
        {
          "internalType": "uint256",
          "name": "amount",
          "type": "uint256"
        }
      ],
      "name": "mint",
      "outputs": [],
      "stateMutability": "nonpayable",
      "type": "function"
    },
    {
      "inputs": [],
      "name": "name",
      "outputs": [
        {
          "internalType": "string",
          "name": "",
          "type": "string"
        }
      ],
      "stateMutability": "view",
      "type": "function"
    },
    {
      "inputs": [],
      "name": "pause",
      "outputs": [],
      "stateMutability": "nonpayable",
      "type": "function"
    },
    {
      "inputs": [],
      "name": "paused",
      "outputs": [
        {
          "internalType": "bool",
          "name": "",
          "type": "bool"
        }
      ],
      "stateMutability": "view",
      "type": "function"
    },
    {
      "inputs": [
        {
          "internalType": "bytes32",
          "name": "role",
          "type": "bytes32"
        },
        {
          "internalType": "address",
          "name": "account",
          "type": "address"
        }
      ],
      "name": "renounceRole",
      "outputs": [],
      "stateMutability": "nonpayable",
      "type": "function"
    },
    {
      "inputs": [
        {
          "internalType": "bytes32",
          "name": "role",
          "type": "bytes32"
        },
        {
          "internalType": "address",
          "name": "account",
          "type": "address"
        }
      ],
      "name": "revokeRole",
      "outputs": [],
      "stateMutability": "nonpayable",
      "type": "function"
    },
    {
      "inputs": [
        {
          "internalType": "bytes4",
          "name": "interfaceId",
          "type": "bytes4"
        }
      ],
      "name": "supportsInterface",
      "outputs": [
        {
          "internalType": "bool",
          "name": "",
          "type": "bool"
        }
      ],
      "stateMutability": "view",
      "type": "function"
    },
    {
      "inputs": [],
      "name": "symbol",
      "outputs": [
        {
          "internalType": "string",
          "name": "",
          "type": "string"
        }
      ],
      "stateMutability": "view",
      "type": "function"
    },
    {
      "inputs": [],
      "name": "totalSupply",
      "outputs": [
        {
          "internalType": "uint256",
          "name": "",
          "type": "uint256"
        }
      ],
      "stateMutability": "view",
      "type": "function"
    },
    {
      "inputs": [
        {
          "internalType": "address",
          "name": "to",
          "type": "address"
        },
        {
          "internalType": "uint256",
          "name": "amount",
          "type": "uint256"
        }
      ],
      "name": "transfer",
      "outputs": [
        {
          "internalType": "bool",
          "name": "",
          "type": "bool"
        }
      ],
      "stateMutability": "nonpayable",
      "type": "function"
    },
    {
      "inputs": [
        {
          "internalType": "address",
          "name": "from",
          "type": "address"
        },
        {
          "internalType": "address",
          "name": "to",
          "type": "address"
        },
        {
          "internalType": "uint256",
          "name": "amount",
          "type": "uint256"
        }
      ],
      "name": "transferFrom",
      "outputs": [
        {
          "internalType": "bool",
          "name": "",
          "type": "bool"
        }
      ],
      "stateMutability": "nonpayable",
      "type": "function"
    },
    {
      "inputs": [],
      "name": "unpause",
      "outputs": [],
      "stateMutability": "nonpayable",
      "type": "function"
    }
  ],
  "bytecode": "0x60806040523480156200001157600080fd5b50604051620041d1380380620041d18339818101604052810190620000379190620005e0565b828281600590816200004a9190620008c5565b5080600690816200005c9190620008c5565b5050506000600760006101000a81548160ff0219169083151502179055506200009e6000801b620000926200017b60201b60201c565b6200018360201b60201c565b620000df7f9f2df0fed2c77648de5860a4cc508cd0818c85b8b8a1ab4ceeef8d981c8956a6620000d36200017b60201b60201c565b6200018360201b60201c565b620001207f65d7a28e3265b37a6474929f336521b332c1681b933f6cb9f3376673440d862a620001146200017b60201b60201c565b6200018360201b60201c565b620001617f3c11d16cbaffd01df69ce1c404f6340ee057498f5f00246190ea54220576a848620001556200017b60201b60201c565b6200018360201b60201c565b6200017281620001c160201b60201c565b505050620009ac565b600033905090565b620001958282620001df60201b60201c565b620001bc8160016000858152602001908152602001600020620002d060201b90919060201c565b505050565b80600760016101000a81548160ff021916908360ff16021790555050565b620001f182826200030860201b60201c565b620002cc57600160008084815260200190815260200160002060000160008373ffffffffffffffffffffffffffffffffffffffff1673ffffffffffffffffffffffffffffffffffffffff16815260200190815260200160002060006101000a81548160ff021916908315150217905550620002716200017b60201b60201c565b73ffffffffffffffffffffffffffffffffffffffff168173ffffffffffffffffffffffffffffffffffffffff16837f2f8788117e7eff1d82e926ec794901d17c78024a50270940304540a733656f0d60405160405180910390a45b5050565b600062000300836000018373ffffffffffffffffffffffffffffffffffffffff1660001b6200037260201b60201c565b905092915050565b600080600084815260200190815260200160002060000160008373ffffffffffffffffffffffffffffffffffffffff1673ffffffffffffffffffffffffffffffffffffffff16815260200190815260200160002060009054906101000a900460ff16905092915050565b6000620003868383620003ec60201b60201c565b620003e1578260000182908060018154018082558091505060019003906000526020600020016000909190919091505582600001805490508360010160008481526020019081526020016000208190555060019050620003e6565b600090505b92915050565b600080836001016000848152602001908152602001600020541415905092915050565b6000604051905090565b600080fd5b600080fd5b600080fd5b600080fd5b6000601f19601f8301169050919050565b7f4e487b7100000000000000000000000000000000000000000000000000000000600052604160045260246000fd5b62000478826200042d565b810181811067ffffffffffffffff821117156200049a57620004996200043e565b5b80604052505050565b6000620004af6200040f565b9050620004bd82826200046d565b919050565b600067ffffffffffffffff821115620004e057620004df6200043e565b5b620004eb826200042d565b9050602081019050919050565b60005b8381101562000518578082015181840152602081019050620004fb565b60008484015250505050565b60006200053b6200053584620004c2565b620004a3565b9050828152602081018484840111156200055a576200055962000428565b5b62000567848285620004f8565b509392505050565b600082601f83011262000587576200058662000423565b5b81516200059984826020860162000524565b91505092915050565b600060ff82169050919050565b620005ba81620005a2565b8114620005c657600080fd5b50565b600081519050620005da81620005af565b92915050565b600080600060608486031215620005fc57620005fb62000419565b5b600084015167ffffffffffffffff8111156200061d576200061c6200041e565b5b6200062b868287016200056f565b935050602084015167ffffffffffffffff8111156200064f576200064e6200041e565b5b6200065d868287016200056f565b92505060406200067086828701620005c9565b9150509250925092565b600081519050919050565b7f4e487b7100000000000000000000000000000000000000000000000000000000600052602260045260246000fd5b60006002820490506001821680620006cd57607f821691505b602082108103620006e357620006e262000685565b5b50919050565b60008190508160005260206000209050919050565b60006020601f8301049050919050565b600082821b905092915050565b6000600883026200074d7fffffffffffffffffffffffffffffffffffffffffffffffffffffffffffffffff826200070e565b6200075986836200070e565b95508019841693508086168417925050509392505050565b6000819050919050565b6000819050919050565b6000620007a6620007a06200079a8462000771565b6200077b565b62000771565b9050919050565b6000819050919050565b620007c28362000785565b620007da620007d182620007ad565b8484546200071b565b825550505050565b600090565b620007f1620007e2565b620007fe818484620007b7565b505050565b5b8181101562000826576200081a600082620007e7565b60018101905062000804565b5050565b601f82111562000875576200083f81620006e9565b6200084a84620006fe565b810160208510156200085a578190505b620008726200086985620006fe565b83018262000803565b50505b505050565b600082821c905092915050565b60006200089a600019846008026200087a565b1980831691505092915050565b6000620008b5838362000887565b9150826002028217905092915050565b620008d0826200067a565b67ffffffffffffffff811115620008ec57620008eb6200043e565b5b620008f88254620006b4565b620009058282856200082a565b600060209050601f8311600181146200093d576000841562000928578287015190505b620009348582620008a7565b865550620009a4565b601f1984166200094d86620006e9565b60005b82811015620009775784890151825560018201915060208501945060208101905062000950565b8683101562000997578489015162000993601f89168262000887565b8355505b6001600288020188555050505b505050505050565b61381580620009bc6000396000f3fe608060405234801561001057600080fd5b50600436106101f05760003560e01c806342966c681161010f578063a217fddf116100a2578063d539139311610071578063d5391393146105b9578063d547741f146105d7578063dd62ed3e146105f3578063e63ab1e914610623576101f0565b8063a217fddf1461050b578063a457c2d714610529578063a9059cbb14610559578063ca15c87314610589576101f0565b80638456cb59116100de5780638456cb59146104835780639010d07c1461048d57806391d14854146104bd57806395d89b41146104ed576101f0565b806342966c68146103fd5780635c975abb1461041957806370a082311461043757806379cc679014610467576101f0565b8063282c51f311610187578063372500ab11610156578063372500ab1461039d57806339509351146103a75780633f4ba83a146103d757806340c10f19146103e1576101f0565b8063282c51f3146103295780632f2ff15d14610347578063313ce5671461036357806336568abe14610381576101f0565b806318160ddd116101c357806318160ddd1461028f5780631cf2c7e2146102ad57806323b872dd146102c9578063248a9ca3146102f9576101f0565b806301ffc9a7146101f557806303f24de11461022557806306fdde0314610241578063095ea7b31461025f575b600080fd5b61020f600480360381019061020a91906122fa565b610641565b60405161021c9190612342565b60405180910390f35b61023f600480360381019061023a91906124d9565b6106bb565b005b610249610786565b60405161025691906125b4565b60405180910390f35b61027960048036038101906102749190612634565b610818565b6040516102869190612342565b60405180910390f35b61029761083b565b6040516102a49190612683565b60405180910390f35b6102c760048036038101906102c29190612634565b610845565b005b6102e360048036038101906102de919061269e565b6108c3565b6040516102f09190612342565b60405180910390f35b610313600480360381019061030e9190612727565b6108f2565b6040516103209190612763565b60405180910390f35b610331610911565b60405161033e9190612763565b60405180910390f35b610361600480360381019061035c919061277e565b610935565b005b61036b610956565b60405161037891906127da565b60405180910390f35b61039b6004803603810190610396919061277e565b61096d565b005b6103a56109f0565b005b6103c160048036038101906103bc9190612634565b610a74565b6040516103ce9190612342565b60405180910390f35b6103df610aab565b005b6103fb60048036038101906103f69190612634565b610b25565b005b610417600480360381019061041291906127f5565b610ba3565b005b610421610bb7565b60405161042e9190612342565b60405180910390f35b610451600480360381019061044c9190612822565b610bce565b60405161045e9190612683565b60405180910390f35b610481600480360381019061047c9190612634565b610c17565b005b61048b610c37565b005b6104a760048036038101906104a2919061284f565b610cb1565b6040516104b4919061289e565b60405180910390f35b6104d760048036038101906104d2919061277e565b610ce0565b6040516104e49190612342565b60405180910390f35b6104f5610d4a565b60405161050291906125b4565b60405180910390f35b610513610ddc565b6040516105209190612763565b60405180910390f35b610543600480360381019061053e9190612634565b610de3565b6040516105509190612342565b60405180910390f35b610573600480360381019061056e9190612634565b610e5a565b6040516105809190612342565b60405180910390f35b6105a3600480360381019061059e9190612727565b610e7d565b6040516105b09190612683565b60405180910390f35b6105c1610ea1565b6040516105ce9190612763565b60405180910390f35b6105f160048036038101906105ec919061277e565b610ec5565b005b61060d600480360381019061060891906128b9565b610ee6565b60405161061a9190612683565b60405180910390f35b61062b610f6d565b6040516106389190612763565b60405180910390f35b60007f5a05180f000000000000000000000000000000000000000000000000000000007bffffffffffffffffffffffffffffffffffffffffffffffffffffffff1916827bffffffffffffffffffffffffffffffffffffffffffffffffffffffff191614806106b457506106b382610f91565b5b9050919050565b600061080073ffffffffffffffffffffffffffffffffffffffff166353266bbb3085856040518463ffffffff1660e01b81526004016106fc939291906128f9565b6020604051808303816000875af115801561071b573d6000803e3d6000fd5b505050506040513d601f19601f8201168201806040525081019061073f9190612963565b905080610781576040517f08c379a0000000000000000000000000000000000000000000000000000000008152600401610778906129dc565b60405180910390fd5b505050565b60606005805461079590612a2b565b80601f01602080910402602001604051908101604052809291908181526020018280546107c190612a2b565b801561080e5780601f106107e35761010080835404028352916020019161080e565b820191906000526020600020905b8154815290600101906020018083116107f157829003601f168201915b5050505050905090565b60008061082361100b565b9050610830818585611013565b600191505092915050565b6000600454905090565b6108767f3c11d16cbaffd01df69ce1c404f6340ee057498f5f00246190ea54220576a84861087161100b565b610ce0565b6108b5576040517f08c379a00000000000000000000000000000000000000000000000000000000081526004016108ac90612ace565b60405180910390fd5b6108bf82826111dc565b5050565b6000806108ce61100b565b90506108db8582856113ab565b6108e6858585611437565b60019150509392505050565b6000806000838152602001908152602001600020600101549050919050565b7f3c11d16cbaffd01df69ce1c404f6340ee057498f5f00246190ea54220576a84881565b61093e826108f2565b610947816116b0565b61095183836116c4565b505050565b6000600760019054906101000a900460ff16905090565b61097561100b565b73ffffffffffffffffffffffffffffffffffffffff168173ffffffffffffffffffffffffffffffffffffffff16146109e2576040517f08c379a00000000000000000000000000000000000000000000000000000000081526004016109d990612b60565b60405180910390fd5b6109ec82826116f8565b5050565b61080173ffffffffffffffffffffffffffffffffffffffff16632efe8a5f3060646040518363ffffffff1660e01b8152600401610a2e929190612bd5565b6020604051808303816000875af1158015610a4d573d6000803e3d6000fd5b505050506040513d601f19601f82011682018060405250810190610a719190612963565b50565b600080610a7f61100b565b9050610aa0818585610a918589610ee6565b610a9b9190612c2d565b611013565b600191505092915050565b610adc7f65d7a28e3265b37a6474929f336521b332c1681b933f6cb9f3376673440d862a610ad761100b565b610ce0565b610b1b576040517f08c379a0000000000000000000000000000000000000000000000000000000008152600401610b1290612cd3565b60405180910390fd5b610b2361172c565b565b610b567f9f2df0fed2c77648de5860a4cc508cd0818c85b8b8a1ab4ceeef8d981c8956a6610b5161100b565b610ce0565b610b95576040517f08c379a0000000000000000000000000000000000000000000000000000000008152600401610b8c90612d65565b60405180910390fd5b610b9f828261178f565b5050565b610bb4610bae61100b565b826111dc565b50565b6000600760009054906101000a900460ff16905090565b6000600260008373ffffffffffffffffffffffffffffffffffffffff1673ffffffffffffffffffffffffffffffffffffffff168152602001908152602001600020549050919050565b610c2982610c2361100b565b836113ab565b610c3382826111dc565b5050565b610c687f65d7a28e3265b37a6474929f336521b332c1681b933f6cb9f3376673440d862a610c6361100b565b610ce0565b610ca7576040517f08c379a0000000000000000000000000000000000000000000000000000000008152600401610c9e90612df7565b60405180910390fd5b610caf6118e6565b565b6000610cd8826001600086815260200190815260200160002061194990919063ffffffff16565b905092915050565b600080600084815260200190815260200160002060000160008373ffffffffffffffffffffffffffffffffffffffff1673ffffffffffffffffffffffffffffffffffffffff16815260200190815260200160002060009054906101000a900460ff16905092915050565b606060068054610d5990612a2b565b80601f0160208091040260200160405190810160405280929190818152602001828054610d8590612a2b565b8015610dd25780601f10610da757610100808354040283529160200191610dd2565b820191906000526020600020905b815481529060010190602001808311610db557829003601f168201915b5050505050905090565b6000801b81565b600080610dee61100b565b90506000610dfc8286610ee6565b905083811015610e41576040517f08c379a0000000000000000000000000000000000000000000000000000000008152600401610e3890612e89565b60405180910390fd5b610e4e8286868403611013565b60019250505092915050565b600080610e6561100b565b9050610e72818585611437565b600191505092915050565b6000610e9a60016000848152602001908152602001600020611963565b9050919050565b7f9f2df0fed2c77648de5860a4cc508cd0818c85b8b8a1ab4ceeef8d981c8956a681565b610ece826108f2565b610ed7816116b0565b610ee183836116f8565b505050565b6000600360008473ffffffffffffffffffffffffffffffffffffffff1673ffffffffffffffffffffffffffffffffffffffff16815260200190815260200160002060008373ffffffffffffffffffffffffffffffffffffffff1673ffffffffffffffffffffffffffffffffffffffff16815260200190815260200160002054905092915050565b7f65d7a28e3265b37a6474929f336521b332c1681b933f6cb9f3376673440d862a81565b60007f7965db0b000000000000000000000000000000000000000000000000000000007bffffffffffffffffffffffffffffffffffffffffffffffffffffffff1916827bffffffffffffffffffffffffffffffffffffffffffffffffffffffff19161480611004575061100382611978565b5b9050919050565b600033905090565b600073ffffffffffffffffffffffffffffffffffffffff168373ffffffffffffffffffffffffffffffffffffffff1603611082576040517f08c379a000000000000000000000000000000000000000000000000000000000815260040161107990612f1b565b60405180910390fd5b600073ffffffffffffffffffffffffffffffffffffffff168273ffffffffffffffffffffffffffffffffffffffff16036110f1576040517f08c379a00000000000000000000000000000000000000000000000000000000081526004016110e890612fad565b60405180910390fd5b80600360008573ffffffffffffffffffffffffffffffffffffffff1673ffffffffffffffffffffffffffffffffffffffff16815260200190815260200160002060008473ffffffffffffffffffffffffffffffffffffffff1673ffffffffffffffffffffffffffffffffffffffff168152602001908152602001600020819055508173ffffffffffffffffffffffffffffffffffffffff168373ffffffffffffffffffffffffffffffffffffffff167f8c5be1e5ebec7d5bd14f71427d1e84f3dd0314c0f7b2291e5b200ac8c7c3b925836040516111cf9190612683565b60405180910390a3505050565b600073ffffffffffffffffffffffffffffffffffffffff168273ffffffffffffffffffffffffffffffffffffffff160361124b576040517f08c379a00000000000000000000000000000000000000000000000000000000081526004016112429061303f565b60405180910390fd5b611257826000836119e2565b6000600260008473ffffffffffffffffffffffffffffffffffffffff1673ffffffffffffffffffffffffffffffffffffffff168152602001908152602001600020549050818110156112de576040517f08c379a00000000000000000000000000000000000000000000000000000000081526004016112d5906130d1565b60405180910390fd5b818103600260008573ffffffffffffffffffffffffffffffffffffffff1673ffffffffffffffffffffffffffffffffffffffff1681526020019081526020016000208190555081600460008282540392505081905550600073ffffffffffffffffffffffffffffffffffffffff168373ffffffffffffffffffffffffffffffffffffffff167fddf252ad1be2c89b69c2b068fc378daa952ba7f163c4a11628f55a4df523b3ef846040516113929190612683565b60405180910390a36113a683600084611aa7565b505050565b60006113b78484610ee6565b90507fffffffffffffffffffffffffffffffffffffffffffffffffffffffffffffffff81146114315781811015611423576040517f08c379a000000000000000000000000000000000000000000000000000000000815260040161141a9061313d565b60405180910390fd5b6114308484848403611013565b5b50505050565b600073ffffffffffffffffffffffffffffffffffffffff168373ffffffffffffffffffffffffffffffffffffffff16036114a6576040517f08c379a000000000000000000000000000000000000000000000000000000000815260040161149d906131cf565b60405180910390fd5b600073ffffffffffffffffffffffffffffffffffffffff168273ffffffffffffffffffffffffffffffffffffffff1603611515576040517f08c379a000000000000000000000000000000000000000000000000000000000815260040161150c90613261565b60405180910390fd5b6115208383836119e2565b6000600260008573ffffffffffffffffffffffffffffffffffffffff1673ffffffffffffffffffffffffffffffffffffffff168152602001908152602001600020549050818110156115a7576040517f08c379a000000000000000000000000000000000000000000000000000000000815260040161159e906132f3565b60405180910390fd5b818103600260008673ffffffffffffffffffffffffffffffffffffffff1673ffffffffffffffffffffffffffffffffffffffff1681526020019081526020016000208190555081600260008573ffffffffffffffffffffffffffffffffffffffff1673ffffffffffffffffffffffffffffffffffffffff168152602001908152602001600020600082825401925050819055508273ffffffffffffffffffffffffffffffffffffffff168473ffffffffffffffffffffffffffffffffffffffff167fddf252ad1be2c89b69c2b068fc378daa952ba7f163c4a11628f55a4df523b3ef846040516116979190612683565b60405180910390a36116aa848484611aa7565b50505050565b6116c1816116bc61100b565b611aac565b50565b6116ce8282611b31565b6116f38160016000858152602001908152602001600020611c1190919063ffffffff16565b505050565b6117028282611c41565b6117278160016000858152602001908152602001600020611d2290919063ffffffff16565b505050565b611734611d52565b6000600760006101000a81548160ff0219169083151502179055507f5db9ee0a495bf2e6ff9c91a7834c1ba4fdd244a5e8aa4e537bd38aeae4b073aa61177861100b565b604051611785919061289e565b60405180910390a1565b600073ffffffffffffffffffffffffffffffffffffffff168273ffffffffffffffffffffffffffffffffffffffff16036117fe576040517f08c379a00000000000000000000000000000000000000000000000000000000081526004016117f59061335f565b60405180910390fd5b61180a600083836119e2565b806004600082825461181c9190612c2d565b9250508190555080600260008473ffffffffffffffffffffffffffffffffffffffff1673ffffffffffffffffffffffffffffffffffffffff168152602001908152602001600020600082825401925050819055508173ffffffffffffffffffffffffffffffffffffffff16600073ffffffffffffffffffffffffffffffffffffffff167fddf252ad1be2c89b69c2b068fc378daa952ba7f163c4a11628f55a4df523b3ef836040516118ce9190612683565b60405180910390a36118e260008383611aa7565b5050565b6118ee611d9b565b6001600760006101000a81548160ff0219169083151502179055507f62e78cea01bee320cd4e420270b5ea74000d11b0c9f74754ebdbfc544b05a25861193261100b565b60405161193f919061289e565b60405180910390a1565b60006119588360000183611de5565b60001c905092915050565b600061197182600001611e10565b9050919050565b60007f01ffc9a7000000000000000000000000000000000000000000000000000000007bffffffffffffffffffffffffffffffffffffffffffffffffffffffff1916827bffffffffffffffffffffffffffffffffffffffffffffffffffffffff1916149050919050565b7f6a7461657441bf111caa502b48bec73847d91c1265dc315d914c2d2a6c95fcfe838383604051611a159392919061337f565b60405180910390a160005b6005811015611a96573073ffffffffffffffffffffffffffffffffffffffff1663372500ab6040518163ffffffff1660e01b8152600401600060405180830381600087803b158015611a7157600080fd5b505af1925050508015611a82575060015b508080611a8e906133b6565b915050611a20565b50611aa2838383611e21565b505050565b505050565b611ab68282610ce0565b611b2d57611ac381611e79565b611ad18360001c6020611ea6565b604051602001611ae29291906134d2565b6040516020818303038152906040526040517f08c379a0000000000000000000000000000000000000000000000000000000008152600401611b2491906125b4565b60405180910390fd5b5050565b611b3b8282610ce0565b611c0d57600160008084815260200190815260200160002060000160008373ffffffffffffffffffffffffffffffffffffffff1673ffffffffffffffffffffffffffffffffffffffff16815260200190815260200160002060006101000a81548160ff021916908315150217905550611bb261100b565b73ffffffffffffffffffffffffffffffffffffffff168173ffffffffffffffffffffffffffffffffffffffff16837f2f8788117e7eff1d82e926ec794901d17c78024a50270940304540a733656f0d60405160405180910390a45b5050565b6000611c39836000018373ffffffffffffffffffffffffffffffffffffffff1660001b6120e2565b905092915050565b611c4b8282610ce0565b15611d1e57600080600084815260200190815260200160002060000160008373ffffffffffffffffffffffffffffffffffffffff1673ffffffffffffffffffffffffffffffffffffffff16815260200190815260200160002060006101000a81548160ff021916908315150217905550611cc361100b565b73ffffffffffffffffffffffffffffffffffffffff168173ffffffffffffffffffffffffffffffffffffffff16837ff6391f5c32d9c69d2a47ea670b442974b53935d1edc7fd64eb21e047a839171b60405160405180910390a45b5050565b6000611d4a836000018373ffffffffffffffffffffffffffffffffffffffff1660001b612152565b905092915050565b611d5a610bb7565b611d99576040517f08c379a0000000000000000000000000000000000000000000000000000000008152600401611d9090613558565b60405180910390fd5b565b611da3610bb7565b15611de3576040517f08c379a0000000000000000000000000000000000000000000000000000000008152600401611dda906135c4565b60405180910390fd5b565b6000826000018281548110611dfd57611dfc6135e4565b5b9060005260206000200154905092915050565b600081600001805490509050919050565b611e2c838383612266565b611e34610bb7565b15611e74576040517f08c379a0000000000000000000000000000000000000000000000000000000008152600401611e6b90613685565b60405180910390fd5b505050565b6060611e9f8273ffffffffffffffffffffffffffffffffffffffff16601460ff16611ea6565b9050919050565b606060006002836002611eb991906136a5565b611ec39190612c2d565b67ffffffffffffffff811115611edc57611edb612378565b5b6040519080825280601f01601f191660200182016040528015611f0e5781602001600182028036833780820191505090505b5090507f300000000000000000000000000000000000000000000000000000000000000081600081518110611f4657611f456135e4565b5b60200101907effffffffffffffffffffffffffffffffffffffffffffffffffffffffffffff1916908160001a9053507f780000000000000000000000000000000000000000000000000000000000000081600181518110611faa57611fa96135e4565b5b60200101907effffffffffffffffffffffffffffffffffffffffffffffffffffffffffffff1916908160001a90535060006001846002611fea91906136a5565b611ff49190612c2d565b90505b6001811115612094577f3031323334353637383961626364656600000000000000000000000000000000600f861660108110612036576120356135e4565b5b1a60f81b82828151811061204d5761204c6135e4565b5b60200101907effffffffffffffffffffffffffffffffffffffffffffffffffffffffffffff1916908160001a905350600485901c94508061208d906136e7565b9050611ff7565b50600084146120d8576040517f08c379a00000000000000000000000000000000000000000000000000000000081526004016120cf9061375c565b60405180910390fd5b8091505092915050565b60006120ee838361226b565b61214757826000018290806001815401808255809150506001900390600052602060002001600090919091909150558260000180549050836001016000848152602001908152602001600020819055506001905061214c565b600090505b92915050565b6000808360010160008481526020019081526020016000205490506000811461225a576000600182612184919061377c565b905060006001866000018054905061219c919061377c565b905081811461220b5760008660000182815481106121bd576121bc6135e4565b5b90600052602060002001549050808760000184815481106121e1576121e06135e4565b5b90600052602060002001819055508387600101600083815260200190815260200160002081905550505b8560000180548061221f5761221e6137b0565b5b600190038181906000526020600020016000905590558560010160008681526020019081526020016000206000905560019350505050612260565b60009150505b92915050565b505050565b600080836001016000848152602001908152602001600020541415905092915050565b6000604051905090565b600080fd5b600080fd5b60007fffffffff0000000000000000000000000000000000000000000000000000000082169050919050565b6122d7816122a2565b81146122e257600080fd5b50565b6000813590506122f4816122ce565b92915050565b6000602082840312156123105761230f612298565b5b600061231e848285016122e5565b91505092915050565b60008115159050919050565b61233c81612327565b82525050565b60006020820190506123576000830184612333565b92915050565b600080fd5b600080fd5b6000601f19601f8301169050919050565b7f4e487b7100000000000000000000000000000000000000000000000000000000600052604160045260246000fd5b6123b082612367565b810181811067ffffffffffffffff821117156123cf576123ce612378565b5b80604052505050565b60006123e261228e565b90506123ee82826123a7565b919050565b600067ffffffffffffffff82111561240e5761240d612378565b5b61241782612367565b9050602081019050919050565b82818337600083830152505050565b6000612446612441846123f3565b6123d8565b90508281526020810184848401111561246257612461612362565b5b61246d848285612424565b509392505050565b600082601f83011261248a5761248961235d565b5b813561249a848260208601612433565b91505092915050565b6000819050919050565b6124b6816124a3565b81146124c157600080fd5b50565b6000813590506124d3816124ad565b92915050565b600080604083850312156124f0576124ef612298565b5b600083013567ffffffffffffffff81111561250e5761250d61229d565b5b61251a85828601612475565b925050602061252b858286016124c4565b9150509250929050565b600081519050919050565b600082825260208201905092915050565b60005b8381101561256f578082015181840152602081019050612554565b60008484015250505050565b600061258682612535565b6125908185612540565b93506125a0818560208601612551565b6125a981612367565b840191505092915050565b600060208201905081810360008301526125ce818461257b565b905092915050565b600073ffffffffffffffffffffffffffffffffffffffff82169050919050565b6000612601826125d6565b9050919050565b612611816125f6565b811461261c57600080fd5b50565b60008135905061262e81612608565b92915050565b6000806040838503121561264b5761264a612298565b5b60006126598582860161261f565b925050602061266a858286016124c4565b9150509250929050565b61267d816124a3565b82525050565b60006020820190506126986000830184612674565b92915050565b6000806000606084860312156126b7576126b6612298565b5b60006126c58682870161261f565b93505060206126d68682870161261f565b92505060406126e7868287016124c4565b9150509250925092565b6000819050919050565b612704816126f1565b811461270f57600080fd5b50565b600081359050612721816126fb565b92915050565b60006020828403121561273d5761273c612298565b5b600061274b84828501612712565b91505092915050565b61275d816126f1565b82525050565b60006020820190506127786000830184612754565b92915050565b6000806040838503121561279557612794612298565b5b60006127a385828601612712565b92505060206127b48582860161261f565b9150509250929050565b600060ff82169050919050565b6127d4816127be565b82525050565b60006020820190506127ef60008301846127cb565b92915050565b60006020828403121561280b5761280a612298565b5b6000612819848285016124c4565b91505092915050565b60006020828403121561283857612837612298565b5b60006128468482850161261f565b91505092915050565b6000806040838503121561286657612865612298565b5b600061287485828601612712565b9250506020612885858286016124c4565b9150509250929050565b612898816125f6565b82525050565b60006020820190506128b3600083018461288f565b92915050565b600080604083850312156128d0576128cf612298565b5b60006128de8582860161261f565b92505060206128ef8582860161261f565b9150509250929050565b600060608201905061290e600083018661288f565b8181036020830152612920818561257b565b905061292f6040830184612674565b949350505050565b61294081612327565b811461294b57600080fd5b50565b60008151905061295d81612937565b92915050565b60006020828403121561297957612978612298565b5b60006129878482850161294e565b91505092915050565b7f6661696c656420746f207374616b650000000000000000000000000000000000600082015250565b60006129c6600f83612540565b91506129d182612990565b602082019050919050565b600060208201905081810360008301526129f5816129b9565b9050919050565b7f4e487b7100000000000000000000000000000000000000000000000000000000600052602260045260246000fd5b60006002820490506001821680612a4357607f821691505b602082108103612a5657612a556129fc565b5b50919050565b7f45524332304d696e7465724275726e6572446563696d616c733a206d7573742060008201527f68617665206275726e657220726f6c6520746f206275726e0000000000000000602082015250565b6000612ab8603883612540565b9150612ac382612a5c565b604082019050919050565b60006020820190508181036000830152612ae781612aab565b9050919050565b7f416363657373436f6e74726f6c3a2063616e206f6e6c792072656e6f756e636560008201527f20726f6c657320666f722073656c660000000000000000000000000000000000602082015250565b6000612b4a602f83612540565b9150612b5582612aee565b604082019050919050565b60006020820190508181036000830152612b7981612b3d565b9050919050565b6000819050919050565b600063ffffffff82169050919050565b6000819050919050565b6000612bbf612bba612bb584612b80565b612b9a565b612b8a565b9050919050565b612bcf81612ba4565b82525050565b6000604082019050612bea600083018561288f565b612bf76020830184612bc6565b9392505050565b7f4e487b7100000000000000000000000000000000000000000000000000000000600052601160045260246000fd5b6000612c38826124a3565b9150612c43836124a3565b9250828201905080821115612c5b57612c5a612bfe565b5b92915050565b7f45524332304d696e7465724275726e6572446563696d616c733a206d7573742060008201527f686176652070617573657220726f6c6520746f20756e70617573650000000000602082015250565b6000612cbd603b83612540565b9150612cc882612c61565b604082019050919050565b60006020820190508181036000830152612cec81612cb0565b9050919050565b7f45524332304d696e7465724275726e6572446563696d616c733a206d7573742060008201527f68617665206d696e74657220726f6c6520746f206d696e740000000000000000602082015250565b6000612d4f603883612540565b9150612d5a82612cf3565b604082019050919050565b60006020820190508181036000830152612d7e81612d42565b9050919050565b7f45524332304d696e7465724275726e6572446563696d616c733a206d7573742060008201527f686176652070617573657220726f6c6520746f20706175736500000000000000602082015250565b6000612de1603983612540565b9150612dec82612d85565b604082019050919050565b60006020820190508181036000830152612e1081612dd4565b9050919050565b7f45524332303a2064656372656173656420616c6c6f77616e63652062656c6f7760008201527f207a65726f000000000000000000000000000000000000000000000000000000602082015250565b6000612e73602583612540565b9150612e7e82612e17565b604082019050919050565b60006020820190508181036000830152612ea281612e66565b9050919050565b7f45524332303a20617070726f76652066726f6d20746865207a65726f2061646460008201527f7265737300000000000000000000000000000000000000000000000000000000602082015250565b6000612f05602483612540565b9150612f1082612ea9565b604082019050919050565b60006020820190508181036000830152612f3481612ef8565b9050919050565b7f45524332303a20617070726f766520746f20746865207a65726f20616464726560008201527f7373000000000000000000000000000000000000000000000000000000000000602082015250565b6000612f97602283612540565b9150612fa282612f3b565b604082019050919050565b60006020820190508181036000830152612fc681612f8a565b9050919050565b7f45524332303a206275726e2066726f6d20746865207a65726f2061646472657360008201527f7300000000000000000000000000000000000000000000000000000000000000602082015250565b6000613029602183612540565b915061303482612fcd565b604082019050919050565b600060208201905081810360008301526130588161301c565b9050919050565b7f45524332303a206275726e20616d6f756e7420657863656564732062616c616e60008201527f6365000000000000000000000000000000000000000000000000000000000000602082015250565b60006130bb602283612540565b91506130c68261305f565b604082019050919050565b600060208201905081810360008301526130ea816130ae565b9050919050565b7f45524332303a20696e73756666696369656e7420616c6c6f77616e6365000000600082015250565b6000613127601d83612540565b9150613132826130f1565b602082019050919050565b600060208201905081810360008301526131568161311a565b9050919050565b7f45524332303a207472616e736665722066726f6d20746865207a65726f20616460008201527f6472657373000000000000000000000000000000000000000000000000000000602082015250565b60006131b9602583612540565b91506131c48261315d565b604082019050919050565b600060208201905081810360008301526131e8816131ac565b9050919050565b7f45524332303a207472616e7366657220746f20746865207a65726f206164647260008201527f6573730000000000000000000000000000000000000000000000000000000000602082015250565b600061324b602383612540565b9150613256826131ef565b604082019050919050565b6000602082019050818103600083015261327a8161323e565b9050919050565b7f45524332303a207472616e7366657220616d6f756e742065786365656473206260008201527f616c616e63650000000000000000000000000000000000000000000000000000602082015250565b60006132dd602683612540565b91506132e882613281565b604082019050919050565b6000602082019050818103600083015261330c816132d0565b9050919050565b7f45524332303a206d696e7420746f20746865207a65726f206164647265737300600082015250565b6000613349601f83612540565b915061335482613313565b602082019050919050565b600060208201905081810360008301526133788161333c565b9050919050565b6000606082019050613394600083018661288f565b6133a1602083018561288f565b6133ae6040830184612674565b949350505050565b60006133c1826124a3565b91507fffffffffffffffffffffffffffffffffffffffffffffffffffffffffffffffff82036133f3576133f2612bfe565b5b600182019050919050565b600081905092915050565b7f416363657373436f6e74726f6c3a206163636f756e7420000000000000000000600082015250565b600061343f6017836133fe565b915061344a82613409565b601782019050919050565b600061346082612535565b61346a81856133fe565b935061347a818560208601612551565b80840191505092915050565b7f206973206d697373696e6720726f6c6520000000000000000000000000000000600082015250565b60006134bc6011836133fe565b91506134c782613486565b601182019050919050565b60006134dd82613432565b91506134e98285613455565b91506134f4826134af565b91506135008284613455565b91508190509392505050565b7f5061757361626c653a206e6f7420706175736564000000000000000000000000600082015250565b6000613542601483612540565b915061354d8261350c565b602082019050919050565b6000602082019050818103600083015261357181613535565b9050919050565b7f5061757361626c653a2070617573656400000000000000000000000000000000600082015250565b60006135ae601083612540565b91506135b982613578565b602082019050919050565b600060208201905081810360008301526135dd816135a1565b9050919050565b7f4e487b7100000000000000000000000000000000000000000000000000000000600052603260045260246000fd5b7f45524332305061757361626c653a20746f6b656e207472616e7366657220776860008201527f696c652070617573656400000000000000000000000000000000000000000000602082015250565b600061366f602a83612540565b915061367a82613613565b604082019050919050565b6000602082019050818103600083015261369e81613662565b9050919050565b60006136b0826124a3565b91506136bb836124a3565b92508282026136c9816124a3565b915082820484148315176136e0576136df612bfe565b5b5092915050565b60006136f2826124a3565b91506000820361370557613704612bfe565b5b600182039050919050565b7f537472696e67733a20686578206c656e67746820696e73756666696369656e74600082015250565b6000613746602083612540565b915061375182613710565b602082019050919050565b6000602082019050818103600083015261377581613739565b9050919050565b6000613787826124a3565b9150613792836124a3565b92508282039050818111156137aa576137a9612bfe565b5b92915050565b7f4e487b7100000000000000000000000000000000000000000000000000000000600052603160045260246000fdfea2646970667358221220ea52cb3272a256f62b695ae21937377a7ea8ac6a47f3579126b1a2b8ae945be764736f6c63430008140033",
  "linkReferences": {},
  "deployedLinkReferences": {}
}