{
  "_format": "hh-sol-artifact-1",
  "contractName": "ERC20RecursiveRevertingPrecompileCall",
  "sourceName": "solidity/ERC20RecursiveRevertingPrecompileCall.sol",
  "abi": [
    {
      "inputs": [
        {
          "internalType": "string",
          "name": "name",
          "type": "string"
        },
        {
          "internalType": "string",
          "name": "symbol",
          "type": "string"
        },
        {
          "internalType": "uint8",
          "name": "decimals_",
          "type": "uint8"
        }
      ],
      "stateMutability": "nonpayable",
      "type": "constructor"
    },
    {
      "anonymous": false,
      "inputs": [
        {
          "indexed": true,
          "internalType": "address",
          "name": "owner",
          "type": "address"
        },
        {
          "indexed": true,
          "internalType": "address",
          "name": "spender",
          "type": "address"
        },
        {
          "indexed": false,
          "internalType": "uint256",
          "name": "value",
          "type": "uint256"
        }
      ],
      "name": "Approval",
      "type": "event"
    },
    {
      "anonymous": false,
      "inputs": [
        {
          "indexed": false,
          "internalType": "address",
          "name": "from",
          "type": "address"
        },
        {
          "indexed": false,
          "internalType": "address",
          "name": "to",
          "type": "address"
        },
        {
          "indexed": false,
          "internalType": "uint256",
          "name": "amount",
          "type": "uint256"
        }
      ],
      "name": "BeforeTokenTransferHookCalled",
      "type": "event"
    },
    {
      "anonymous": false,
      "inputs": [
        {
          "indexed": false,
          "internalType": "address",
          "name": "account",
          "type": "address"
        }
      ],
      "name": "Paused",
      "type": "event"
    },
    {
      "anonymous": false,
      "inputs": [
        {
          "indexed": true,
          "internalType": "bytes32",
          "name": "role",
          "type": "bytes32"
        },
        {
          "indexed": true,
          "internalType": "bytes32",
          "name": "previousAdminRole",
          "type": "bytes32"
        },
        {
          "indexed": true,
          "internalType": "bytes32",
          "name": "newAdminRole",
          "type": "bytes32"
        }
      ],
      "name": "RoleAdminChanged",
      "type": "event"
    },
    {
      "anonymous": false,
      "inputs": [
        {
          "indexed": true,
          "internalType": "bytes32",
          "name": "role",
          "type": "bytes32"
        },
        {
          "indexed": true,
          "internalType": "address",
          "name": "account",
          "type": "address"
        },
        {
          "indexed": true,
          "internalType": "address",
          "name": "sender",
          "type": "address"
        }
      ],
      "name": "RoleGranted",
      "type": "event"
    },
    {
      "anonymous": false,
      "inputs": [
        {
          "indexed": true,
          "internalType": "bytes32",
          "name": "role",
          "type": "bytes32"
        },
        {
          "indexed": true,
          "internalType": "address",
          "name": "account",
          "type": "address"
        },
        {
          "indexed": true,
          "internalType": "address",
          "name": "sender",
          "type": "address"
        }
      ],
      "name": "RoleRevoked",
      "type": "event"
    },
    {
      "anonymous": false,
      "inputs": [
        {
          "indexed": true,
          "internalType": "address",
          "name": "from",
          "type": "address"
        },
        {
          "indexed": true,
          "internalType": "address",
          "name": "to",
          "type": "address"
        },
        {
          "indexed": false,
          "internalType": "uint256",
          "name": "value",
          "type": "uint256"
        }
      ],
      "name": "Transfer",
      "type": "event"
    },
    {
      "anonymous": false,
      "inputs": [
        {
          "indexed": false,
          "internalType": "address",
          "name": "account",
          "type": "address"
        }
      ],
      "name": "Unpaused",
      "type": "event"
    },
    {
      "inputs": [],
      "name": "BURNER_ROLE",
      "outputs": [
        {
          "internalType": "bytes32",
          "name": "",
          "type": "bytes32"
        }
      ],
      "stateMutability": "view",
      "type": "function"
    },
    {
      "inputs": [],
      "name": "DEFAULT_ADMIN_ROLE",
      "outputs": [
        {
          "internalType": "bytes32",
          "name": "",
          "type": "bytes32"
        }
      ],
      "stateMutability": "view",
      "type": "function"
    },
    {
      "inputs": [],
      "name": "MINTER_ROLE",
      "outputs": [
        {
          "internalType": "bytes32",
          "name": "",
          "type": "bytes32"
        }
      ],
      "stateMutability": "view",
      "type": "function"
    },
    {
      "inputs": [],
      "name": "PAUSER_ROLE",
      "outputs": [
        {
          "internalType": "bytes32",
          "name": "",
          "type": "bytes32"
        }
      ],
      "stateMutability": "view",
      "type": "function"
    },
    {
      "inputs": [
        {
          "internalType": "address",
          "name": "owner",
          "type": "address"
        },
        {
          "internalType": "address",
          "name": "spender",
          "type": "address"
        }
      ],
      "name": "allowance",
      "outputs": [
        {
          "internalType": "uint256",
          "name": "",
          "type": "uint256"
        }
      ],
      "stateMutability": "view",
      "type": "function"
    },
    {
      "inputs": [
        {
          "internalType": "address",
          "name": "spender",
          "type": "address"
        },
        {
          "internalType": "uint256",
          "name": "amount",
          "type": "uint256"
        }
      ],
      "name": "approve",
      "outputs": [
        {
          "internalType": "bool",
          "name": "",
          "type": "bool"
        }
      ],
      "stateMutability": "nonpayable",
      "type": "function"
    },
    {
      "inputs": [
        {
          "internalType": "address",
          "name": "account",
          "type": "address"
        }
      ],
      "name": "balanceOf",
      "outputs": [
        {
          "internalType": "uint256",
          "name": "",
          "type": "uint256"
        }
      ],
      "stateMutability": "view",
      "type": "function"
    },
    {
      "inputs": [
        {
          "internalType": "uint256",
          "name": "amount",
          "type": "uint256"
        }
      ],
      "name": "burn",
      "outputs": [],
      "stateMutability": "nonpayable",
      "type": "function"
    },
    {
      "inputs": [
        {
          "internalType": "address",
          "name": "from",
          "type": "address"
        },
        {
          "internalType": "uint256",
          "name": "amount",
          "type": "uint256"
        }
      ],
      "name": "burnCoins",
      "outputs": [],
      "stateMutability": "nonpayable",
      "type": "function"
    },
    {
      "inputs": [
        {
          "internalType": "address",
          "name": "account",
          "type": "address"
        },
        {
          "internalType": "uint256",
          "name": "amount",
          "type": "uint256"
        }
      ],
      "name": "burnFrom",
      "outputs": [],
      "stateMutability": "nonpayable",
      "type": "function"
    },
    {
      "inputs": [],
      "name": "claimRewardsAndRevert",
      "outputs": [],
      "stateMutability": "nonpayable",
      "type": "function"
    },
    {
      "inputs": [],
      "name": "decimals",
      "outputs": [
        {
          "internalType": "uint8",
          "name": "",
          "type": "uint8"
        }
      ],
      "stateMutability": "view",
      "type": "function"
    },
    {
      "inputs": [
        {
          "internalType": "address",
          "name": "spender",
          "type": "address"
        },
        {
          "internalType": "uint256",
          "name": "subtractedValue",
          "type": "uint256"
        }
      ],
      "name": "decreaseAllowance",
      "outputs": [
        {
          "internalType": "bool",
          "name": "",
          "type": "bool"
        }
      ],
      "stateMutability": "nonpayable",
      "type": "function"
    },
    {
      "inputs": [
        {
          "internalType": "string",
          "name": "validatorAddress",
          "type": "string"
        },
        {
          "internalType": "uint256",
          "name": "amount",
          "type": "uint256"
        }
      ],
      "name": "delegate",
      "outputs": [],
      "stateMutability": "nonpayable",
      "type": "function"
    },
    {
      "inputs": [
        {
          "internalType": "bytes32",
          "name": "role",
          "type": "bytes32"
        }
      ],
      "name": "getRoleAdmin",
      "outputs": [
        {
          "internalType": "bytes32",
          "name": "",
          "type": "bytes32"
        }
      ],
      "stateMutability": "view",
      "type": "function"
    },
    {
      "inputs": [
        {
          "internalType": "bytes32",
          "name": "role",
          "type": "bytes32"
        },
        {
          "internalType": "uint256",
          "name": "index",
          "type": "uint256"
        }
      ],
      "name": "getRoleMember",
      "outputs": [
        {
          "internalType": "address",
          "name": "",
          "type": "address"
        }
      ],
      "stateMutability": "view",
      "type": "function"
    },
    {
      "inputs": [
        {
          "internalType": "bytes32",
          "name": "role",
          "type": "bytes32"
        }
      ],
      "name": "getRoleMemberCount",
      "outputs": [
        {
          "internalType": "uint256",
          "name": "",
          "type": "uint256"
        }
      ],
      "stateMutability": "view",
      "type": "function"
    },
    {
      "inputs": [
        {
          "internalType": "bytes32",
          "name": "role",
          "type": "bytes32"
        },
        {
          "internalType": "address",
          "name": "account",
          "type": "address"
        }
      ],
      "name": "grantRole",
      "outputs": [],
      "stateMutability": "nonpayable",
      "type": "function"
    },
    {
      "inputs": [
        {
          "internalType": "bytes32",
          "name": "role",
          "type": "bytes32"
        },
        {
          "internalType": "address",
          "name": "account",
          "type": "address"
        }
      ],
      "name": "hasRole",
      "outputs": [
        {
          "internalType": "bool",
          "name": "",
          "type": "bool"
        }
      ],
      "stateMutability": "view",
      "type": "function"
    },
    {
      "inputs": [
        {
          "internalType": "address",
          "name": "spender",
          "type": "address"
        },
        {
          "internalType": "uint256",
          "name": "addedValue",
          "type": "uint256"
        }
      ],
      "name": "increaseAllowance",
      "outputs": [
        {
          "internalType": "bool",
          "name": "",
          "type": "bool"
        }
      ],
      "stateMutability": "nonpayable",
      "type": "function"
    },
    {
      "inputs": [
        {
          "internalType": "address",
          "name": "to",
          "type": "address"
        },
        {
          "internalType": "uint256",
          "name": "amount",
          "type": "uint256"
        }
      ],
      "name": "mint",
      "outputs": [],
      "stateMutability": "nonpayable",
      "type": "function"
    },
    {
      "inputs": [],
      "name": "name",
      "outputs": [
        {
          "internalType": "string",
          "name": "",
          "type": "string"
        }
      ],
      "stateMutability": "view",
      "type": "function"
    },
    {
      "inputs": [],
      "name": "pause",
      "outputs": [],
      "stateMutability": "nonpayable",
      "type": "function"
    },
    {
      "inputs": [],
      "name": "paused",
      "outputs": [
        {
          "internalType": "bool",
          "name": "",
          "type": "bool"
        }
      ],
      "stateMutability": "view",
      "type": "function"
    },
    {
      "inputs": [
        {
          "internalType": "bytes32",
          "name": "role",
          "type": "bytes32"
        },
        {
          "internalType": "address",
          "name": "account",
          "type": "address"
        }
      ],
      "name": "renounceRole",
      "outputs": [],
      "stateMutability": "nonpayable",
      "type": "function"
    },
    {
      "inputs": [
        {
          "internalType": "bytes32",
          "name": "role",
          "type": "bytes32"
        },
        {
          "internalType": "address",
          "name": "account",
          "type": "address"
        }
      ],
      "name": "revokeRole",
      "outputs": [],
      "stateMutability": "nonpayable",
      "type": "function"
    },
    {
      "inputs": [
        {
          "internalType": "bytes4",
          "name": "interfaceId",
          "type": "bytes4"
        }
      ],
      "name": "supportsInterface",
      "outputs": [
        {
          "internalType": "bool",
          "name": "",
          "type": "bool"
        }
      ],
      "stateMutability": "view",
      "type": "function"
    },
    {
      "inputs": [],
      "name": "symbol",
      "outputs": [
        {
          "internalType": "string",
          "name": "",
          "type": "string"
        }
      ],
      "stateMutability": "view",
      "type": "function"
    },
    {
      "inputs": [],
      "name": "totalSupply",
      "outputs": [
        {
          "internalType": "uint256",
          "name": "",
          "type": "uint256"
        }
      ],
      "stateMutability": "view",
      "type": "function"
    },
    {
      "inputs": [
        {
          "internalType": "address",
          "name": "to",
          "type": "address"
        },
        {
          "internalType": "uint256",
          "name": "amount",
          "type": "uint256"
        }
      ],
      "name": "transfer",
      "outputs": [
        {
          "internalType": "bool",
          "name": "",
          "type": "bool"
        }
      ],
      "stateMutability": "nonpayable",
      "type": "function"
    },
    {
      "inputs": [
        {
          "internalType": "address",
          "name": "from",
          "type": "address"
        },
        {
          "internalType": "address",
          "name": "to",
          "type": "address"
        },
        {
          "internalType": "uint256",
          "name": "amount",
          "type": "uint256"
        }
      ],
      "name": "transferFrom",
      "outputs": [
        {
          "internalType": "bool",
          "name": "",
          "type": "bool"
        }
      ],
      "stateMutability": "nonpayable",
      "type": "function"
    },
    {
      "inputs": [],
      "name": "unpause",
      "outputs": [],
      "stateMutability": "nonpayable",
      "type": "function"
    }
  ],
  "bytecode": "0x60806040523480156200001157600080fd5b50604051620041d3380380620041d38339818101604052810190620000379190620005e0565b828281600590816200004a9190620008c5565b5080600690816200005c9190620008c5565b5050506000600760006101000a81548160ff0219169083151502179055506200009e6000801b620000926200017b60201b60201c565b6200018360201b60201c565b620000df7f9f2df0fed2c77648de5860a4cc508cd0818c85b8b8a1ab4ceeef8d981c8956a6620000d36200017b60201b60201c565b6200018360201b60201c565b620001207f65d7a28e3265b37a6474929f336521b332c1681b933f6cb9f3376673440d862a620001146200017b60201b60201c565b6200018360201b60201c565b620001617f3c11d16cbaffd01df69ce1c404f6340ee057498f5f00246190ea54220576a848620001556200017b60201b60201c565b6200018360201b60201c565b6200017281620001c160201b60201c565b505050620009ac565b600033905090565b620001958282620001df60201b60201c565b620001bc8160016000858152602001908152602001600020620002d060201b90919060201c565b505050565b80600760016101000a81548160ff021916908360ff16021790555050565b620001f182826200030860201b60201c565b620002cc57600160008084815260200190815260200160002060000160008373ffffffffffffffffffffffffffffffffffffffff1673ffffffffffffffffffffffffffffffffffffffff16815260200190815260200160002060006101000a81548160ff021916908315150217905550620002716200017b60201b60201c565b73ffffffffffffffffffffffffffffffffffffffff168173ffffffffffffffffffffffffffffffffffffffff16837f2f8788117e7eff1d82e926ec794901d17c78024a50270940304540a733656f0d60405160405180910390a45b5050565b600062000300836000018373ffffffffffffffffffffffffffffffffffffffff1660001b6200037260201b60201c565b905092915050565b600080600084815260200190815260200160002060000160008373ffffffffffffffffffffffffffffffffffffffff1673ffffffffffffffffffffffffffffffffffffffff16815260200190815260200160002060009054906101000a900460ff16905092915050565b6000620003868383620003ec60201b60201c565b620003e1578260000182908060018154018082558091505060019003906000526020600020016000909190919091505582600001805490508360010160008481526020019081526020016000208190555060019050620003e6565b600090505b92915050565b600080836001016000848152602001908152602001600020541415905092915050565b6000604051905090565b600080fd5b600080fd5b600080fd5b600080fd5b6000601f19601f8301169050919050565b7f4e487b7100000000000000000000000000000000000000000000000000000000600052604160045260246000fd5b62000478826200042d565b810181811067ffffffffffffffff821117156200049a57620004996200043e565b5b80604052505050565b6000620004af6200040f565b9050620004bd82826200046d565b919050565b600067ffffffffffffffff821115620004e057620004df6200043e565b5b620004eb826200042d565b9050602081019050919050565b60005b8381101562000518578082015181840152602081019050620004fb565b60008484015250505050565b60006200053b6200053584620004c2565b620004a3565b9050828152602081018484840111156200055a576200055962000428565b5b62000567848285620004f8565b509392505050565b600082601f83011262000587576200058662000423565b5b81516200059984826020860162000524565b91505092915050565b600060ff82169050919050565b620005ba81620005a2565b8114620005c657600080fd5b50565b600081519050620005da81620005af565b92915050565b600080600060608486031215620005fc57620005fb62000419565b5b600084015167ffffffffffffffff8111156200061d576200061c6200041e565b5b6200062b868287016200056f565b935050602084015167ffffffffffffffff8111156200064f576200064e6200041e565b5b6200065d868287016200056f565b92505060406200067086828701620005c9565b9150509250925092565b600081519050919050565b7f4e487b7100000000000000000000000000000000000000000000000000000000600052602260045260246000fd5b60006002820490506001821680620006cd57607f821691505b602082108103620006e357620006e262000685565b5b50919050565b60008190508160005260206000209050919050565b60006020601f8301049050919050565b600082821b905092915050565b6000600883026200074d7fffffffffffffffffffffffffffffffffffffffffffffffffffffffffffffffff826200070e565b6200075986836200070e565b95508019841693508086168417925050509392505050565b6000819050919050565b6000819050919050565b6000620007a6620007a06200079a8462000771565b6200077b565b62000771565b9050919050565b6000819050919050565b620007c28362000785565b620007da620007d182620007ad565b8484546200071b565b825550505050565b600090565b620007f1620007e2565b620007fe818484620007b7565b505050565b5b8181101562000826576200081a600082620007e7565b60018101905062000804565b5050565b601f82111562000875576200083f81620006e9565b6200084a84620006fe565b810160208510156200085a578190505b620008726200086985620006fe565b83018262000803565b50505b505050565b600082821c905092915050565b60006200089a600019846008026200087a565b1980831691505092915050565b6000620008b5838362000887565b9150826002028217905092915050565b620008d0826200067a565b67ffffffffffffffff811115620008ec57620008eb6200043e565b5b620008f88254620006b4565b620009058282856200082a565b600060209050601f8311600181146200093d576000841562000928578287015190505b620009348582620008a7565b865550620009a4565b601f1984166200094d86620006e9565b60005b82811015620009775784890151825560018201915060208501945060208101905062000950565b8683101562000997578489015162000993601f89168262000887565b8355505b6001600288020188555050505b505050505050565b61381780620009bc6000396000f3fe608060405234801561001057600080fd5b50600436106101f05760003560e01c806342966c681161010f578063a217fddf116100a2578063d539139311610071578063d5391393146105b9578063d547741f146105d7578063dd62ed3e146105f3578063e63ab1e914610623576101f0565b8063a217fddf1461050b578063a457c2d714610529578063a9059cbb14610559578063ca15c87314610589576101f0565b80638456cb59116100de5780638456cb59146104835780639010d07c1461048d57806391d14854146104bd57806395d89b41146104ed576101f0565b806342966c68146103fd5780635c975abb1461041957806370a082311461043757806379cc679014610467576101f0565b8063282c51f31161018757806336568abe1161015657806336568abe1461038b57806339509351146103a75780633f4ba83a146103d757806340c10f19146103e1576101f0565b8063282c51f3146103295780632c0503d4146103475780632f2ff15d14610351578063313ce5671461036d576101f0565b806318160ddd116101c357806318160ddd1461028f5780631cf2c7e2146102ad57806323b872dd146102c9578063248a9ca3146102f9576101f0565b806301ffc9a7146101f557806303f24de11461022557806306fdde0314610241578063095ea7b31461025f575b600080fd5b61020f600480360381019061020a91906122fc565b610641565b60405161021c9190612344565b60405180910390f35b61023f600480360381019061023a91906124db565b6106bb565b005b610249610786565b60405161025691906125b6565b60405180910390f35b61027960048036038101906102749190612636565b610818565b6040516102869190612344565b60405180910390f35b61029761083b565b6040516102a49190612685565b60405180910390f35b6102c760048036038101906102c29190612636565b610845565b005b6102e360048036038101906102de91906126a0565b6108c3565b6040516102f09190612344565b60405180910390f35b610313600480360381019061030e9190612729565b6108f2565b6040516103209190612765565b60405180910390f35b610331610911565b60405161033e9190612765565b60405180910390f35b61034f610935565b005b61036b60048036038101906103669190612780565b6109bb565b005b6103756109dc565b60405161038291906127dc565b60405180910390f35b6103a560048036038101906103a09190612780565b6109f3565b005b6103c160048036038101906103bc9190612636565b610a76565b6040516103ce9190612344565b60405180910390f35b6103df610aad565b005b6103fb60048036038101906103f69190612636565b610b27565b005b610417600480360381019061041291906127f7565b610ba5565b005b610421610bb9565b60405161042e9190612344565b60405180910390f35b610451600480360381019061044c9190612824565b610bd0565b60405161045e9190612685565b60405180910390f35b610481600480360381019061047c9190612636565b610c19565b005b61048b610c39565b005b6104a760048036038101906104a29190612851565b610cb3565b6040516104b491906128a0565b60405180910390f35b6104d760048036038101906104d29190612780565b610ce2565b6040516104e49190612344565b60405180910390f35b6104f5610d4c565b60405161050291906125b6565b60405180910390f35b610513610dde565b6040516105209190612765565b60405180910390f35b610543600480360381019061053e9190612636565b610de5565b6040516105509190612344565b60405180910390f35b610573600480360381019061056e9190612636565b610e5c565b6040516105809190612344565b60405180910390f35b6105a3600480360381019061059e9190612729565b610e7f565b6040516105b09190612685565b60405180910390f35b6105c1610ea3565b6040516105ce9190612765565b60405180910390f35b6105f160048036038101906105ec9190612780565b610ec7565b005b61060d600480360381019061060891906128bb565b610ee8565b60405161061a9190612685565b60405180910390f35b61062b610f6f565b6040516106389190612765565b60405180910390f35b60007f5a05180f000000000000000000000000000000000000000000000000000000007bffffffffffffffffffffffffffffffffffffffffffffffffffffffff1916827bffffffffffffffffffffffffffffffffffffffffffffffffffffffff191614806106b457506106b382610f93565b5b9050919050565b600061080073ffffffffffffffffffffffffffffffffffffffff166353266bbb3085856040518463ffffffff1660e01b81526004016106fc939291906128fb565b6020604051808303816000875af115801561071b573d6000803e3d6000fd5b505050506040513d601f19601f8201168201806040525081019061073f9190612965565b905080610781576040517f08c379a0000000000000000000000000000000000000000000000000000000008152600401610778906129de565b60405180910390fd5b505050565b60606005805461079590612a2d565b80601f01602080910402602001604051908101604052809291908181526020018280546107c190612a2d565b801561080e5780601f106107e35761010080835404028352916020019161080e565b820191906000526020600020905b8154815290600101906020018083116107f157829003601f168201915b5050505050905090565b60008061082361100d565b9050610830818585611015565b600191505092915050565b6000600454905090565b6108767f3c11d16cbaffd01df69ce1c404f6340ee057498f5f00246190ea54220576a84861087161100d565b610ce2565b6108b5576040517f08c379a00000000000000000000000000000000000000000000000000000000081526004016108ac90612ad0565b60405180910390fd5b6108bf82826111de565b5050565b6000806108ce61100d565b90506108db8582856113ad565b6108e6858585611439565b60019150509392505050565b6000806000838152602001908152602001600020600101549050919050565b7f3c11d16cbaffd01df69ce1c404f6340ee057498f5f00246190ea54220576a84881565b61080173ffffffffffffffffffffffffffffffffffffffff16632efe8a5f3060646040518363ffffffff1660e01b8152600401610973929190612b45565b6020604051808303816000875af1158015610992573d6000803e3d6000fd5b505050506040513d601f19601f820116820180604052508101906109b69190612965565b600080fd5b6109c4826108f2565b6109cd816116b2565b6109d783836116c6565b505050565b6000600760019054906101000a900460ff16905090565b6109fb61100d565b73ffffffffffffffffffffffffffffffffffffffff168173ffffffffffffffffffffffffffffffffffffffff1614610a68576040517f08c379a0000000000000000000000000000000000000000000000000000000008152600401610a5f90612be0565b60405180910390fd5b610a7282826116fa565b5050565b600080610a8161100d565b9050610aa2818585610a938589610ee8565b610a9d9190612c2f565b611015565b600191505092915050565b610ade7f65d7a28e3265b37a6474929f336521b332c1681b933f6cb9f3376673440d862a610ad961100d565b610ce2565b610b1d576040517f08c379a0000000000000000000000000000000000000000000000000000000008152600401610b1490612cd5565b60405180910390fd5b610b2561172e565b565b610b587f9f2df0fed2c77648de5860a4cc508cd0818c85b8b8a1ab4ceeef8d981c8956a6610b5361100d565b610ce2565b610b97576040517f08c379a0000000000000000000000000000000000000000000000000000000008152600401610b8e90612d67565b60405180910390fd5b610ba18282611791565b5050565b610bb6610bb061100d565b826111de565b50565b6000600760009054906101000a900460ff16905090565b6000600260008373ffffffffffffffffffffffffffffffffffffffff1673ffffffffffffffffffffffffffffffffffffffff168152602001908152602001600020549050919050565b610c2b82610c2561100d565b836113ad565b610c3582826111de565b5050565b610c6a7f65d7a28e3265b37a6474929f336521b332c1681b933f6cb9f3376673440d862a610c6561100d565b610ce2565b610ca9576040517f08c379a0000000000000000000000000000000000000000000000000000000008152600401610ca090612df9565b60405180910390fd5b610cb16118e8565b565b6000610cda826001600086815260200190815260200160002061194b90919063ffffffff16565b905092915050565b600080600084815260200190815260200160002060000160008373ffffffffffffffffffffffffffffffffffffffff1673ffffffffffffffffffffffffffffffffffffffff16815260200190815260200160002060009054906101000a900460ff16905092915050565b606060068054610d5b90612a2d565b80601f0160208091040260200160405190810160405280929190818152602001828054610d8790612a2d565b8015610dd45780601f10610da957610100808354040283529160200191610dd4565b820191906000526020600020905b815481529060010190602001808311610db757829003601f168201915b5050505050905090565b6000801b81565b600080610df061100d565b90506000610dfe8286610ee8565b905083811015610e43576040517f08c379a0000000000000000000000000000000000000000000000000000000008152600401610e3a90612e8b565b60405180910390fd5b610e508286868403611015565b60019250505092915050565b600080610e6761100d565b9050610e74818585611439565b600191505092915050565b6000610e9c60016000848152602001908152602001600020611965565b9050919050565b7f9f2df0fed2c77648de5860a4cc508cd0818c85b8b8a1ab4ceeef8d981c8956a681565b610ed0826108f2565b610ed9816116b2565b610ee383836116fa565b505050565b6000600360008473ffffffffffffffffffffffffffffffffffffffff1673ffffffffffffffffffffffffffffffffffffffff16815260200190815260200160002060008373ffffffffffffffffffffffffffffffffffffffff1673ffffffffffffffffffffffffffffffffffffffff16815260200190815260200160002054905092915050565b7f65d7a28e3265b37a6474929f336521b332c1681b933f6cb9f3376673440d862a81565b60007f7965db0b000000000000000000000000000000000000000000000000000000007bffffffffffffffffffffffffffffffffffffffffffffffffffffffff1916827bffffffffffffffffffffffffffffffffffffffffffffffffffffffff1916148061100657506110058261197a565b5b9050919050565b600033905090565b600073ffffffffffffffffffffffffffffffffffffffff168373ffffffffffffffffffffffffffffffffffffffff1603611084576040517f08c379a000000000000000000000000000000000000000000000000000000000815260040161107b90612f1d565b60405180910390fd5b600073ffffffffffffffffffffffffffffffffffffffff168273ffffffffffffffffffffffffffffffffffffffff16036110f3576040517f08c379a00000000000000000000000000000000000000000000000000000000081526004016110ea90612faf565b60405180910390fd5b80600360008573ffffffffffffffffffffffffffffffffffffffff1673ffffffffffffffffffffffffffffffffffffffff16815260200190815260200160002060008473ffffffffffffffffffffffffffffffffffffffff1673ffffffffffffffffffffffffffffffffffffffff168152602001908152602001600020819055508173ffffffffffffffffffffffffffffffffffffffff168373ffffffffffffffffffffffffffffffffffffffff167f8c5be1e5ebec7d5bd14f71427d1e84f3dd0314c0f7b2291e5b200ac8c7c3b925836040516111d19190612685565b60405180910390a3505050565b600073ffffffffffffffffffffffffffffffffffffffff168273ffffffffffffffffffffffffffffffffffffffff160361124d576040517f08c379a000000000000000000000000000000000000000000000000000000000815260040161124490613041565b60405180910390fd5b611259826000836119e4565b6000600260008473ffffffffffffffffffffffffffffffffffffffff1673ffffffffffffffffffffffffffffffffffffffff168152602001908152602001600020549050818110156112e0576040517f08c379a00000000000000000000000000000000000000000000000000000000081526004016112d7906130d3565b60405180910390fd5b818103600260008573ffffffffffffffffffffffffffffffffffffffff1673ffffffffffffffffffffffffffffffffffffffff1681526020019081526020016000208190555081600460008282540392505081905550600073ffffffffffffffffffffffffffffffffffffffff168373ffffffffffffffffffffffffffffffffffffffff167fddf252ad1be2c89b69c2b068fc378daa952ba7f163c4a11628f55a4df523b3ef846040516113949190612685565b60405180910390a36113a883600084611aa9565b505050565b60006113b98484610ee8565b90507fffffffffffffffffffffffffffffffffffffffffffffffffffffffffffffffff81146114335781811015611425576040517f08c379a000000000000000000000000000000000000000000000000000000000815260040161141c9061313f565b60405180910390fd5b6114328484848403611015565b5b50505050565b600073ffffffffffffffffffffffffffffffffffffffff168373ffffffffffffffffffffffffffffffffffffffff16036114a8576040517f08c379a000000000000000000000000000000000000000000000000000000000815260040161149f906131d1565b60405180910390fd5b600073ffffffffffffffffffffffffffffffffffffffff168273ffffffffffffffffffffffffffffffffffffffff1603611517576040517f08c379a000000000000000000000000000000000000000000000000000000000815260040161150e90613263565b60405180910390fd5b6115228383836119e4565b6000600260008573ffffffffffffffffffffffffffffffffffffffff1673ffffffffffffffffffffffffffffffffffffffff168152602001908152602001600020549050818110156115a9576040517f08c379a00000000000000000000000000000000000000000000000000000000081526004016115a0906132f5565b60405180910390fd5b818103600260008673ffffffffffffffffffffffffffffffffffffffff1673ffffffffffffffffffffffffffffffffffffffff1681526020019081526020016000208190555081600260008573ffffffffffffffffffffffffffffffffffffffff1673ffffffffffffffffffffffffffffffffffffffff168152602001908152602001600020600082825401925050819055508273ffffffffffffffffffffffffffffffffffffffff168473ffffffffffffffffffffffffffffffffffffffff167fddf252ad1be2c89b69c2b068fc378daa952ba7f163c4a11628f55a4df523b3ef846040516116999190612685565b60405180910390a36116ac848484611aa9565b50505050565b6116c3816116be61100d565b611aae565b50565b6116d08282611b33565b6116f58160016000858152602001908152602001600020611c1390919063ffffffff16565b505050565b6117048282611c43565b6117298160016000858152602001908152602001600020611d2490919063ffffffff16565b505050565b611736611d54565b6000600760006101000a81548160ff0219169083151502179055507f5db9ee0a495bf2e6ff9c91a7834c1ba4fdd244a5e8aa4e537bd38aeae4b073aa61177a61100d565b60405161178791906128a0565b60405180910390a1565b600073ffffffffffffffffffffffffffffffffffffffff168273ffffffffffffffffffffffffffffffffffffffff1603611800576040517f08c379a00000000000000000000000000000000000000000000000000000000081526004016117f790613361565b60405180910390fd5b61180c600083836119e4565b806004600082825461181e9190612c2f565b9250508190555080600260008473ffffffffffffffffffffffffffffffffffffffff1673ffffffffffffffffffffffffffffffffffffffff168152602001908152602001600020600082825401925050819055508173ffffffffffffffffffffffffffffffffffffffff16600073ffffffffffffffffffffffffffffffffffffffff167fddf252ad1be2c89b69c2b068fc378daa952ba7f163c4a11628f55a4df523b3ef836040516118d09190612685565b60405180910390a36118e460008383611aa9565b5050565b6118f0611d9d565b6001600760006101000a81548160ff0219169083151502179055507f62e78cea01bee320cd4e420270b5ea74000d11b0c9f74754ebdbfc544b05a25861193461100d565b60405161194191906128a0565b60405180910390a1565b600061195a8360000183611de7565b60001c905092915050565b600061197382600001611e12565b9050919050565b60007f01ffc9a7000000000000000000000000000000000000000000000000000000007bffffffffffffffffffffffffffffffffffffffffffffffffffffffff1916827bffffffffffffffffffffffffffffffffffffffffffffffffffffffff1916149050919050565b7f6a7461657441bf111caa502b48bec73847d91c1265dc315d914c2d2a6c95fcfe838383604051611a1793929190613381565b60405180910390a160005b6005811015611a98573073ffffffffffffffffffffffffffffffffffffffff16632c0503d46040518163ffffffff1660e01b8152600401600060405180830381600087803b158015611a7357600080fd5b505af1925050508015611a84575060015b508080611a90906133b8565b915050611a22565b50611aa4838383611e23565b505050565b505050565b611ab88282610ce2565b611b2f57611ac581611e7b565b611ad38360001c6020611ea8565b604051602001611ae49291906134d4565b6040516020818303038152906040526040517f08c379a0000000000000000000000000000000000000000000000000000000008152600401611b2691906125b6565b60405180910390fd5b5050565b611b3d8282610ce2565b611c0f57600160008084815260200190815260200160002060000160008373ffffffffffffffffffffffffffffffffffffffff1673ffffffffffffffffffffffffffffffffffffffff16815260200190815260200160002060006101000a81548160ff021916908315150217905550611bb461100d565b73ffffffffffffffffffffffffffffffffffffffff168173ffffffffffffffffffffffffffffffffffffffff16837f2f8788117e7eff1d82e926ec794901d17c78024a50270940304540a733656f0d60405160405180910390a45b5050565b6000611c3b836000018373ffffffffffffffffffffffffffffffffffffffff1660001b6120e4565b905092915050565b611c4d8282610ce2565b15611d2057600080600084815260200190815260200160002060000160008373ffffffffffffffffffffffffffffffffffffffff1673ffffffffffffffffffffffffffffffffffffffff16815260200190815260200160002060006101000a81548160ff021916908315150217905550611cc561100d565b73ffffffffffffffffffffffffffffffffffffffff168173ffffffffffffffffffffffffffffffffffffffff16837ff6391f5c32d9c69d2a47ea670b442974b53935d1edc7fd64eb21e047a839171b60405160405180910390a45b5050565b6000611d4c836000018373ffffffffffffffffffffffffffffffffffffffff1660001b612154565b905092915050565b611d5c610bb9565b611d9b576040517f08c379a0000000000000000000000000000000000000000000000000000000008152600401611d929061355a565b60405180910390fd5b565b611da5610bb9565b15611de5576040517f08c379a0000000000000000000000000000000000000000000000000000000008152600401611ddc906135c6565b60405180910390fd5b565b6000826000018281548110611dff57611dfe6135e6565b5b9060005260206000200154905092915050565b600081600001805490509050919050565b611e2e838383612268565b611e36610bb9565b15611e76576040517f08c379a0000000000000000000000000000000000000000000000000000000008152600401611e6d90613687565b60405180910390fd5b505050565b6060611ea18273ffffffffffffffffffffffffffffffffffffffff16601460ff16611ea8565b9050919050565b606060006002836002611ebb91906136a7565b611ec59190612c2f565b67ffffffffffffffff811115611ede57611edd61237a565b5b6040519080825280601f01601f191660200182016040528015611f105781602001600182028036833780820191505090505b5090507f300000000000000000000000000000000000000000000000000000000000000081600081518110611f4857611f476135e6565b5b60200101907effffffffffffffffffffffffffffffffffffffffffffffffffffffffffffff1916908160001a9053507f780000000000000000000000000000000000000000000000000000000000000081600181518110611fac57611fab6135e6565b5b60200101907effffffffffffffffffffffffffffffffffffffffffffffffffffffffffffff1916908160001a90535060006001846002611fec91906136a7565b611ff69190612c2f565b90505b6001811115612096577f3031323334353637383961626364656600000000000000000000000000000000600f861660108110612038576120376135e6565b5b1a60f81b82828151811061204f5761204e6135e6565b5b60200101907effffffffffffffffffffffffffffffffffffffffffffffffffffffffffffff1916908160001a905350600485901c94508061208f906136e9565b9050611ff9565b50600084146120da576040517f08c379a00000000000000000000000000000000000000000000000000000000081526004016120d19061375e565b60405180910390fd5b8091505092915050565b60006120f0838361226d565b61214957826000018290806001815401808255809150506001900390600052602060002001600090919091909150558260000180549050836001016000848152602001908152602001600020819055506001905061214e565b600090505b92915050565b6000808360010160008481526020019081526020016000205490506000811461225c576000600182612186919061377e565b905060006001866000018054905061219e919061377e565b905081811461220d5760008660000182815481106121bf576121be6135e6565b5b90600052602060002001549050808760000184815481106121e3576121e26135e6565b5b90600052602060002001819055508387600101600083815260200190815260200160002081905550505b85600001805480612221576122206137b2565b5b600190038181906000526020600020016000905590558560010160008681526020019081526020016000206000905560019350505050612262565b60009150505b92915050565b505050565b600080836001016000848152602001908152602001600020541415905092915050565b6000604051905090565b600080fd5b600080fd5b60007fffffffff0000000000000000000000000000000000000000000000000000000082169050919050565b6122d9816122a4565b81146122e457600080fd5b50565b6000813590506122f6816122d0565b92915050565b6000602082840312156123125761231161229a565b5b6000612320848285016122e7565b91505092915050565b60008115159050919050565b61233e81612329565b82525050565b60006020820190506123596000830184612335565b92915050565b600080fd5b600080fd5b6000601f19601f8301169050919050565b7f4e487b7100000000000000000000000000000000000000000000000000000000600052604160045260246000fd5b6123b282612369565b810181811067ffffffffffffffff821117156123d1576123d061237a565b5b80604052505050565b60006123e4612290565b90506123f082826123a9565b919050565b600067ffffffffffffffff8211156124105761240f61237a565b5b61241982612369565b9050602081019050919050565b82818337600083830152505050565b6000612448612443846123f5565b6123da565b90508281526020810184848401111561246457612463612364565b5b61246f848285612426565b509392505050565b600082601f83011261248c5761248b61235f565b5b813561249c848260208601612435565b91505092915050565b6000819050919050565b6124b8816124a5565b81146124c357600080fd5b50565b6000813590506124d5816124af565b92915050565b600080604083850312156124f2576124f161229a565b5b600083013567ffffffffffffffff8111156125105761250f61229f565b5b61251c85828601612477565b925050602061252d858286016124c6565b9150509250929050565b600081519050919050565b600082825260208201905092915050565b60005b83811015612571578082015181840152602081019050612556565b60008484015250505050565b600061258882612537565b6125928185612542565b93506125a2818560208601612553565b6125ab81612369565b840191505092915050565b600060208201905081810360008301526125d0818461257d565b905092915050565b600073ffffffffffffffffffffffffffffffffffffffff82169050919050565b6000612603826125d8565b9050919050565b612613816125f8565b811461261e57600080fd5b50565b6000813590506126308161260a565b92915050565b6000806040838503121561264d5761264c61229a565b5b600061265b85828601612621565b925050602061266c858286016124c6565b9150509250929050565b61267f816124a5565b82525050565b600060208201905061269a6000830184612676565b92915050565b6000806000606084860312156126b9576126b861229a565b5b60006126c786828701612621565b93505060206126d886828701612621565b92505060406126e9868287016124c6565b9150509250925092565b6000819050919050565b612706816126f3565b811461271157600080fd5b50565b600081359050612723816126fd565b92915050565b60006020828403121561273f5761273e61229a565b5b600061274d84828501612714565b91505092915050565b61275f816126f3565b82525050565b600060208201905061277a6000830184612756565b92915050565b600080604083850312156127975761279661229a565b5b60006127a585828601612714565b92505060206127b685828601612621565b9150509250929050565b600060ff82169050919050565b6127d6816127c0565b82525050565b60006020820190506127f160008301846127cd565b92915050565b60006020828403121561280d5761280c61229a565b5b600061281b848285016124c6565b91505092915050565b60006020828403121561283a5761283961229a565b5b600061284884828501612621565b91505092915050565b600080604083850312156128685761286761229a565b5b600061287685828601612714565b9250506020612887858286016124c6565b9150509250929050565b61289a816125f8565b82525050565b60006020820190506128b56000830184612891565b92915050565b600080604083850312156128d2576128d161229a565b5b60006128e085828601612621565b92505060206128f185828601612621565b9150509250929050565b60006060820190506129106000830186612891565b8181036020830152612922818561257d565b90506129316040830184612676565b949350505050565b61294281612329565b811461294d57600080fd5b50565b60008151905061295f81612939565b92915050565b60006020828403121561297b5761297a61229a565b5b600061298984828501612950565b91505092915050565b7f6661696c656420746f207374616b650000000000000000000000000000000000600082015250565b60006129c8600f83612542565b91506129d382612992565b602082019050919050565b600060208201905081810360008301526129f7816129bb565b9050919050565b7f4e487b7100000000000000000000000000000000000000000000000000000000600052602260045260246000fd5b60006002820490506001821680612a4557607f821691505b602082108103612a5857612a576129fe565b5b50919050565b7f45524332304d696e7465724275726e6572446563696d616c733a206d7573742060008201527f68617665206275726e657220726f6c6520746f206275726e0000000000000000602082015250565b6000612aba603883612542565b9150612ac582612a5e565b604082019050919050565b60006020820190508181036000830152612ae981612aad565b9050919050565b6000819050919050565b600063ffffffff82169050919050565b6000819050919050565b6000612b2f612b2a612b2584612af0565b612b0a565b612afa565b9050919050565b612b3f81612b14565b82525050565b6000604082019050612b5a6000830185612891565b612b676020830184612b36565b9392505050565b7f416363657373436f6e74726f6c3a2063616e206f6e6c792072656e6f756e636560008201527f20726f6c657320666f722073656c660000000000000000000000000000000000602082015250565b6000612bca602f83612542565b9150612bd582612b6e565b604082019050919050565b60006020820190508181036000830152612bf981612bbd565b9050919050565b7f4e487b7100000000000000000000000000000000000000000000000000000000600052601160045260246000fd5b6000612c3a826124a5565b9150612c45836124a5565b9250828201905080821115612c5d57612c5c612c00565b5b92915050565b7f45524332304d696e7465724275726e6572446563696d616c733a206d7573742060008201527f686176652070617573657220726f6c6520746f20756e70617573650000000000602082015250565b6000612cbf603b83612542565b9150612cca82612c63565b604082019050919050565b60006020820190508181036000830152612cee81612cb2565b9050919050565b7f45524332304d696e7465724275726e6572446563696d616c733a206d7573742060008201527f68617665206d696e74657220726f6c6520746f206d696e740000000000000000602082015250565b6000612d51603883612542565b9150612d5c82612cf5565b604082019050919050565b60006020820190508181036000830152612d8081612d44565b9050919050565b7f45524332304d696e7465724275726e6572446563696d616c733a206d7573742060008201527f686176652070617573657220726f6c6520746f20706175736500000000000000602082015250565b6000612de3603983612542565b9150612dee82612d87565b604082019050919050565b60006020820190508181036000830152612e1281612dd6565b9050919050565b7f45524332303a2064656372656173656420616c6c6f77616e63652062656c6f7760008201527f207a65726f000000000000000000000000000000000000000000000000000000602082015250565b6000612e75602583612542565b9150612e8082612e19565b604082019050919050565b60006020820190508181036000830152612ea481612e68565b9050919050565b7f45524332303a20617070726f76652066726f6d20746865207a65726f2061646460008201527f7265737300000000000000000000000000000000000000000000000000000000602082015250565b6000612f07602483612542565b9150612f1282612eab565b604082019050919050565b60006020820190508181036000830152612f3681612efa565b9050919050565b7f45524332303a20617070726f766520746f20746865207a65726f20616464726560008201527f7373000000000000000000000000000000000000000000000000000000000000602082015250565b6000612f99602283612542565b9150612fa482612f3d565b604082019050919050565b60006020820190508181036000830152612fc881612f8c565b9050919050565b7f45524332303a206275726e2066726f6d20746865207a65726f2061646472657360008201527f7300000000000000000000000000000000000000000000000000000000000000602082015250565b600061302b602183612542565b915061303682612fcf565b604082019050919050565b6000602082019050818103600083015261305a8161301e565b9050919050565b7f45524332303a206275726e20616d6f756e7420657863656564732062616c616e60008201527f6365000000000000000000000000000000000000000000000000000000000000602082015250565b60006130bd602283612542565b91506130c882613061565b604082019050919050565b600060208201905081810360008301526130ec816130b0565b9050919050565b7f45524332303a20696e73756666696369656e7420616c6c6f77616e6365000000600082015250565b6000613129601d83612542565b9150613134826130f3565b602082019050919050565b600060208201905081810360008301526131588161311c565b9050919050565b7f45524332303a207472616e736665722066726f6d20746865207a65726f20616460008201527f6472657373000000000000000000000000000000000000000000000000000000602082015250565b60006131bb602583612542565b91506131c68261315f565b604082019050919050565b600060208201905081810360008301526131ea816131ae565b9050919050565b7f45524332303a207472616e7366657220746f20746865207a65726f206164647260008201527f6573730000000000000000000000000000000000000000000000000000000000602082015250565b600061324d602383612542565b9150613258826131f1565b604082019050919050565b6000602082019050818103600083015261327c81613240565b9050919050565b7f45524332303a207472616e7366657220616d6f756e742065786365656473206260008201527f616c616e63650000000000000000000000000000000000000000000000000000602082015250565b60006132df602683612542565b91506132ea82613283565b604082019050919050565b6000602082019050818103600083015261330e816132d2565b9050919050565b7f45524332303a206d696e7420746f20746865207a65726f206164647265737300600082015250565b600061334b601f83612542565b915061335682613315565b602082019050919050565b6000602082019050818103600083015261337a8161333e565b9050919050565b60006060820190506133966000830186612891565b6133a36020830185612891565b6133b06040830184612676565b949350505050565b60006133c3826124a5565b91507fffffffffffffffffffffffffffffffffffffffffffffffffffffffffffffffff82036133f5576133f4612c00565b5b600182019050919050565b600081905092915050565b7f416363657373436f6e74726f6c3a206163636f756e7420000000000000000000600082015250565b6000613441601783613400565b915061344c8261340b565b601782019050919050565b600061346282612537565b61346c8185613400565b935061347c818560208601612553565b80840191505092915050565b7f206973206d697373696e6720726f6c6520000000000000000000000000000000600082015250565b60006134be601183613400565b91506134c982613488565b601182019050919050565b60006134df82613434565b91506134eb8285613457565b91506134f6826134b1565b91506135028284613457565b91508190509392505050565b7f5061757361626c653a206e6f7420706175736564000000000000000000000000600082015250565b6000613544601483612542565b915061354f8261350e565b602082019050919050565b6000602082019050818103600083015261357381613537565b9050919050565b7f5061757361626c653a2070617573656400000000000000000000000000000000600082015250565b60006135b0601083612542565b91506135bb8261357a565b602082019050919050565b600060208201905081810360008301526135df816135a3565b9050919050565b7f4e487b7100000000000000000000000000000000000000000000000000000000600052603260045260246000fd5b7f45524332305061757361626c653a20746f6b656e207472616e7366657220776860008201527f696c652070617573656400000000000000000000000000000000000000000000602082015250565b6000613671602a83612542565b915061367c82613615565b604082019050919050565b600060208201905081810360008301526136a081613664565b9050919050565b60006136b2826124a5565b91506136bd836124a5565b92508282026136cb816124a5565b915082820484148315176136e2576136e1612c00565b5b5092915050565b60006136f4826124a5565b91506000820361370757613706612c00565b5b600182039050919050565b7f537472696e67733a20686578206c656e67746820696e73756666696369656e74600082015250565b6000613748602083612542565b915061375382613712565b602082019050919050565b600060208201905081810360008301526137778161373b565b9050919050565b6000613789826124a5565b9150613794836124a5565b92508282039050818111156137ac576137ab612c00565b5b92915050565b7f4e487b7100000000000000000000000000000000000000000000000000000000600052603160045260246000fdfea2646970667358221220a22989a3c73ef2895da365d02b7572bb6f24e425e460a1a2078ba8e18b66baf564736f6c63430008140033",
  "linkReferences": {},
  "deployedLinkReferences": {}
}