{
  "_format": "hh-sol-artifact-1",
  "contractName": "ERC20MinterBurnerDecimals",
  "sourceName": "solidity/ERC20MinterBurnerDecimals.sol",
  "abi": [
    {
      "inputs": [
        {
          "internalType": "string",
          "name": "name",
          "type": "string"
        },
        {
          "internalType": "string",
          "name": "symbol",
          "type": "string"
        },
        {
          "internalType": "uint8",
          "name": "decimals_",
          "type": "uint8"
        }
      ],
      "stateMutability": "nonpayable",
      "type": "constructor"
    },
    {
      "anonymous": false,
      "inputs": [
        {
          "indexed": true,
          "internalType": "address",
          "name": "owner",
          "type": "address"
        },
        {
          "indexed": true,
          "internalType": "address",
          "name": "spender",
          "type": "address"
        },
        {
          "indexed": false,
          "internalType": "uint256",
          "name": "value",
          "type": "uint256"
        }
      ],
      "name": "Approval",
      "type": "event"
    },
    {
      "anonymous": false,
      "inputs": [
        {
          "indexed": false,
          "internalType": "address",
          "name": "account",
          "type": "address"
        }
      ],
      "name": "Paused",
      "type": "event"
    },
    {
      "anonymous": false,
      "inputs": [
        {
          "indexed": true,
          "internalType": "bytes32",
          "name": "role",
          "type": "bytes32"
        },
        {
          "indexed": true,
          "internalType": "bytes32",
          "name": "previousAdminRole",
          "type": "bytes32"
        },
        {
          "indexed": true,
          "internalType": "bytes32",
          "name": "newAdminRole",
          "type": "bytes32"
        }
      ],
      "name": "RoleAdminChanged",
      "type": "event"
    },
    {
      "anonymous": false,
      "inputs": [
        {
          "indexed": true,
          "internalType": "bytes32",
          "name": "role",
          "type": "bytes32"
        },
        {
          "indexed": true,
          "internalType": "address",
          "name": "account",
          "type": "address"
        },
        {
          "indexed": true,
          "internalType": "address",
          "name": "sender",
          "type": "address"
        }
      ],
      "name": "RoleGranted",
      "type": "event"
    },
    {
      "anonymous": false,
      "inputs": [
        {
          "indexed": true,
          "internalType": "bytes32",
          "name": "role",
          "type": "bytes32"
        },
        {
          "indexed": true,
          "internalType": "address",
          "name": "account",
          "type": "address"
        },
        {
          "indexed": true,
          "internalType": "address",
          "name": "sender",
          "type": "address"
        }
      ],
      "name": "RoleRevoked",
      "type": "event"
    },
    {
      "anonymous": false,
      "inputs": [
        {
          "indexed": true,
          "internalType": "address",
          "name": "from",
          "type": "address"
        },
        {
          "indexed": true,
          "internalType": "address",
          "name": "to",
          "type": "address"
        },
        {
          "indexed": false,
          "internalType": "uint256",
          "name": "value",
          "type": "uint256"
        }
      ],
      "name": "Transfer",
      "type": "event"
    },
    {
      "anonymous": false,
      "inputs": [
        {
          "indexed": false,
          "internalType": "address",
          "name": "account",
          "type": "address"
        }
      ],
      "name": "Unpaused",
      "type": "event"
    },
    {
      "inputs": [],
      "name": "BURNER_ROLE",
      "outputs": [
        {
          "internalType": "bytes32",
          "name": "",
          "type": "bytes32"
        }
      ],
      "stateMutability": "view",
      "type": "function"
    },
    {
      "inputs": [],
      "name": "DEFAULT_ADMIN_ROLE",
      "outputs": [
        {
          "internalType": "bytes32",
          "name": "",
          "type": "bytes32"
        }
      ],
      "stateMutability": "view",
      "type": "function"
    },
    {
      "inputs": [],
      "name": "MINTER_ROLE",
      "outputs": [
        {
          "internalType": "bytes32",
          "name": "",
          "type": "bytes32"
        }
      ],
      "stateMutability": "view",
      "type": "function"
    },
    {
      "inputs": [],
      "name": "PAUSER_ROLE",
      "outputs": [
        {
          "internalType": "bytes32",
          "name": "",
          "type": "bytes32"
        }
      ],
      "stateMutability": "view",
      "type": "function"
    },
    {
      "inputs": [
        {
          "internalType": "address",
          "name": "owner",
          "type": "address"
        },
        {
          "internalType": "address",
          "name": "spender",
          "type": "address"
        }
      ],
      "name": "allowance",
      "outputs": [
        {
          "internalType": "uint256",
          "name": "",
          "type": "uint256"
        }
      ],
      "stateMutability": "view",
      "type": "function"
    },
    {
      "inputs": [
        {
          "internalType": "address",
          "name": "spender",
          "type": "address"
        },
        {
          "internalType": "uint256",
          "name": "amount",
          "type": "uint256"
        }
      ],
      "name": "approve",
      "outputs": [
        {
          "internalType": "bool",
          "name": "",
          "type": "bool"
        }
      ],
      "stateMutability": "nonpayable",
      "type": "function"
    },
    {
      "inputs": [
        {
          "internalType": "address",
          "name": "account",
          "type": "address"
        }
      ],
      "name": "balanceOf",
      "outputs": [
        {
          "internalType": "uint256",
          "name": "",
          "type": "uint256"
        }
      ],
      "stateMutability": "view",
      "type": "function"
    },
    {
      "inputs": [
        {
          "internalType": "uint256",
          "name": "amount",
          "type": "uint256"
        }
      ],
      "name": "burn",
      "outputs": [],
      "stateMutability": "nonpayable",
      "type": "function"
    },
    {
      "inputs": [
        {
          "internalType": "address",
          "name": "from",
          "type": "address"
        },
        {
          "internalType": "uint256",
          "name": "amount",
          "type": "uint256"
        }
      ],
      "name": "burnCoins",
      "outputs": [],
      "stateMutability": "nonpayable",
      "type": "function"
    },
    {
      "inputs": [
        {
          "internalType": "address",
          "name": "account",
          "type": "address"
        },
        {
          "internalType": "uint256",
          "name": "amount",
          "type": "uint256"
        }
      ],
      "name": "burnFrom",
      "outputs": [],
      "stateMutability": "nonpayable",
      "type": "function"
    },
    {
      "inputs": [],
      "name": "decimals",
      "outputs": [
        {
          "internalType": "uint8",
          "name": "",
          "type": "uint8"
        }
      ],
      "stateMutability": "view",
      "type": "function"
    },
    {
      "inputs": [
        {
          "internalType": "address",
          "name": "spender",
          "type": "address"
        },
        {
          "internalType": "uint256",
          "name": "subtractedValue",
          "type": "uint256"
        }
      ],
      "name": "decreaseAllowance",
      "outputs": [
        {
          "internalType": "bool",
          "name": "",
          "type": "bool"
        }
      ],
      "stateMutability": "nonpayable",
      "type": "function"
    },
    {
      "inputs": [
        {
          "internalType": "bytes32",
          "name": "role",
          "type": "bytes32"
        }
      ],
      "name": "getRoleAdmin",
      "outputs": [
        {
          "internalType": "bytes32",
          "name": "",
          "type": "bytes32"
        }
      ],
      "stateMutability": "view",
      "type": "function"
    },
    {
      "inputs": [
        {
          "internalType": "bytes32",
          "name": "role",
          "type": "bytes32"
        },
        {
          "internalType": "uint256",
          "name": "index",
          "type": "uint256"
        }
      ],
      "name": "getRoleMember",
      "outputs": [
        {
          "internalType": "address",
          "name": "",
          "type": "address"
        }
      ],
      "stateMutability": "view",
      "type": "function"
    },
    {
      "inputs": [
        {
          "internalType": "bytes32",
          "name": "role",
          "type": "bytes32"
        }
      ],
      "name": "getRoleMemberCount",
      "outputs": [
        {
          "internalType": "uint256",
          "name": "",
          "type": "uint256"
        }
      ],
      "stateMutability": "view",
      "type": "function"
    },
    {
      "inputs": [
        {
          "internalType": "bytes32",
          "name": "role",
          "type": "bytes32"
        },
        {
          "internalType": "address",
          "name": "account",
          "type": "address"
        }
      ],
      "name": "grantRole",
      "outputs": [],
      "stateMutability": "nonpayable",
      "type": "function"
    },
    {
      "inputs": [
        {
          "internalType": "bytes32",
          "name": "role",
          "type": "bytes32"
        },
        {
          "internalType": "address",
          "name": "account",
          "type": "address"
        }
      ],
      "name": "hasRole",
      "outputs": [
        {
          "internalType": "bool",
          "name": "",
          "type": "bool"
        }
      ],
      "stateMutability": "view",
      "type": "function"
    },
    {
      "inputs": [
        {
          "internalType": "address",
          "name": "spender",
          "type": "address"
        },
        {
          "internalType": "uint256",
          "name": "addedValue",
          "type": "uint256"
        }
      ],
      "name": "increaseAllowance",
      "outputs": [
        {
          "internalType": "bool",
          "name": "",
          "type": "bool"
        }
      ],
      "stateMutability": "nonpayable",
      "type": "function"
    },
    {
      "inputs": [
        {
          "internalType": "address",
          "name": "to",
          "type": "address"
        },
        {
          "internalType": "uint256",
          "name": "amount",
          "type": "uint256"
        }
      ],
      "name": "mint",
      "outputs": [],
      "stateMutability": "nonpayable",
      "type": "function"
    },
    {
      "inputs": [],
      "name": "name",
      "outputs": [
        {
          "internalType": "string",
          "name": "",
          "type": "string"
        }
      ],
      "stateMutability": "view",
      "type": "function"
    },
    {
      "inputs": [],
      "name": "pause",
      "outputs": [],
      "stateMutability": "nonpayable",
      "type": "function"
    },
    {
      "inputs": [],
      "name": "paused",
      "outputs": [
        {
          "internalType": "bool",
          "name": "",
          "type": "bool"
        }
      ],
      "stateMutability": "view",
      "type": "function"
    },
    {
      "inputs": [
        {
          "internalType": "bytes32",
          "name": "role",
          "type": "bytes32"
        },
        {
          "internalType": "address",
          "name": "account",
          "type": "address"
        }
      ],
      "name": "renounceRole",
      "outputs": [],
      "stateMutability": "nonpayable",
      "type": "function"
    },
    {
      "inputs": [
        {
          "internalType": "bytes32",
          "name": "role",
          "type": "bytes32"
        },
        {
          "internalType": "address",
          "name": "account",
          "type": "address"
        }
      ],
      "name": "revokeRole",
      "outputs": [],
      "stateMutability": "nonpayable",
      "type": "function"
    },
    {
      "inputs": [
        {
          "internalType": "bytes4",
          "name": "interfaceId",
          "type": "bytes4"
        }
      ],
      "name": "supportsInterface",
      "outputs": [
        {
          "internalType": "bool",
          "name": "",
          "type": "bool"
        }
      ],
      "stateMutability": "view",
      "type": "function"
    },
    {
      "inputs": [],
      "name": "symbol",
      "outputs": [
        {
          "internalType": "string",
          "name": "",
          "type": "string"
        }
      ],
      "stateMutability": "view",
      "type": "function"
    },
    {
      "inputs": [],
      "name": "totalSupply",
      "outputs": [
        {
          "internalType": "uint256",
          "name": "",
          "type": "uint256"
        }
      ],
      "stateMutability": "view",
      "type": "function"
    },
    {
      "inputs": [
        {
          "internalType": "address",
          "name": "to",
          "type": "address"
        },
        {
          "internalType": "uint256",
          "name": "amount",
          "type": "uint256"
        }
      ],
      "name": "transfer",
      "outputs": [
        {
          "internalType": "bool",
          "name": "",
          "type": "bool"
        }
      ],
      "stateMutability": "nonpayable",
      "type": "function"
    },
    {
      "inputs": [
        {
          "internalType": "address",
          "name": "from",
          "type": "address"
        },
        {
          "internalType": "address",
          "name": "to",
          "type": "address"
        },
        {
          "internalType": "uint256",
          "name": "amount",
          "type": "uint256"
        }
      ],
      "name": "transferFrom",
      "outputs": [
        {
          "internalType": "bool",
          "name": "",
          "type": "bool"
        }
      ],
      "stateMutability": "nonpayable",
      "type": "function"
    },
    {
      "inputs": [],
      "name": "unpause",
      "outputs": [],
      "stateMutability": "nonpayable",
      "type": "function"
    }
  ],
  "bytecode": "0x60406080815234620005715762001f80803803806200001e8162000576565b9283398101606082820312620005715781516001600160401b039190828111620005715781620000509185016200059c565b9160209182850151828111620005715786916200006f9187016200059c565b9401519360ff851685036200057157835182811162000488576005918254916001968784811c9416801562000566575b8785101462000467578190601f9485811162000512575b508790858311600114620004aa576000926200049e575b5050600019600383901b1c191690871b1783555b805193841162000488576006548681811c911680156200047d575b86821014620004675784938382116200040d575b505084918311600114620003a35760009262000397575b5050600019600383901b1c191690831b176006555b60ff19806007541660075560008052600082528460002033600052825260ff856000205416156200035c575b600080528282526200017e33866000206200060e565b507f9f2df0fed2c77648de5860a4cc508cd0818c85b8b8a1ab4ceeef8d981c8956a680600052600083528560002033600052835260ff8660002054161562000321575b600052828252620001d633866000206200060e565b507f65d7a28e3265b37a6474929f336521b332c1681b933f6cb9f3376673440d862a80600052600083528560002033600052835260ff86600020541615620002e6575b6000528282526200022e33866000206200060e565b507f3c11d16cbaffd01df69ce1c404f6340ee057498f5f00246190ea54220576a8489081600052600083528560002033600052835260ff86600020541615620002aa575b50600052526200028633836000206200060e565b5061ff006007549160081b169061ff00191617600755516118c490816200069c8239f35b81600052600083528560002033600052835283866000209182541617905533338260008051602062001f60833981519152600080a43862000272565b80600052600083528560002033600052835285600020848382541617905533338260008051602062001f60833981519152600080a462000219565b80600052600083528560002033600052835285600020848382541617905533338260008051602062001f60833981519152600080a4620001c1565b6000805260008252846000203360005282528460002083828254161790553333600060008051602062001f608339815191528180a462000168565b01519050388062000127565b90859350601f198316916006600052856000209260005b87828210620003f65750508411620003dc575b505050811b016006556200013c565b015160001960f88460031b161c19169055388080620003cd565b8385015186558997909501949384019301620003ba565b90919293506006600052856000209084808701821c8301938888106200045d575b9187968a93969594929601901c01915b8281106200044d575062000110565b600081558695508891016200043e565b935082936200042e565b634e487b7160e01b600052602260045260246000fd5b90607f1690620000fc565b634e487b7160e01b600052604160045260246000fd5b015190503880620000cd565b90899350601f1983169187600052896000209260005b8b828210620004fb5750508411620004e1575b505050811b018355620000e1565b015160001960f88460031b161c19169055388080620004d3565b8385015186558d97909501949384019301620004c0565b909150856000528760002085808501881c8201928a86106200055c575b918b918695949301891c01915b8281106200054c575050620000b6565b600081558594508b91016200053c565b925081926200052f565b93607f16936200009f565b600080fd5b6040519190601f01601f191682016001600160401b038111838210176200048857604052565b919080601f84011215620005715782516001600160401b0381116200048857602090620005d2601f8201601f1916830162000576565b92818452828287010111620005715760005b818110620005fa57508260009394955001015290565b8581018301518482018401528201620005e4565b919060018301600090828252806020526040822054156000146200069557845494680100000000000000008610156200068157600186018082558610156200066d57836040949596828552602085200155549382526020522055600190565b634e487b7160e01b83526032600452602483fd5b634e487b7160e01b83526041600452602483fd5b5092505056fe608060408181526004918236101561001657600080fd5b600092833560e01c91826301ffc9a714610d3a5750816306fdde0314610c99578163095ea7b314610c6f57816318160ddd14610c515781631cf2c7e214610b9b57816323b872dd14610b5e578163248a9ca314610b34578163282c51f314610af95781632f2ff15d14610a45578163313ce56714610a2057816336568abe1461098e578163395093511461093e5781633f4ba83a1461083057816340c10f191461069957816342966c681461067b5781635c975abb1461065757816370a082311461061f57816379cc6790146105ef5781638456cb59146104e75781639010d07c146104a657816391d148541461046057816395d89b411461037b578163a217fddf14610360578163a457c2d7146102b8578163a9059cbb14610287578163ca15c8731461025f578163d539139314610224578163d547741f146101e257508063dd62ed3e1461019a5763e63ab1e91461016f57600080fd5b346101965781600319360112610196576020905160008051602061182f8339815191528152f35b5080fd5b5034610196578060031936011261019657806020926101b7610df6565b6101bf610e11565b6001600160a01b0391821683526003865283832091168252845220549051908152f35b9190503461022057806003193601126102205761021d91356102186001610207610e11565b938387528660205286200154610e27565b611187565b80f35b8280fd5b505034610196578160031936011261019657602090517f9f2df0fed2c77648de5860a4cc508cd0818c85b8b8a1ab4ceeef8d981c8956a68152f35b9050346102205760203660031901126102205760209282913581526001845220549051908152f35b5050346101965780600319360112610196576020906102b16102a7610df6565b6024359033611231565b5160018152f35b9050823461035d578260031936011261035d576102d3610df6565b918360243592338152600360205281812060018060a01b038616825260205220549082821061030c576020856102b185850387336113f1565b608490602086519162461bcd60e51b8352820152602560248201527f45524332303a2064656372656173656420616c6c6f77616e63652062656c6f77604482015264207a65726f60d81b6064820152fd5b80fd5b50503461019657816003193601126101965751908152602090f35b91905034610220578260031936011261022057805191836006549060019082821c928281168015610456575b6020958686108214610443575084885290811561042157506001146103e6575b6103e286866103d8828b038361114f565b5191829182610dca565b0390f35b929550600683528583205b82841061040e57505050826103e2946103d89282010194386103c7565b80548685018801529286019281016103f1565b60ff191687860152505050151560051b83010192506103d8826103e2386103c7565b634e487b7160e01b845260229052602483fd5b93607f16936103a7565b9050346102205781600319360112610220578160209360ff92610481610e11565b903582528186528282206001600160a01b039091168252855220549151911615158152f35b9050346102205781600319360112610220576020926104d191358152600184528260243591206116b5565b905491519160018060a01b039160031b1c168152f35b90503461022057826003193601126102205760008051602061182f83398151915283528260205281832033845260205260ff82842054161561059d576007549060ff8216610567575060ff1916600117600755513381527f62e78cea01bee320cd4e420270b5ea74000d11b0c9f74754ebdbfc544b05a25890602090a180f35b606490602084519162461bcd60e51b8352820152601060248201526f14185d5cd8589b194e881c185d5cd95960821b6044820152fd5b6020608492519162461bcd60e51b83528201526039602482015260008051602061186f833981519152604482015278686176652070617573657220726f6c6520746f20706175736560381b6064820152fd5b5050346101965736600319011261035d5761021d61060b610df6565b6024359061061a8233836114f3565b61158b565b5050346101965760203660031901126101965760209181906001600160a01b03610647610df6565b1681526002845220549051908152f35b50503461019657816003193601126101965760209060ff6007541690519015158152f35b8390346101965760203660031901126101965761021d90353361158b565b919050346102205780600319360112610220576106b4610df6565b90602435907f9f2df0fed2c77648de5860a4cc508cd0818c85b8b8a1ab4ceeef8d981c8956a68552602092858452818620338752845260ff8287205416156107de576001600160a01b031693841561079d5760ff6007541661074957918593918361072f8360008051602061184f833981519152965461120e565b90558585526002835280852082815401905551908152a380f35b83608492519162461bcd60e51b8352820152602a60248201527f45524332305061757361626c653a20746f6b656e207472616e736665722077686044820152691a5b19481c185d5cd95960b21b6064820152fd5b83606492519162461bcd60e51b8352820152601f60248201527f45524332303a206d696e7420746f20746865207a65726f2061646472657373006044820152fd5b815162461bcd60e51b81528086018590526038602482015260008051602061186f8339815191526044820152771a185d99481b5a5b9d195c881c9bdb19481d1bc81b5a5b9d60421b6064820152608490fd5b90503461022057826003193601126102205760008051602061182f83398151915283528260205281832033845260205260ff8284205416156108e8576007549060ff8216156108ae575060ff1916600755513381527f5db9ee0a495bf2e6ff9c91a7834c1ba4fdd244a5e8aa4e537bd38aeae4b073aa90602090a180f35b606490602084519162461bcd60e51b8352820152601460248201527314185d5cd8589b194e881b9bdd081c185d5cd95960621b6044820152fd5b6020608492519162461bcd60e51b8352820152603b602482015260008051602061186f83398151915260448201527f686176652070617573657220726f6c6520746f20756e706175736500000000006064820152fd5b5050346101965780600319360112610196576102b1602092610987610961610df6565b338352600386528483206001600160a01b0382168452865291849020546024359061120e565b90336113f1565b839150346101965782600319360112610196576109a9610e11565b90336001600160a01b038316036109c5579061021d9135611187565b608490602085519162461bcd60e51b8352820152602f60248201527f416363657373436f6e74726f6c3a2063616e206f6e6c792072656e6f756e636560448201526e103937b632b9903337b91039b2b63360891b6064820152fd5b50503461019657816003193601126101965760209060ff60075460081c169051908152f35b91905034610220578060031936011261022057610aae9135906001610a68610e11565b92808652602090868252610a80838589200154610e27565b80875286825283872094838060a01b031694858852825260ff848820541615610ab2575b86525283206116cd565b5080f35b8087528682528387208588528252838720805460ff1916841790553385827f2f8788117e7eff1d82e926ec794901d17c78024a50270940304540a733656f0d8a80a4610aa4565b505034610196578160031936011261019657602090517f3c11d16cbaffd01df69ce1c404f6340ee057498f5f00246190ea54220576a8488152f35b90503461022057602036600319011261022057816020936001923581528085522001549051908152f35b505034610196576060366003190112610196576020906102b1610b7f610df6565b610b87610e11565b60443591610b968333836114f3565b611231565b905034610220578160031936011261022057610bb5610df6565b917f3c11d16cbaffd01df69ce1c404f6340ee057498f5f00246190ea54220576a84884528360205280842033855260205260ff818520541615610bff578361021d6024358561158b565b906020608492519162461bcd60e51b83528201526038602482015260008051602061186f8339815191526044820152773430bb3290313ab93732b9103937b632903a3790313ab93760411b6064820152fd5b90503461022057826003193601126102205760209250549051908152f35b5050346101965780600319360112610196576020906102b1610c8f610df6565b60243590336113f1565b91905034610220578260031936011261022057805191836005549060019082821c928281168015610d30575b602095868610821461044357508488529081156104215750600114610cf5576103e286866103d8828b038361114f565b929550600583528583205b828410610d1d57505050826103e2946103d89282010194386103c7565b8054868501880152928601928101610d00565b93607f1693610cc5565b849134610220576020366003190112610220573563ffffffff60e01b81168091036102205760209250635a05180f60e01b8114908115610d7c575b5015158152f35b637965db0b60e01b811491508115610d96575b5083610d75565b6301ffc9a760e01b14905083610d8f565b60005b838110610dba5750506000910152565b8181015183820152602001610daa565b60409160208252610dea8151809281602086015260208686019101610da7565b601f01601f1916010190565b600435906001600160a01b0382168203610e0c57565b600080fd5b602435906001600160a01b0382168203610e0c57565b6000818152602090808252604092838220338352835260ff848320541615610e4f5750505050565b835167ffffffffffffffff919033606082018481118382101761113b578752602a825285820192873685378251156111275760308453825191600192831015611113576078602185015360295b8381116110a9575061106757908751946080860190868210908211176110535788526042855286850195606036883785511561103f5760308753855182101561103f5790607860218701536041915b818311610fd157505050610f8f57938593610f7593610f66604894610f3d76020b1b1b2b9b9a1b7b73a3937b61d1030b1b1b7bab73a1604d1b99610f8b9b519a8b978801525180926037880190610da7565b8401917001034b99036b4b9b9b4b733903937b6329607d1b603784015251809386840190610da7565b0103602881018552018361114f565b5162461bcd60e51b815291829160048301610dca565b0390fd5b60648587519062461bcd60e51b825280600483015260248201527f537472696e67733a20686578206c656e67746820696e73756666696369656e746044820152fd5b909192600f8116601081101561102b576f181899199a1a9b1b9c1cb0b131b232b360811b901a611001858961168e565b5360041c92801561101757600019019190610eeb565b634e487b7160e01b82526011600452602482fd5b634e487b7160e01b83526032600452602483fd5b634e487b7160e01b81526032600452602490fd5b634e487b7160e01b87526041600452602487fd5b60648789519062461bcd60e51b825280600483015260248201527f537472696e67733a20686578206c656e67746820696e73756666696369656e746044820152fd5b90600f811660108110156110ff576f181899199a1a9b1b9c1cb0b131b232b360811b901a6110d7838761168e565b5360041c9080156110eb5760001901610e9c565b634e487b7160e01b88526011600452602488fd5b634e487b7160e01b89526032600452602489fd5b634e487b7160e01b87526032600452602487fd5b634e487b7160e01b86526032600452602486fd5b634e487b7160e01b86526041600452602486fd5b90601f8019910116810190811067ffffffffffffffff82111761117157604052565b634e487b7160e01b600052604160045260246000fd5b9060406111c492600090808252816020528282209360018060a01b03169384835260205260ff83832054166111c7575b8152600160205220611752565b50565b8082528160205282822084835260205282822060ff1981541690553384827ff6391f5c32d9c69d2a47ea670b442974b53935d1edc7fd64eb21e047a839171b8580a46111b7565b9190820180921161121b57565b634e487b7160e01b600052601160045260246000fd5b6001600160a01b0390811691821561139e571691821561134d5760ff600754166112f557600082815260026020526040812054918083106112a1576040828260008051602061184f83398151915295876020965260028652038282205586815220818154019055604051908152a3565b60405162461bcd60e51b815260206004820152602660248201527f45524332303a207472616e7366657220616d6f756e7420657863656564732062604482015265616c616e636560d01b6064820152608490fd5b60405162461bcd60e51b815260206004820152602a60248201527f45524332305061757361626c653a20746f6b656e207472616e736665722077686044820152691a5b19481c185d5cd95960b21b6064820152608490fd5b60405162461bcd60e51b815260206004820152602360248201527f45524332303a207472616e7366657220746f20746865207a65726f206164647260448201526265737360e81b6064820152608490fd5b60405162461bcd60e51b815260206004820152602560248201527f45524332303a207472616e736665722066726f6d20746865207a65726f206164604482015264647265737360d81b6064820152608490fd5b6001600160a01b039081169182156114a257169182156114525760207f8c5be1e5ebec7d5bd14f71427d1e84f3dd0314c0f7b2291e5b200ac8c7c3b925918360005260038252604060002085600052825280604060002055604051908152a3565b60405162461bcd60e51b815260206004820152602260248201527f45524332303a20617070726f766520746f20746865207a65726f206164647265604482015261737360f01b6064820152608490fd5b60405162461bcd60e51b8152602060048201526024808201527f45524332303a20617070726f76652066726f6d20746865207a65726f206164646044820152637265737360e01b6064820152608490fd5b9060018060a01b038083166000526003602052604060002090821660005260205260406000205492600019840361152b575b50505050565b8084106115465761153d9303916113f1565b38808080611525565b60405162461bcd60e51b815260206004820152601d60248201527f45524332303a20696e73756666696369656e7420616c6c6f77616e63650000006044820152606490fd5b6001600160a01b0316801561163f5760ff600754166112f557806000526002602052604060002054918083106115ef5760208160008051602061184f83398151915292600095858752600284520360408620558060045403600455604051908152a3565b60405162461bcd60e51b815260206004820152602260248201527f45524332303a206275726e20616d6f756e7420657863656564732062616c616e604482015261636560f01b6064820152608490fd5b60405162461bcd60e51b815260206004820152602160248201527f45524332303a206275726e2066726f6d20746865207a65726f206164647265736044820152607360f81b6064820152608490fd5b90815181101561169f570160200190565b634e487b7160e01b600052603260045260246000fd5b805482101561169f5760005260206000200190600090565b9190600183016000908282528060205260408220541560001461174c57845494600160401b8610156117385783611728611711886001604098999a018555846116b5565b819391549060031b91821b91600019901b19161790565b9055549382526020522055600190565b634e487b7160e01b83526041600452602483fd5b50925050565b906001820190600092818452826020526040842054908115156000146118275760001991808301818111611813578254908482019182116110eb578082036117de575b505050805480156117ca578201916117ad83836116b5565b909182549160031b1b191690555582526020526040812055600190565b634e487b7160e01b86526031600452602486fd5b6117fe6117ee61171193866116b5565b90549060031b1c928392866116b5565b90558652846020526040862055388080611795565b634e487b7160e01b87526011600452602487fd5b505050509056fe65d7a28e3265b37a6474929f336521b332c1681b933f6cb9f3376673440d862addf252ad1be2c89b69c2b068fc378daa952ba7f163c4a11628f55a4df523b3ef45524332304d696e7465724275726e6572446563696d616c733a206d75737420a2646970667358221220ce1ae6525e01655a7cc9c91e11284a74018763a1d850a7c67f6a12c52b68836964736f6c634300081400332f8788117e7eff1d82e926ec794901d17c78024a50270940304540a733656f0d",
  "linkReferences": {},
  "deployedLinkReferences": {}
}