{
  "_format": "hh-sol-artifact-1",
  "contractName": "WATOM",
  "sourceName": "solidity/WATOM.sol",
  "abi": [
    {
      "anonymous": false,
      "inputs": [
        {
          "indexed": true,
          "internalType": "address",
          "name": "dst",
          "type": "address"
        },
        {
          "indexed": false,
          "internalType": "uint256",
          "name": "amount",
          "type": "uint256"
        }
      ],
      "name": "Deposit",
      "type": "event"
    },
    {
      "anonymous": false,
      "inputs": [
        {
          "indexed": true,
          "internalType": "address",
          "name": "src",
          "type": "address"
        },
        {
          "indexed": true,
          "internalType": "address",
          "name": "dst",
          "type": "address"
        },
        {
          "indexed": false,
          "internalType": "uint256",
          "name": "amount",
          "type": "uint256"
        }
      ],
      "name": "Transfer",
      "type": "event"
    },
    {
      "anonymous": false,
      "inputs": [
        {
          "indexed": true,
          "internalType": "address",
          "name": "src",
          "type": "address"
        },
        {
          "indexed": false,
          "internalType": "uint256",
          "name": "amount",
          "type": "uint256"
        }
      ],
      "name": "Withdrawal",
      "type": "event"
    },
    {
      "inputs": [
        {
          "internalType": "address",
          "name": "",
          "type": "address"
        }
      ],
      "name": "balanceOf",
      "outputs": [
        {
          "internalType": "uint256",
          "name": "",
          "type": "uint256"
        }
      ],
      "stateMutability": "view",
      "type": "function"
    },
    {
      "inputs": [],
      "name": "decimals",
      "outputs": [
        {
          "internalType": "uint8",
          "name": "",
          "type": "uint8"
        }
      ],
      "stateMutability": "view",
      "type": "function"
    },
    {
      "inputs": [],
      "name": "deposit",
      "outputs": [],
      "stateMutability": "payable",
      "type": "function"
    },
    {
      "inputs": [],
      "name": "name",
      "outputs": [
        {
          "internalType": "string",
          "name": "",
          "type": "string"
        }
      ],
      "stateMutability": "view",
      "type": "function"
    },
    {
      "inputs": [],
      "name": "symbol",
      "outputs": [
        {
          "internalType": "string",
          "name": "",
          "type": "string"
        }
      ],
      "stateMutability": "view",
      "type": "function"
    },
    {
      "inputs": [
        {
          "internalType": "address",
          "name": "to",
          "type": "address"
        },
        {
          "internalType": "uint256",
          "name": "amount",
          "type": "uint256"
        }
      ],
      "name": "transfer",
      "outputs": [
        {
          "internalType": "bool",
          "name": "",
          "type": "bool"
        }
      ],
      "stateMutability": "nonpayable",
      "type": "function"
    },
    {
      "inputs": [
        {
          "internalType": "uint256",
          "name": "amount",
          "type": "uint256"
        }
      ],
      "name": "withdraw",
      "outputs": [],
      "stateMutability": "nonpayable",
      "type": "function"
    },
    {
      "stateMutability": "payable",
      "type": "receive"
    }
  ],
  "bytecode": "0x6080604052346100cb57600061001581546100d0565b601f81116100a1575b5060186b577261707065642041746f6d60a01b01815560019061004182546100d0565b90601f8211610075575b600a645741544f4d60d81b0183556002805460ff191660121790556040516105c1908161010b8239f35b82815282601f60208320930160051c8301925b83811061009657505061004b565b828155018390610088565b818052601f60208320910160051c8101905b8181106100c0575061001e565b8281556001016100b3565b600080fd5b90600182811c92168015610100575b60208310146100ea57565b634e487b7160e01b600052602260045260246000fd5b91607f16916100df56fe60806040908082526004918236101561002b575b505050361561002157600080fd5b6100296104f2565b005b600092833560e01c92836306fdde0314610399575082632e1a7d4d14610287578263313ce5671461026557826370a082311461022d57826395d89b411461014857508163a9059cbb146100a3575063d0e30db01461008a578080610013565b806003193601126100a05761009d6104f2565b80f35b80fd5b9050346101445780600319360112610144576020916100c06104b4565b8260243591338452600386526100db8383862054101561053b565b338452600386528184206100f084825461057e565b90556001600160a01b031680845260038652922080546101119083906104cf565b905582519081527fddf252ad1be2c89b69c2b068fc378daa952ba7f163c4a11628f55a4df523b3ef843392a35160018152f35b5080fd5b91503461022957826003193601126102295780519183600180549182821c92828116801561021f575b602095868610821461020c57508488529081156101ea57506001146101b0575b6101ac86866101a2828b0383610433565b519182918261046b565b0390f35b9295508083528583205b8284106101d757505050826101ac946101a2928201019438610191565b80548685018801529286019281016101ba565b60ff191687860152505050151560051b83010192506101a2826101ac38610191565b634e487b7160e01b845260229052602483fd5b93607f1693610171565b8280fd5b8382346101445760203660031901126101445760209181906001600160a01b036102556104b4565b1681526003845220549051908152f35b83823461014457816003193601126101445760209060ff600254169051908152f35b915034610229576020908160031936011261039557823592338552600383526102b58483872054101561053b565b338552600383528185206102ca85825461057e565b90558480808087335af13d15610390573d67ffffffffffffffff811161037d57835190610300601f8201601f1916870183610433565b815286853d92013e5b1561033c5750907f7fcf532c15f0a6db0bd6d0e038bea71d30d808c7d98cb3bf7268a95bf5081b6591519283523392a280f35b82606492519162461bcd60e51b8352820152601c60248201527f6661696c656420746f20776974686472617720746f2073656e646572000000006044820152fd5b634e487b7160e01b875260418352602487fd5b610309565b8380fd5b9250346103955783600319360112610395578354600181811c9186908281168015610429575b602095868610821461020c57508488529081156101ea57506001146103ef576101ac86866101a2828b0383610433565b8080949750528583205b82841061041657505050826101ac946101a2928201019438610191565b80548685018801529286019281016103f9565b93607f16936103bf565b90601f8019910116810190811067ffffffffffffffff82111761045557604052565b634e487b7160e01b600052604160045260246000fd5b6020808252825181830181905290939260005b8281106104a057505060409293506000838284010152601f8019910116010190565b81810186015184820160400152850161047e565b600435906001600160a01b03821682036104ca57565b600080fd5b919082018092116104dc57565b634e487b7160e01b600052601160045260246000fd5b336000526003602052604060002061050b3482546104cf565b90556040513481527fe1fffcc4923d04b559f4d29a8bfc6cda04eb5b0d3c460751c2402c5c5cc9109c60203392a2565b1561054257565b60405162461bcd60e51b8152602060048201526014602482015273696e73756666696369656e742062616c616e636560601b6044820152606490fd5b919082039182116104dc5756fea26469706673582212201392bc3199ab613bc84b097477ac2e199bb1c5bc21a129f158f3f057cb757d7064736f6c63430008140033",
  "linkReferences": {},
  "deployedLinkReferences": {}
}