{
  "_format": "hh-sol-artifact-1",
  "contractName": "ERC20TestCaller",
  "sourceName": "solidity/precompiles/erc20/testdata/ERC20TestCaller.sol",
  "abi": [
    {
      "inputs": [
        {
          "internalType": "address",
          "name": "tokenAddress",
          "type": "address"
        }
      ],
      "stateMutability": "nonpayable",
      "type": "constructor"
    },
    {
      "inputs": [
        {
          "internalType": "address",
          "name": "owner",
          "type": "address"
        },
        {
          "internalType": "address",
          "name": "spender",
          "type": "address"
        }
      ],
      "name": "allowance",
      "outputs": [
        {
          "internalType": "uint256",
          "name": "",
          "type": "uint256"
        }
      ],
      "stateMutability": "view",
      "type": "function"
    },
    {
      "inputs": [
        {
          "internalType": "address",
          "name": "spender",
          "type": "address"
        },
        {
          "internalType": "uint256",
          "name": "amount",
          "type": "uint256"
        }
      ],
      "name": "approve",
      "outputs": [
        {
          "internalType": "bool",
          "name": "",
          "type": "bool"
        }
      ],
      "stateMutability": "nonpayable",
      "type": "function"
    },
    {
      "inputs": [
        {
          "internalType": "address",
          "name": "owner",
          "type": "address"
        }
      ],
      "name": "balanceOf",
      "outputs": [
        {
          "internalType": "uint256",
          "name": "",
          "type": "uint256"
        }
      ],
      "stateMutability": "view",
      "type": "function"
    },
    {
      "inputs": [],
      "name": "counter",
      "outputs": [
        {
          "internalType": "uint256",
          "name": "",
          "type": "uint256"
        }
      ],
      "stateMutability": "view",
      "type": "function"
    },
    {
      "inputs": [],
      "name": "decimals",
      "outputs": [
        {
          "internalType": "uint8",
          "name": "",
          "type": "uint8"
        }
      ],
      "stateMutability": "view",
      "type": "function"
    },
    {
      "inputs": [],
      "name": "name",
      "outputs": [
        {
          "internalType": "string",
          "name": "",
          "type": "string"
        }
      ],
      "stateMutability": "view",
      "type": "function"
    },
    {
      "inputs": [],
      "name": "symbol",
      "outputs": [
        {
          "internalType": "string",
          "name": "",
          "type": "string"
        }
      ],
      "stateMutability": "view",
      "type": "function"
    },
    {
      "inputs": [
        {
          "internalType": "address payable",
          "name": "_source",
          "type": "address"
        },
        {
          "internalType": "uint256",
          "name": "amount_to_transfer",
          "type": "uint256"
        },
        {
          "internalType": "uint256",
          "name": "amount_to_send",
          "type": "uint256"
        },
        {
          "internalType": "uint256",
          "name": "amount_to_send_after",
          "type": "uint256"
        },
        {
          "internalType": "bool",
          "name": "_before",
          "type": "bool"
        },
        {
          "internalType": "bool",
          "name": "_after",
          "type": "bool"
        }
      ],
      "name": "testTransferAndSend",
      "outputs": [
        {
          "internalType": "bool",
          "name": "",
          "type": "bool"
        }
      ],
      "stateMutability": "payable",
      "type": "function"
    },
    {
      "inputs": [],
      "name": "token",
      "outputs": [
        {
          "internalType": "contract IERC20Metadata",
          "name": "",
          "type": "address"
        }
      ],
      "stateMutability": "view",
      "type": "function"
    },
    {
      "inputs": [],
      "name": "totalSupply",
      "outputs": [
        {
          "internalType": "uint256",
          "name": "",
          "type": "uint256"
        }
      ],
      "stateMutability": "view",
      "type": "function"
    },
    {
      "inputs": [
        {
          "internalType": "address",
          "name": "to",
          "type": "address"
        },
        {
          "internalType": "uint256",
          "name": "amount",
          "type": "uint256"
        }
      ],
      "name": "transfer",
      "outputs": [
        {
          "internalType": "bool",
          "name": "",
          "type": "bool"
        }
      ],
      "stateMutability": "nonpayable",
      "type": "function"
    },
    {
      "inputs": [
        {
          "internalType": "address",
          "name": "from",
          "type": "address"
        },
        {
          "internalType": "address",
          "name": "to",
          "type": "address"
        },
        {
          "internalType": "uint256",
          "name": "amount",
          "type": "uint256"
        }
      ],
      "name": "transferFrom",
      "outputs": [
        {
          "internalType": "bool",
          "name": "",
          "type": "bool"
        }
      ],
      "stateMutability": "nonpayable",
      "type": "function"
    },
    {
      "inputs": [
        {
          "internalType": "address",
          "name": "to",
          "type": "address"
        },
        {
          "internalType": "uint256",
          "name": "amount",
          "type": "uint256"
        },
        {
          "internalType": "bool",
          "name": "before",
          "type": "bool"
        },
        {
          "internalType": "bool",
          "name": "aft",
          "type": "bool"
        }
      ],
      "name": "transferWithRevert",
      "outputs": [
        {
          "internalType": "bool",
          "name": "",
          "type": "bool"
        }
      ],
      "stateMutability": "payable",
      "type": "function"
    },
    {
      "inputs": [
        {
          "internalType": "address payable",
          "name": "receiver",
          "type": "address"
        },
        {
          "internalType": "uint256",
          "name": "amount_to_transfer",
          "type": "uint256"
        },
        {
          "internalType": "uint256",
          "name": "amount_to_fail",
          "type": "uint256"
        }
      ],
      "name": "transfersWithTry",
      "outputs": [],
      "stateMutability": "payable",
      "type": "function"
    }
  ],
  "bytecode": "0x60803461007757601f610bf638819003918201601f19168301916001600160401b0383118484101761007c5780849260209460405283398101031261007757516001600160a01b0381169081900361007757600080546001600160a01b031916919091178155600155604051610b6390816100938239f35b600080fd5b634e487b7160e01b600052604160045260246000fdfe608060408181526004918236101561001657600080fd5b600092833560e01c9184836306fdde03146108975750508163095ea7b31461083b57816318160ddd146107ef57816323b872dd14610776578163268d070a14610639578163313ce5671461059d57816361bc221a1461057e5781636bc7b7cd1461046657816370a08231146103c857816395d89b411461034d578163a9059cbb146102b5578163d0fedf551461019e578163dd62ed3e146100eb575063fc0c546a146100c157600080fd5b346100e757816003193601126100e757905490516001600160a01b039091168152602090f35b5080fd5b919050346101885780600319360112610188576020610108610950565b604461011261096b565b86548551636eb1769f60e11b81526001600160a01b0394851697810197909752908316602487015285928391165afa918215610194578392610159575b6020838351908152f35b9091506020813d821161018c575b8161017460209383610981565b81010312610188576020925051903861014f565b8280fd5b3d9150610167565b81513d85823e3d90fd5b83915060803660031901126100e7576101b5610950565b9060443580151581036102b1576064359283151584036102ad5790602061022286936101e2600154610a4f565b6001558454895163a9059cbb60e01b81526001600160a01b03928316888201908152602435602082015290998a9493909216928492918391604090910190565b03925af19485156102a3578295610273575b5061025b576001549182156102605750506000190160015561025b57602091519015158152f35b610a74565b634e487b7160e01b825260119052602490fd5b61029591955060203d811161029c575b61028d8183610981565b8101906109b9565b9386610234565b503d610283565b86513d84823e3d90fd5b8480fd5b8380fd5b919050346101885780600319360112610188576020610311926102d6610950565b8554845163a9059cbb60e01b81526001600160a01b039283169381019384526024356020850152958693919092169183918891839160400190565b03925af1918215610194576020939261032e575b50519015158152f35b610346919250833d811161029c5761028d8183610981565b9038610325565b91905034610188578260031936011261018857825481516395d89b4160e01b815292849184919082906001600160a01b03165afa918215610194578361039f94936103a3575b50505191829182610924565b0390f35b6103c09293503d8091833e6103b88183610981565b8101906109ed565b903880610393565b8383346100e7576020928360031936011261018857836103e6610950565b845484516370a0823160e01b81526001600160a01b039283169481019490945283916024918391165afa92831561045b578093610426575b505051908152f35b909192508382813d8311610454575b61043f8183610981565b8101031261045157505190838061041e565b80fd5b503d610435565b8251903d90823e3d90fd5b828460c03660031901126104515761047c610950565b926084359384151585036101885760a4359182151583036102b1576001600160a01b03828116969091906104c1868080806044358d5af16104bb610aa7565b50610ad7565b610545578454865163a9059cbb60e01b81526001600160a01b03949094169184019182526024356020808401919091529284928390036040019183918891165af1908115610574579061051a9184916105565750610ad7565b61054557808080602095606435905af190610533610aa7565b5061053d82610ad7565b519015158152f35b610550600154610a4f565b50610a74565b61056e915060203d811161029c5761028d8183610981565b866104bb565b84513d85823e3d90fd5b5050346100e757816003193601126100e7576020906001549051908152f35b8284346104515780600319360112610451578054825163313ce56760e01b81529360209185919082906001600160a01b03165afa92831561062d5781936105ec575b60208460ff855191168152f35b9092506020813d8211610625575b8161060760209383610981565b8101031261018857519160ff83168303610451575060ff60206105df565b3d91506105fa565b509051903d90823e3d90fd5b919050606036600319011261018857610650610950565b60019261065d8454610a4f565b84558454835163a9059cbb60e01b81526001600160a01b038481168483019081526024356020828101919091529691939192918791839186169082908c90829060400103925af190811561076c57889161074f575b501561071a57519263d0fedf5560e01b845216908201526044356024820152826044820152826064820152818160848187305af16106fc575b50506106f78154610a4f565b905580f35b8161071292903d1061029c5761028d8183610981565b5038806106eb565b5162461bcd60e51b8152808301859052601060248201526f3330b4b6103a37903a3930b739b332b960811b6044820152606490fd5b6107669150863d881161029c5761028d8183610981565b386106b2565b82513d8a823e3d90fd5b91905034610188576060366003190112610188576020610794610950565b606461079e61096b565b865485516323b872dd60e01b81526001600160a01b039485169781019790975290831660248701526044803590870152859283918891165af1918215610194576020939261032e5750519015158152f35b91905034610188578260031936011261018857825481516318160ddd60e01b81529260209184919082906001600160a01b03165afa918215610194578392610159576020838351908152f35b9190503461018857806003193601126101885760206103119261085c610950565b8554845163095ea7b360e01b81526001600160a01b039283169381019384526024356020850152958693919092169183918891839160400190565b91828591346100e757816003193601126100e75781546306fdde0360e01b855284919082906001600160a01b03165afa918215610194578361039f94936108e45750505191829182610924565b6108f99293503d8091833e6103b88183610981565b908380610393565b60005b8381106109145750506000910152565b8181015183820152602001610904565b604091602082526109448151809281602086015260208686019101610901565b601f01601f1916010190565b600435906001600160a01b038216820361096657565b600080fd5b602435906001600160a01b038216820361096657565b90601f8019910116810190811067ffffffffffffffff8211176109a357604052565b634e487b7160e01b600052604160045260246000fd5b90816020910312610966575180151581036109665790565b67ffffffffffffffff81116109a357601f01601f191660200190565b6020818303126109665780519067ffffffffffffffff8211610966570181601f82011215610966578051610a20816109d1565b92610a2e6040519485610981565b8184526020828401011161096657610a4c9160208085019101610901565b90565b6000198114610a5e5760010190565b634e487b7160e01b600052601160045260246000fd5b60405162461bcd60e51b815260206004820152600b60248201526a726576657274206865726560a81b6044820152606490fd5b3d15610ad2573d90610ab8826109d1565b91610ac66040519384610981565b82523d6000602084013e565b606090565b15610ade57565b60405162461bcd60e51b815260206004820152602160248201527f4661696c656420746f2073656e6420457468657220746f2064656c656761746f6044820152603960f91b6064820152608490fdfea264697066735822122062ba743dd9ada86a55113a52bb15264a99fef9ed2643c9db57b47edded3c20b664736f6c63430008140033",
  "linkReferences": {},
  "deployedLinkReferences": {}
}