{
  "_format": "hh-sol-artifact-1",
  "contractName": "SimpleSmartWallet",
  "sourceName": "solidity/tests/contracts/account_abstraction/smartwallet/SimpleSmartWallet.sol",
  "abi": [
    {
      "inputs": [],
      "name": "entryPoint",
      "outputs": [
        {
          "internalType": "contract EntryPoint",
          "name": "",
          "type": "address"
        }
      ],
      "stateMutability": "view",
      "type": "function"
    },
    {
      "inputs": [
        {
          "internalType": "address",
          "name": "target",
          "type": "address"
        },
        {
          "internalType": "uint256",
          "name": "value",
          "type": "uint256"
        },
        {
          "internalType": "bytes",
          "name": "data",
          "type": "bytes"
        }
      ],
      "name": "execute",
      "outputs": [],
      "stateMutability": "nonpayable",
      "type": "function"
    },
    {
      "inputs": [
        {
          "internalType": "address",
          "name": "_owner",
          "type": "address"
        },
        {
          "internalType": "contract EntryPoint",
          "name": "_entryPoint",
          "type": "address"
        }
      ],
      "name": "initialize",
      "outputs": [],
      "stateMutability": "nonpayable",
      "type": "function"
    },
    {
      "inputs": [],
      "name": "owner",
      "outputs": [
        {
          "internalType": "address",
          "name": "",
          "type": "address"
        }
      ],
      "stateMutability": "view",
      "type": "function"
    },
    {
      "inputs": [
        {
          "components": [
            {
              "internalType": "address",
              "name": "sender",
              "type": "address"
            },
            {
              "internalType": "uint256",
              "name": "nonce",
              "type": "uint256"
            },
            {
              "internalType": "bytes",
              "name": "initCode",
              "type": "bytes"
            },
            {
              "internalType": "bytes",
              "name": "callData",
              "type": "bytes"
            },
            {
              "internalType": "uint256",
              "name": "callGasLimit",
              "type": "uint256"
            },
            {
              "internalType": "uint256",
              "name": "verificationGasLimit",
              "type": "uint256"
            },
            {
              "internalType": "uint256",
              "name": "preVerificationGas",
              "type": "uint256"
            },
            {
              "internalType": "uint256",
              "name": "maxFeePerGas",
              "type": "uint256"
            },
            {
              "internalType": "uint256",
              "name": "maxPriorityFeePerGas",
              "type": "uint256"
            },
            {
              "internalType": "bytes",
              "name": "paymasterAndData",
              "type": "bytes"
            },
            {
              "internalType": "bytes",
              "name": "signature",
              "type": "bytes"
            }
          ],
          "internalType": "struct UserOperation",
          "name": "userOp",
          "type": "tuple"
        },
        {
          "internalType": "bytes32",
          "name": "userOpHash",
          "type": "bytes32"
        },
        {
          "internalType": "uint256",
          "name": "",
          "type": "uint256"
        }
      ],
      "name": "validateUserOp",
      "outputs": [
        {
          "internalType": "uint256",
          "name": "validationData",
          "type": "uint256"
        }
      ],
      "stateMutability": "view",
      "type": "function"
    },
    {
      "stateMutability": "payable",
      "type": "receive"
    }
  ],
  "bytecode": "0x608060405234801561001057600080fd5b50610d71806100206000396000f3fe60806040526004361061004e5760003560e01c80633a871cdd1461005a578063485cc955146100975780638da5cb5b146100c0578063b0d691fe146100eb578063b61d27f61461011657610055565b3661005557005b600080fd5b34801561006657600080fd5b50610081600480360381019061007c91906106d0565b61013f565b60405161008e919061074e565b60405180910390f35b3480156100a357600080fd5b506100be60048036038101906100b99190610817565b610328565b005b3480156100cc57600080fd5b506100d561043c565b6040516100e29190610866565b60405180910390f35b3480156100f757600080fd5b50610100610460565b60405161010d91906108e0565b60405180910390f35b34801561012257600080fd5b5061013d60048036038101906101389190610960565b610486565b005b6000600160009054906101000a900473ffffffffffffffffffffffffffffffffffffffff1673ffffffffffffffffffffffffffffffffffffffff163373ffffffffffffffffffffffffffffffffffffffff16146101d1576040517f08c379a00000000000000000000000000000000000000000000000000000000081526004016101c890610a31565b60405180910390fd5b6000806000610232878061014001906101ea9190610a60565b8080601f016020809104026020016040519081016040528093929190818152602001838380828437600081840152601f19601f820116905080830192505050505050506105cd565b92509250925060006001878585856040516000815260200160405260405161025d9493929190610aee565b6020604051602081039080840390855afa15801561027f573d6000803e3d6000fd5b50505060206040510351905060008054906101000a900473ffffffffffffffffffffffffffffffffffffffff1673ffffffffffffffffffffffffffffffffffffffff168173ffffffffffffffffffffffffffffffffffffffff1614610319576040517f08c379a000000000000000000000000000000000000000000000000000000000815260040161031090610b7f565b60405180910390fd5b60009450505050509392505050565b600073ffffffffffffffffffffffffffffffffffffffff1660008054906101000a900473ffffffffffffffffffffffffffffffffffffffff1673ffffffffffffffffffffffffffffffffffffffff16146103b7576040517f08c379a00000000000000000000000000000000000000000000000000000000081526004016103ae90610beb565b60405180910390fd5b816000806101000a81548173ffffffffffffffffffffffffffffffffffffffff021916908373ffffffffffffffffffffffffffffffffffffffff16021790555080600160006101000a81548173ffffffffffffffffffffffffffffffffffffffff021916908373ffffffffffffffffffffffffffffffffffffffff1602179055505050565b60008054906101000a900473ffffffffffffffffffffffffffffffffffffffff1681565b600160009054906101000a900473ffffffffffffffffffffffffffffffffffffffff1681565b600160009054906101000a900473ffffffffffffffffffffffffffffffffffffffff1673ffffffffffffffffffffffffffffffffffffffff163373ffffffffffffffffffffffffffffffffffffffff1614610516576040517f08c379a000000000000000000000000000000000000000000000000000000000815260040161050d90610a31565b60405180910390fd5b60008473ffffffffffffffffffffffffffffffffffffffff16848484604051610540929190610c4a565b60006040518083038185875af1925050503d806000811461057d576040519150601f19603f3d011682016040523d82523d6000602084013e610582565b606091505b50509050806105c6576040517f08c379a00000000000000000000000000000000000000000000000000000000081526004016105bd90610caf565b60405180910390fd5b5050505050565b60008060006041845114610616576040517f08c379a000000000000000000000000000000000000000000000000000000000815260040161060d90610d1b565b60405180910390fd5b6020840151915060408401519050606084015160001a92509193909250565b600080fd5b600080fd5b600080fd5b6000610160828403121561065b5761065a61063f565b5b81905092915050565b6000819050919050565b61067781610664565b811461068257600080fd5b50565b6000813590506106948161066e565b92915050565b6000819050919050565b6106ad8161069a565b81146106b857600080fd5b50565b6000813590506106ca816106a4565b92915050565b6000806000606084860312156106e9576106e8610635565b5b600084013567ffffffffffffffff8111156107075761070661063a565b5b61071386828701610644565b935050602061072486828701610685565b9250506040610735868287016106bb565b9150509250925092565b6107488161069a565b82525050565b6000602082019050610763600083018461073f565b92915050565b600073ffffffffffffffffffffffffffffffffffffffff82169050919050565b600061079482610769565b9050919050565b6107a481610789565b81146107af57600080fd5b50565b6000813590506107c18161079b565b92915050565b60006107d282610769565b9050919050565b60006107e4826107c7565b9050919050565b6107f4816107d9565b81146107ff57600080fd5b50565b600081359050610811816107eb565b92915050565b6000806040838503121561082e5761082d610635565b5b600061083c858286016107b2565b925050602061084d85828601610802565b9150509250929050565b61086081610789565b82525050565b600060208201905061087b6000830184610857565b92915050565b6000819050919050565b60006108a66108a161089c84610769565b610881565b610769565b9050919050565b60006108b88261088b565b9050919050565b60006108ca826108ad565b9050919050565b6108da816108bf565b82525050565b60006020820190506108f560008301846108d1565b92915050565b600080fd5b600080fd5b600080fd5b60008083601f8401126109205761091f6108fb565b5b8235905067ffffffffffffffff81111561093d5761093c610900565b5b60208301915083600182028301111561095957610958610905565b5b9250929050565b6000806000806060858703121561097a57610979610635565b5b6000610988878288016107b2565b9450506020610999878288016106bb565b935050604085013567ffffffffffffffff8111156109ba576109b961063a565b5b6109c68782880161090a565b925092505092959194509250565b600082825260208201905092915050565b7f6f6e6c7920456e747279506f696e740000000000000000000000000000000000600082015250565b6000610a1b600f836109d4565b9150610a26826109e5565b602082019050919050565b60006020820190508181036000830152610a4a81610a0e565b9050919050565b600080fd5b600080fd5b600080fd5b60008083356001602003843603038112610a7d57610a7c610a51565b5b80840192508235915067ffffffffffffffff821115610a9f57610a9e610a56565b5b602083019250600182023603831315610abb57610aba610a5b565b5b509250929050565b610acc81610664565b82525050565b600060ff82169050919050565b610ae881610ad2565b82525050565b6000608082019050610b036000830187610ac3565b610b106020830186610adf565b610b1d6040830185610ac3565b610b2a6060830184610ac3565b95945050505050565b7f496e76616c6964207369676e6174757265000000000000000000000000000000600082015250565b6000610b696011836109d4565b9150610b7482610b33565b602082019050919050565b60006020820190508181036000830152610b9881610b5c565b9050919050565b7f616c726561647920696e697469616c697a656400000000000000000000000000600082015250565b6000610bd56013836109d4565b9150610be082610b9f565b602082019050919050565b60006020820190508181036000830152610c0481610bc8565b9050919050565b600081905092915050565b82818337600083830152505050565b6000610c318385610c0b565b9350610c3e838584610c16565b82840190509392505050565b6000610c57828486610c25565b91508190509392505050565b7f457865637574696f6e206661696c656400000000000000000000000000000000600082015250565b6000610c996010836109d4565b9150610ca482610c63565b602082019050919050565b60006020820190508181036000830152610cc881610c8c565b9050919050565b7f696e76616c6964207369676e6174757265206c656e6774680000000000000000600082015250565b6000610d056018836109d4565b9150610d1082610ccf565b602082019050919050565b60006020820190508181036000830152610d3481610cf8565b905091905056fea26469706673582212202c2c5b43eeb782fbe350b110535f44d858d4290cec37b9b86124fe5886827a0364736f6c63430008140033",
  "linkReferences": {},
  "deployedLinkReferences": {}
}